:400000000020002011000000551000005510000010B501F03FF8C04610B51222164B1A6001F0E0FB302001F091FD144A144B1A60144A154B1A60154B154A1A601549164ADD
:400040001160164A1A6080221206154B1A608022D202144B1A604022134B1A600132134B1A601349082001F095FC082001F086FC0022104B1A6010BD3000104006000080A2
:4000800004010B4000DF0100000301400000014040FF0080007FBB000403014041FF008008010B4000010B40300101402C010140291E00000C020B4010B572B601222B4BE4
:4000C0001A7000240FE02A486200131959000B00411889881A5AC31858880004104300F0B3FF0134E4B2012CEDD9214801000C31543000F07FFF1F4A1F4B1A6099231B04EE
:400100001E4A13601E4A13601E4A1360832292041D4B1A6001221D4B1A601D490B783B32934314221343DBB20B701A4A117816230B43DBB213700322174B1A60013A174B2A
:400140001A60FD32164B1A60164B17490B6017490A60174A13601322164B1A60164A174B1A60FFF759FF00F05FFF10BD1C700F40004C000030EE03000003024010500F4040
:4001800020500F4070500F4078500F402000104001700F4000700F40000D04400C0D0440000104402449920008010440000204400802044000030440B26D000008030440E3
:4001C00010B5064C2378002B07D1054B002B02D0044800E000BF0123237010BDC801002000000000E0400000084B10B5002B03D00749084800E000BF07480368002B00D17A
:4002000010BD064B002BFBD09847F9E700000000CC010020E0400000C000002000000000F0B583B062B600F091FE03F05DF903F0D7F90121002001F00FFF00F0A5F8FA209B
:40024000400001F0DFFB00F06BFB002501F046FF002805D001F03CFF002801D002F06AF801F036FF0028F1D057E000F075FB012853D100F067FB060000F068FB041E4AD072
:4002800001280AD933782B2B07D173782B2B04D10100300000F0CAFC3DE0364B9B89012B0BD0002B02D0022B0BD00DE0631C0D223255033AF254023406E00D2333550134E0
:4002C00002E00A233355013400F0A2F8022819D1284DA8792200310000F012FA2B89002B14D0012B08D0022B12D13F222100300000F05AFE00280DD01E4B987900F0C6F9B0
:40030000012508E01C4800F097FA04E0002502E0002500E0002500F003FB00F0A7FA0028A3D100F043F8012805D100F071F80100124800F081FA002D88D000F069F8022851
:4003400084D100F0D1F9002800D17FE700F018F8040001A98020400000F0EEF90100200000F032FE0100200000F0AAFB019B002BEFD06BE7300700200041000020410000E2
:4003800000487047580200207047C046054B186880B2054B1B68FF2213400002184380B27047C046040104400402044010B5154B1C68154B196801221B689B0813400A426D
:4003C00001D0002B03D100220E4B1A6012E0002C06D1002003F0AEF801220A4B1A6009E0012C07D103F0AEF8084B984202D90222044B1A60034B1868001B431E9841C0B287
:4004000010BDC046E401002004010440B80B0000014B18687047C046E401002070B50400002902D040221A4B1A60002003F082F8184B1B68DB0607D403F084F8164B5B8A01
:400440009842F5D9002500E00125002D16D0E443124B1C60022001F06FFB20220C4B1A60002003F067F80B4B1B681B0706D403F069F8094B5B8A9842F5D90025084B2022D0
:400480001A60FF21054A116040221A60280070BD440104400401044030070020000204404001044070B505000E000822254B1A600832254B1A60002003F03CF8234B1B6815
:4004C0009B0607D503F03EF8214B5B8A9842F5D9002400E00124002C06D11B4B10221A60083A1A6000202BE01022164B1A60194B1B68DB432B70154B1B689B090F3A134068
:400500005A42534133602B780A2B01D1093B336008220D4B1A60002003F00CF80B4B1B689B0606D403F00EF8094B5B8A9842F5D900240822034B1A600832034B1A602000FE
:4005400070BDC046440104404001044004010440300700200402044010B50424054B1C60962001F0E9FA044B1C60962001F0E4FA10BDC046440104404001044010B52030C7
:40058000C0B20021FFF74AFF10BDC04610B54030C0B20021FFF742FF10BDC04610B51F20FFF7ECFF10BDC04610B51F20FFF7EEFF10BDC04610B50124074B1C60022001F087
:4005C000BBFA00210420FFF729FF044B1C60022001F0B2FA10BDC046440104404001044010B50124074B1C60022001F0A5FA00211120FFF713FF044B1C60022001F09CFA40
:4006000010BDC046440104404001044070B5094C802323600125084B1D60022001F08CFA00210120FFF7FAFE2560022001F084FA70BDC0464001044044010440F8B507006F
:400640000F4C10232360083B23600E4E78333360022001F071FA01253560022001F06CFAFFF79CFFFFF7A0FF3800FFF787FF064B1878FFF78BFF2560022001F05DFAF8BD78
:400680004001044044010440C4000020F0B54F4680B482B00190114C10252560082727600F4E012399463360022001F045FAFFF775FFFFF779FF0B4B1878FFF75FFF01985A
:4006C000FFF764FF4B462360022001F035FA35603760256002B004BC9146F0BD4001044044010440C4000020044B186840090123184043425841C0B27047C0460401044088
:40070000F8B50F0015000B4B5B89002B01D0561E01E001267642FFF791FF002407E0A11B4B425941C9B2385DFFF778FE0134AC42F5DBF8BD30070020F0B583B006000F00A2
:400740001B4C00252DE001A92000FFF7ABFE002803D10223FF333B6027E06B1C019A002A10D0144A128A002A04D0124BDB896370AB1C013480225200964203D1FF3A3A605B
:400780001D0012E00222FF32964201D1013407E02278964203D101223A601D0005E001341D00FE2DCFDD00233B60280003B0F0BD580200203007002010B501F03BFE0028B3
:4007C000FBD0054C40212368C91A89B2034801F0FBFD4023236010BDC80000205803002070B506000D0016E00C4B18682C00854200DD04004023181A094BC018220031009C
:4008000003F005F836192D1B044B1A68141B1C6001D1FFF7D1FF002DE6DC70BDC80000205803002010B5040003F01AF801002000FFF7D6FF10BDC0460FB410B582B004ABA8
:4008400004CB0193074C0849200003F03BF82000FFF7E8FFFFF7B0FF02B010BC08BC04B01847C046D8030020FF01000010B5064B1B68002B05DC01F0CFFD431E9841C0B225
:4008800000E0012010BDC046E801002010B50BE001F0C2FD0028FBD00A4C200001F0D8FD094B1860094B5C60074B1B68002BEFD0013B054A1360054A5368591C5160187873
:4008C00010BDC04698030020E8010020C8000020F0B583B001900091002711E0FB000F4A9C58009A0199200002F082FF061E06D1200002F0B5FF009B83420BD109E001373A
:40090000FB00064AD3185D68002DE7D10126764200E02E00300003B0F0BDC0464841000010B50023044A1370044A13600448FFF779FFFFF741FF10BDE0050020EC01002082
:400940007041000000487047E0050020014B18687047C046EC01002070B582B0FFF796FF01904C4B5B68002B16D0591C494A5160494AD0541000FFF7ABFF0190431C05D168
:400980003F2301930022434B5A6005E0002800D17EE000223F4B5A60019B1B2B12D006DC0A2B6ED00D2B31D0082B5CD120E03B4A934241D002DC7F2B0CD054E0384A934229
:4009C0005FDD50E01B22344B1A701A3A314B5A6000205DE02F4B1B68002B54DD013B2D4A13603048FFF71EFFFFF7E6FE00204FE0284B1B68002B48DD013B264A13602A4854
:400A0000FFF710FFFFF7D8FE002041E0214C0022264B21685A542648FFF704FFFFF7CCFE2468002C33DD22002049224802F0EFFE184B9C6001202BE0164CA6681B4D320015
:400A40001C49280002F0E3FE26601B48FFF7EAFE1A48FFF7E7FE21682800FFF7C1FEFFF7ABFE002014E00B490A68501C08600F498B54012101A8FFF7B3FEFFF79DFE002005
:400A800006E0002004E0002002E0002000E0012002B070BDEC010020D80500200110000004100000784100007C410000E00500201045000060060020804100007041000053
:400AC00070B504000D000A48FFF7ACFE29002000FFF786FE0748FFF7A5FE0748FFF7A2FE064B19680648FFF77BFEFFF765FE70BD804100001045000070410000EC01002055
:400B0000E005002010B5022201210248FFF794FE002010BD1844000010B5FFF737FC01000248FFF789FE002010BDC0463444000010B5FFF73FFD002010BDC04610B5FFF7C4
:400B40000BFD002010BDC04610B5FFF749FD002010BDC04610B5FFF759FD002010BDC046F8B505000F0000221B4B1A6000242EE029781A4802F05CFE002803D001340135D8
:400B8000BC42F5DBBC4202D1134B186823E0124B1B689B00124A9D502E0007E031780F4802F046FE002803D101340136BC42F5DB751C002333700134074A13680133136071
:400BC000142B04D10748FFF737FE002003E0BC42D6DB014B1868F8BDFC01002048440000E00600204C44000010B5040005E0064802F01EFE002805D0013421780029F6D130
:400C0000012000E0002010BD6844000010B50100002006E082001218500001312300303BC0180C78002CF5D110BDC04670B502300239FFF795FF051E18D000240EE00C4BE1
:400C4000186802F003FE002807D16401094A1219536829000648984708E001346301054A99580029EBD10448FFF7E6FD70BDC046E0060020984100007444000070B50D0046
:400C80004C6901681548FFF7D7FD21680B78002B03D004341248FFF7CFFD1248FFF7CCFD03E004341048FFF7C7FD21680029F8D1AC69002C05D107E021680C48FFF7BCFD46
:400CC00008346268002AF7D1AB68002B03D019880748FFF7B1FDFFF76FFD70BD94440000A4440000A8440000AC440000B4440000C0440000F8B506000C001500012906D15B
:400D0000936819881648FFF797FD002026E0022905D147683800FFF767FF002805D129003000FFF7ABFF012018E03800FFF76EFFAB89984202DBEB89984205DD29003000A6
:400D4000FFF79CFF012009E0AB681880EB69002B03D021003000984700E00020F8BDC046DC44000010B5012904D01100FFF786FF012005E0D369002B01D0984700E0002064
:400D800010BDC04670B50600022904DD1100FFF775FF01242BE001290AD000251DE06301144AD3181A691448FFF746FD013400E0002463010F4A99580029F0D1002416E0A8
:400DC000706802F043FD041E06D16D0109494919301DFFF753FF0AE001356B01054A99580029EDD171680548FFF726FD0024200070BDC04698410000E4440000F444000097
:400E0000F0B585B007000C000192FFF7B9FA0500022C05DD01993800FFF730FF01203DE0022C1DD17C681E49200002F00FFD002819D02000FFF7D8FE002805D101993800ED
:400E4000FFF71CFF012029E02000FFF7DFFE0600FF280AD901993800FFF710FF01201DE00226FF3601E0802676000E4B9879FFF70DFC03A93000FFF75FFC04000A48FFF703
:400E8000D1FC21002800FFF7ABFC0848FFF7CAFC039B002BEDD0FFF78FFC002005B0F0BD1445000030070020184500001045000070B5012928D01100FFF7E0FE01202AE031
:400EC0006B01154AD3189B68002B1BD01A886B011148C3189B69002B05D1002406E01868904203D008335C68002CF8D10B48FFF7A3FC002C03D021000948FFF79DFC094880
:400F0000FFF79AFC013500E000256B01024A99580029D5D1002070BD98410000204500003045000010450000074B0122DA80022119815A81002199811A822932DA81FA220D
:400F400092005A827047C0463007002010B5124802F0DAFA00281BD1104B1422104900F037FA002804D0FFF7DFFF0120404211E00B4B1A680B4B9A4206D0094B094A1A6086
:400F800001229A80FFF7D0FFFFF7CEFF002001E00120404210BDC046004A0000F80700203007002049ADDDBA10B5002305E0441C0078904205D0013320008B42F7DB002049
:400FC00000E0012010BDC04630B50400002200250BE003780A2B01D00D2B01D1013003E0013023700135013401328A42F1DB280030BDC046F0B50025002711E0BB00C65893
:40100000F3B2FF22964308E06A008A181478A419527822700135013BDBB2002BF4D10137062FEBD9F0BDC0460323044A1360044A13600022034B1A607047C04630003040B6
:4010400030003140000E3F4010B50A00002102F0E7FB10BD10B502F09FFB03680C2B00D1FEE7FEE710B50300084A1068C318084A9A1A802A02DC054A136005E002F08CFB08
:401080000C2303600120404210BDC046280100204008002070B50F4E0F4D13E029686B68AC68002202E001C901C30432A242FAD1E868002202E0002102C304328242FAD1B8
:4010C0001035013E002EE9D102F06CFBFFF7A8F8FEE7C04601000000D04E000010B50E4A136801218B43136000230AE0032B03D89A000A49505800E009489900094A8850F0
:4011000001332F2BF2D9FEF7D7FF034A116801230B43136010BDC0460000104000000000551000000000002070B58A6902600024002509E01368002B03D09D4201D20260FF
:401140001D000132FF3201340B694E6873439C42F0D370BD8B6904E00133FF330A68934203D21A688242F7D100E000231800704730B5002803D00C680134FF340C600C6835
:401180001D68AC4201D39C690C60002414605C68A04216D31D69012D11D908682102411A9B69994209D207498C4665446C4324021C19C01A2418146003E0116001E00B6803
:4011C000136030BDFFFFFF0030B505000024FF2014E02B5D584000220CE043B2002B05DA4000C3B231204340D8B201E04000C0B20132D2B2072AF0D90134A4B28C42E8D1DB
:4012000030BDC04610B5C4680268D1097F23134000D001235B1842685343027A013253431B02E318002C05D080225202934203D9032002E0032000E0002010BD10B5000A21
:4012400000F0E2F9002801D0042000E0002010BDF0B5C3B00400836800931D680126002724E0009E80225200310001A802F0CFFA01350195802121A8FFF7A6FF209022007E
:4012800001A93000FFF7DAFF009BA269981A23689C466044220001A9FFF7D0FF0600230041AA69462800FFF763FF01372369626853439F42D5D3300043B0F0BDF0B5C5B0B1
:4012C00006000191029203934A9FBB69C41A3B689C466444C56F80308021FFF775FF854207D1029BF118039A019802F090FA00241FE0E56F200080308021FFF765FF854225
:4013000016D180225200210004A802F080FA3A0004A93000FFF792FF041E0AD1029B990004AB9C466144039A019802F070FA00E00224200045B0F0BDF8B504000D1E3BD051
:4013400000283BD0C368002B3AD043680A2B39D80768002F38D0FFF755FF061E35D1EF6063682B61237A2B75637A6B75E368AB612268D1097F23134000D001235B186B604D
:40138000626853431B02E2689B182B602C00083429002000FFF7C8FEAB681B68002B14D12B7D002B11D02800FFF752FF060029002000FFF7B9FE08E0012606E0012604E0F6
:4013C000012602E0012600E001263000F8BDC046F0B55F4656464D464446F0B48BB08146079192461F000B000691002A00D1F6E04A440892F868824200D9F3E0002B00D12C
:40140000F3E0BC6823680993531EDB094A46D2099B1A01339B46BD69601B7E68310202F02FF9704300022B18039300254A460FE0EB019A4206D36B1CDB01013B9A4203D906
:40144000002302E0002300E00123002B05D10135B542EDD39146002500E09146039BE31A1B0A190005933B69012B09D95B46EB18013B8D4207D8994208D20123049307E097
:401480000023049304E00123049301E000230493C846079B0026012210004A460792B946474698463EE02802039B9C4660447F243C40220080320136B34502D980231C1B59
:4014C00000E05446049B002B0FD0059B9D420CD94B465B681902401A49468969884204D2581B030249460968C81A4B461B7D002B0CD04B46009323004146FFF7DFFE002828
:401500000AD082464F46079B994611E081182200404602F07CF900203F1953461B1B9A46A04401355E45BED382464F46079B99465346002B5BD1099A002A58D07B6814002B
:401540009A4200D91C00013C099B1C1B089A90461D0003974F463FE003992000FFF7FAFD002838D046688368F318B74203D246459241524202E09F4292415242002A2AD014
:40158000B74201D3BA1B00E00022B74202D2F11B8C4601E000218C463900B74200D231000C324646984500D91E00731A069961440E000399097D002908D0039900913100D5
:4015C000FFF77CFE8246002805D010E081181A00300002F01CF90134AC42BDD907E001239A4604E001239A4601E001239A4650460BB03CBC90469946A246AB46F0BDC046E1
:40160000002070470020704730B5C5B00400002343934293FF2872D8002970D08022520002A802F0F4F8384B9C4201D9374B00E0374B0093FF230193364B6A461A603649E8
:40164000364A1160C0461B681B0F1B07F0221206934204D12F4B1B68FF2213400DE02D4B1B681B0F1B07A0221206934204D0294B1B68FF22134000E000234393439B002B5B
:401680003FD101F0C6FF0500FFF7BAFF4290439B002B25D1224A0092009A2404144300941C4A694611601F481C490860C0461268120F1207F02109068A4204D1154B1B681C
:4016C000FF2213400BE0134A1268120F1207A02109068A4203D00F4B1B68FF2213404393429B002B07D1FFF78DFF4290429B002B01D0429B4393280001F08FFF01E0042375
:401700004393439845B030BDFF010000B6D70001B6D70000080010400400008004001040B6D800000500008070B5040001F071FF0500102C05D8104A136803218B431360D6
:4017400016E0202C07D80C490B6803229343023A13430B600CE0302C07D807490B6803229343013A13430B6002E0002000F010F9280001F052FF70BD3000104000230AE088
:401780000D4A12683F210A400C49C95C8A4201D1033303E001332D2BF2D9032308490868084A02400A60084A944663441B78DBB2064A13607047C0462CFF0B40704C00009C
:4017C00000002240FFFFFFBF4DF3FF0F28FF0B40034B18688023DB05184000D0012070470000224030B52D4B1A783F231340042B01D9012000E0002000230AE0284A126891
:401800003F210A402749C95C8A4201D1033303E001332D2BF2D9032323490A680124A2430A60224A126822490A6000280FD021490D681F4C65601F24A2431F4C247822437E
:401840001A4C22601D4A1278D2B20A6005E01F218A4317390A4315490A60302B0BD1002803D0174B1B78DBB202E0164B1B78DBB2154A13600CE0182B0AD1002803D0134BFE
:401880001B78DBB202E0124B1B78DBB20E4A1360104A116802230B43136030BD00F3FF0F2CFF0B40704C000050000C4034FF0B400002002020FF0B40C0F1FF0FC1F1FF0FE0
:4018C000C3F1FF0F3FF3FF0F28FF0B40C2F1FF0F3EF3FF0F24002C4030B51A4B1A783F231340042B01D9012000E0002000230AE0154A12683F210A401449C95C8A4201D179
:40190000033303E001332D2BF2D9032310490A680224A2430A600F4C21681F2291430E4D2D682A400A432260002803D00A4A51680A4A11600A4A944663441B78DBB2094A9A
:40194000136030BD00F3FF0F2CFF0B40704C000024002C4034FF0B400002002020FF0B404DF3FF0F28FF0B40034B1B680220184000D001207047C04624002C401F23184057
:401980001E3B8340014A13607047C04600E100E001BE704770B504000D001F2802D90020FFF7F6FF1034A40080239B059C4664442068256070BDC04670B504000E0003299E
:4019C00002D90020FFF7E4FF1F2C02D90020FFF7DFFF03252540ED00063501F01AFEA408A400074B9C46644421680323AB4099430B003100A9401943216001F00EFE70BD6D
:401A000000E400E010B5040006E0084B586801F0F7FD074B9C46644480231B029C42F4D8024B9868604301F0EBFD10BD2C0100200080FFFF70B582B000F0A0F9002862D05A
:401A400001F0E7FD0500314A116801230B43136000230AE02E4A12683F210A402D49C95C8A4201D1033303E001332D2BF2D903230021294A1160294A1268D20606D127482B
:401A800002681F318A4313390A430260244C2168244A1140244A5A438023DB019C466244D20B013A5205520D0B001343A0225203134323601D4B1B6801933020FFF734FEC4
:401AC0001B4A13688021C9050B4313602668194B1E40002407E00120FFF794FF1034A30533430F4A1360EE2CF5D90120FFF78AFFFF239B051E430A4B1E60019A0B4B1A60BA
:401B0000280001F08AFD02B070BDC04650000C402CFF0B40704C000028FF0B4034FF0B400800224000F800C040420F003000104000002240FFFF3FC010B5034B1B7B58438C
:401B400001F05EFD10BDC0462C010020F0B55F4656464D464446F0B483B0040001F059FD0190FFF735FE002804D0FFF707FE01239A4601E000239A46182C01D0302C04D1F5
:401B8000FFF7AAFE01239B4601E000239B46E61E2D2E74D8454B1B78DBB29C4208D8444B1B78DBB29946434B1B78DBB2984631E0414B1B78DBB29C4208D8404B1B78DBB244
:401BC00099463F4B1B78DBB2984623E03D4B1B78DBB29C4208D83C4B1B78DBB299463B4B1B78DBB2984615E0394B1B78DBB29C4208D8384B1B78DBB29946374B1B78DBB290
:401C0000984607E0354B1B78DBB29946344B1B78DBB29846334B9F5D2F2F09D92A2C07D91922314B1A60052001F0EAFC192503E02D4B1D683F231D40BD4206D9294B9A5DA0
:401C4000294B1A60052001F0DBFC254B9C4664442378DBB2254A1360254B4A461A60254B42461A600520FFF767FFBD420AD21D4B9A5D1D4B1A60052001F0C2FC02E0002026
:401C8000FFF786FE5346012B01D1FFF7D3FE5B46012B01D1FFF7A6FD019801F0BEFC03B03CBC90469946A246AB46F0BD40F3FF0F41F3FF0F42F3FF0F43F3FF0F44F3FF0F9B
:401CC00045F3FF0F46F3FF0F47F3FF0F48F3FF0F49F3FF0F4AF3FF0F4BF3FF0F4CF3FF0F4DF3FF0F704C00002CFF0B4028FF0B401CFF0B4020FF0B40134B1B78DAB20260F7
:401D0000124B1B781B0213430360114A12781204134303600F4A12781206134303600E4B1B78DAB242600D4B1B781B02134343600B4A12781204134343600A4A1278120676
:401D4000134343607047C04678F2FF0F79F2FF0F7AF2FF0F7BF2FF0F7CF2FF0F7DF2FF0F7EF2FF0F7FF2FF0F034B1868C0231B02184000D00120704700010B40034B1B68E6
:401D8000002B01DA012000E0002070470000224010B501F03EFC044A1368C02109020B43136001F03AFC10BD00010B4010B501F030FC08490A68084B1A408024E4012243FD
:401DC0000A600A6813408022120213430B6001F024FC10BD00010B40FF3FFFFF70B5050001F017FC0400FFF7BFFF002803D0FFF7DDFF012100E0002108482840084A15687A
:401E0000084B2B40184310601368012901D1FFF7BFFF200001F001FC70BDC0460404040010020B40FBFBFBFF10B5244B1B685B0715D5234B5B685B070ED5224B596A042087
:401E400001401F4C62688A4362605A6A82435A629B69002B00D098470420FFF7BFFF174B1B685B0518D5164B5B685B0510D5154B596A8022D2001140114842688A4342606D
:401E8000596A114A0A405A62DB69002B00D098478020C000FFF7A2FF084B1B685B030CD5074B5B685B0304D5064B1B6A002B00D098478020C002FFF791FF10BD10020B40C6
:401EC0004001002020020020FFFBFFFF10B50122244B1A60244A136820218B4313600A22224B1A60224C234B23602368224A1343236023680422934323600220FFF71CFE8D
:401F00002368082293432360FFF72EFD002800D002201A4B18601A4A1A4B1A6007221A4B1A6003211E20FFF747FD18491E20FFF731FD03211F20FFF73FFD15491F20FFF7A9
:401F400029FD03210020FFF737FD12490020FFF721FD03210520FFF72FFD0F490520FFF719FD10BD74022C4048002C4030032C4000202C40030000040C0000B824002C4061
:401F80001A00150030202C4028202C40392A0000B92A0000792A0000F92A000010B50C00204B18700023204A1370204A1370204A1370204A1370204A1370204A1370204A97
:401FC00013701E20FFF7DAFC0020FFF7D7FC1F20FFF7D4FC002C02D0012C06D00BE0194A136801218B4313600AE0164A116801230B43136004E0134A116801230B431360F2
:4020000010490B68042293430B6000210E4B196001310E4B19607F310D4B19600D4B1A6010BDC0465D070020600700207C0700207F070020740700207E0700208107002014
:402040005C07002024002C40A4002C40A0002C4020002C4048002C4070B504000D00074B1B78002B04D1FFF731FF0122034B1A7029002000FFF792FF70BDC0464802002048
:4020800000230A4A13700A4A13700A4A13700A4A13700A4A13700A4A13700A4A13700122094B1A607F32094B1A607047600700207C0700207F070020740700207E070020E5
:4020C000810700205C070020A0002C4020002C40014B1878C0B270477F070020054B1B78002B05D0034B1878C0B200221A7000E0002070477C070020430018188300024AF7
:40210000D3185878C0B2704784070020431EDBB2072B10D88301094A985880B20002F02212011040054A944663445B68184380B2023880B200E000207047C046F0FF2B40F5
:40214000F0B5431EDBB2072B41D8060044002418A3001F4CE318DC8880239B001B1B9A4209D9420012189300194AD318DA8880239B009A1A92B2130A45002D18AC00144DC3
:402180002C19E4781C438301124D5C51D4B2AC4663445C60002909D10BE0CD5CB4010E4FBC466444256201339BB200E000239A42F3D8420012189300054AD31800225A700A
:4021C0005B79DBB28001034A944660448360F0BD84070020F0FF2B40C0012C40431EDBB2072B0DD8420012189300064AD31800225A705B79DBB28001034A944660448360B5
:402200007047C04684070020F0FF2B4070B505000E00140000291BD000281BD008281BD8FFF774FFA04203D22800FFF76FFF0400002307E0AA010A498C466244126AF25454
:4022400001339BB2A342F5D32800FFF7C7FF04E0002402E0002400E00024200070BDC046C0012C4010B5FF2400220FE0094B9B5CDBB25900CB189900074B59188B7ADBB2BF
:40228000834201D1140002220132D2B2012AEDD9200010BD4C0700208407002010B5204C2069C0B2FFF7DEFF23681B060DD56368212B31D11B4A1A3B1380C300181A1A4B4F
:4022C0001818506000F0FCFA29E0154B5B68202B02D0222B11D021E0124A07231380C3001B1A1149CB185360104A115C01230B43DBB2135400F010FB11E0094B9B68DBB2A2
:4023000041000B4A8B52094A115C02230B43DBB2135400F093F902E0002000E0002010BD00002C406807002048010020440700205807002010B500231E4A13701E4A1370AC
:40234000537000240AE01D4B185DC0B2431EDBB2072B01D8FFF742FF0134E4B2012CF2D9174B1B78002B18D0144B1B78002B16D0144B1B78002B14D0114B1B78DBB2082B8F
:4023800011D80E4B1B78DBB2082B0ED80D4B1B78DBB2082B0BD800200AE0012008E0012006E0012004E0012002E0012000E0012010BDC046490200204407002050070020B0
:4023C000480700204C07002070B506000D000F4B1B780F4AD45CE4B26200121993000D4AD3181B899BB28B4209D2620012199300084AD3181D89ADB20020FFF7C9FA2A0057
:4024000031002000FFF79CFE70BDC04649020020480700208407002010B5044B1B78044AD05CC0B2FFF768FE10BDC046490200205007002010B5044B1B78044AD05CC0B2CC
:40244000FFF75AFE10BDC046490200204807002010B50100074B1B78074AD35CD8B2420012189300054AD3181A8992B2FFF7CEFE10BDC0464902002050070020840700206A
:4024800010B5C37803242340807840B2002812DA032B07D0012313400D48C15401200243D2B212E09308012003400A48C15404200243D2B209E0032B07D0530801200340D2
:4024C0000548C15402200243D2B2100010BDC046480700204C0700205007002010B51F4B1B781F4A1188CB189BB2138000210EE01C4B5A681278D2B28C001B4822505A6863
:4025000001325A6001311A88013A92B21A80154B1B889BB2002B01D00729E9D90F4B1B78082B01D000290DD0104A107880235B424340DBB213700F220D4B1A700D3A0D4B25
:402540001A7004E002230A4A13700A4A1370C9B2094B1970014B197010BDC0465C0700205E0700206807002000002C40F20700207D07002060070020800700200222074BB6
:402580001A707E32064B1A70713A064B1A700023054A1370054A13700120704760070020F20700207D0700205C0700208007002010B5FFF793FF10BD30B5194B1B680F215D
:4025C00019400239174A1088FF230B40C3189BB2138000200FE0144B5C688500134AAA58D2B222705A6801325A60013001391A88013A92B21A800C4B1B889BB2002B01D0E2
:402600000029E8D1C9B20A4B19700A4A117880235B424B40DBB213700B22074B1A7030BDA4002C405E0700206807002000002C4080070020F20700207D0700200623064A44
:402640001370064A13708022054B1A700022054B1A7001207047C046600700207D070020F207002080070020064B9B68002B08D0044B9A6810709A680349098851800022C9
:402680009A607047680700205E07002010B5144B1A68FF210A401A601B68DAB21B0602D5104B1A701BE00220FFF7DEFF0E4B1B6860221340202B06D0402B07D0002B08D1D7
:4026C00000F014FD06E000F0ABFF03E000F096FE00E00020002802D10322024B1A7010BDA0002C407D07002000002C4010B5084B1B78084A1188CB189BB213800022064B46
:402700001A700120FFF7B0FF0322044B1A7010BD5C0700205E070020600700207D07002010B50B4B1B78DBB2042B06D0062B07D0022B0BD1FFF7DAFF08E0FFF73DFF05E02C
:402740000320FFF791FF0322024B1A7010BDC046600700207D07002010B50022044B1A700120FFF781FF0322024B1A7010BDC046600700207D07002010B50C4B1B78002B8B
:4027800009D00A4A117880235B420B43DBB208490B60002313700022064B1A700120FFF763FF0322044B1A7010BDC0467E07002020002C40600700207D07002010B5094B2A
:4027C0001B78DBB2042B06D0062B07D0022B07D1FFF7EEFE04E0FFF7BFFF01E0FFF7CCFF10BDC0466007002010B5264B1B68DA0643D51A060CD50F221340012B14D1FFF7F4
:4028000045FF214B1B785BB2002B0FDB012310E05A0603D5FFF7D2FF01230AE09B0607D5FFF77EFF012304E0002302E0002300E00023002B21D0134B1B681B061DD4134B82
:402840001B78134A12781343124A13601268934213D10D4B1B78DBB20A4A1268120607D4094B1B78DBB2074A136013680F221340054A1278D2B29342EBD10422064B1A6037
:4028800010BDC046A0002C407D070020F207002080070020A4002C4020202C400022064B1A80064B9B68002B05D0044A916800230B709268538070475E070020680700203B
:4028C00010B5114B1B889BB2002B02D1FFF756FE17E002220D4B1A7000220D4B1A70FFF7DDFF0C4AD3691B029BB2926913439BB2054A128892B2934201D2034A1380FFF767
:40290000EDFD012010BDC0466807002060070020F207002000002C4010B504220C4B1A707C320C4B1A70FFF7B9FF0B4AD3691B029BB2926913439BB2084A128892B2934277
:4029400001D2064A13800B22054B1A70012010BD60070020F207002000002C40680700207D07002001220A4B1A600A4B9B6C0A4B1A7B03231340012B06D0074AD17B80237A
:402980005B424B40DBB2D3730122034B5A7370472C002C40F0FF2B408407002002220B4B1A6088230A4AD3580A4B1A7E03231340012B06D0074AD17E80235B424B40DBB20C
:4029C000D3760122034B5A767047C0462C002C40F0FF2B408407002004220C4B1A60C8230B4AD35824230B4AD25C213B1340012B07D008492722885C80235B424340DBB247
:402A00008B5401212523034AD15470472C002C40F0FF2B40840700200122014B1A60704720202C4010B50222024B1A60FFF728FB10BDC04620202C4070B50D4B1D682B06C0
:402A400001D5002398470F2422002A40EC08FF235B011C401443002507E0E30703D5AB00044A9B58984764080135002CF5D170BD34202C40A04C000070B50D4B1D682B0661
:402A800001D5002398470F2422002A40EC08FF235B011C401443002507E0E30703D5AB00044A9B58984764080135002CF5D170BD38202C40A04C000070B50D4B1D682B061D
:402AC00001D5002398470F2422002A40EC08FF235B011C401443002507E0E30703D5AB00044A9B58984764080135002CF5D170BD3C202C40A04C000010B500F089FC10BD05
:402B0000F0B589B0040003AB154A23CA23C3190013680B6013790B71002C1FD0222323701F3B637001A8FFF7E7F80020022313E001AA125C110903AD695CE154591C61182B
:402B400000260E70991C0F273A40AA5C6254DA1CA218167001300433212BE9D909B0F0BD044D000010B5012338E09A010C201E4950505900C9188A001C498A185279002A9E
:402B800016D05900C9188A0018498A18127952B2002A06DA9A0116498C4662440C2191600CE09A0112498C4662440821916005E09A010F498C466244802191605900C918AF
:402BC0008A000A498A18D18889B29801094C0419A160D28892B2074942500133082BC4D9FF22054B1A6010BDC0012C4084070020F0FF2B40D0112C4028002C40074B1B7882
:402C0000DB00074AD3185B681A7C824204D9C00010301818406800E0002070475D070020184D0000F0B557464E464546E0B43F4B1B78002B75D03D4B18780138C0B2FFF7D0
:402C4000DDFF047AC3683A4A1078C0B2002266E01978884261D13749095CC9B25D78A9425BD199787F252940DD7803262E40B446314DA8464E007718BD004544AA46002766
:402C8000EF709F782F71DF78B9467618B70046464D46BD559E8855462E8102255D57002D0EDA6546012D01D1072700E00D274E007618B500204E75196F7101266E700DE086
:402CC0006546012D01D1052700E009274E007618B500194E75196F7100266E708D01174EB146A94401264F46BE604E0071188E00114989190E89360AB046104E4746AF51B9
:402D00000E89F6B24F467E60CE88B6B20C4FEF19BE60C98889B20A4EA95108330132A24296D31CBC90469946A246F0BD7F07002074070020F007002084070020F0FF2B408A
:402D4000D0112C40034B1B78DB00034AD31858687047C0465D070020184D000010B5084B18780138C0B2FFF749FF002806D043681B790233DB00C018406800E0002010BD81
:402D80007F070020F0B557464E464546E0B482B0002312E0744E5900CC18A20000249455B2189470D4700025148195725570C9188A00B21855710133DBB2082BEAD9002811
:402DC00008D10AE000226949CA546949CA540133DBB200E00023012BF4D9664B1B78002B00D1BAE0634B18780138C0B2FFF706FF80464368DB795B0606D55F4A117801237C
:402E00000B43DBB2137004E05B4A137801218B43137043461F7A0023019301266EE04346DD68002466E0AB787F210B409E425ED13000710089198B004B49CB181B899BB2D4
:402E4000A9888B4205D273009A199300464AD31819812B784549CB5CDBB269788B4246D1AB789A46404B9C46430019188900614452460A71EA781B189900131C62468B54FC
:402E8000EB7803210B4002216956002912DA012B02D106339A4601E00D239A46324B9C46430019188900614452464A710B000121597011E0012B02D104339A4601E00923E2
:402EC0009A46294B9C46430019188900614452464A710B0000215970AB790A2B01D0022B05D1019A31002800FFF7CAFA019008350134E4B2BC4296D30136F6B2082E8ED95B
:402F00004346D86800220CE083787F210B4004785900CB189900144B59188C7208300132D2B2BA42F0D3FFF719FF144B1860002201230EE00C4D5900C81884002C19E28031
:402F400021898A1891B201220A4089188AB20133DBB2082BEED9FFF705FE02B01CBC90469946A246F0BDC04684070020F0070020640700207F0700208107002078070020B0
:402F800010B5174B1B697F2213405A1E072A24D85900C9188A0013498A18907801210143C9B291700021D170507802210143C9B25170127952B2002A06DA9B010A4A9446F1
:402FC00063448D229A6005E09B01074A9446634489229A60FFF732FB00E0002010BDC04600002C4084070020F0FF2B4070B5284B1B697F2213405A1E072A46D85900C91811
:403000008A0024498A1891780120814391700021D17021489C0121588025A94321505178022081435170127952B2002A15DA5900C9188A0017498A185278012A06D1230058
:40304000154A944663440C229A601BE09B01124A944663440D229A6014E05900C9188A000C498A185278012A06D19B010A4A9446634408229A6005E09B01074A9446634448
:4030800009229A60FFF7DAFA00E0002070BDC04600002C4084070020F0FF2B4070B50F4B1C69E5B20E4B18780138C0B2FFF7A6FD43681B799D4201D9022D0CD8FF23234025
:4030C0000849CA5CD2B20848C254044A9268D2B2CA54012000E0002070BDC04600002C407F070020F00700206407002010B5B34B1B680021B24A11801A0600D4A1E0AF4A1B
:403100005268062A0AD002D8002A5ED037E1082A00D183E00A2A00D188E030E1A74BDB68012B09D1FFF70EFE4268A54B5A6012221A80FFF7C5FB3FE1A04BDB68022B14D128
:403140009E4B9868C0B2FFF759FD002800D118E143689B4A53605368DB781B02516889780B431380FFF7ACFB26E1944BDB68032B05D027E0117852180133DBB201E0002325
:40318000904A8E498968994202D911780029F1D18A4B9B68002B0AD0884B99688A4B1B7C994204D1894C2000FFF7AAFC22001378002B00D1E7E0137881490B804A60FFF7F5
:4031C0007FFBF9E000F02CFAF6E00322134017D0022B00D0D9E07A490B80784B1B697C3213405A00D3189A00794B9A189278D2B2784B1A7000225A704B60FFF761FBDBE011
:403200006F4902230B80744B1A78D2B2714B1A7000225A704B60FFF753FBCDE0684B01221A806E4A5A60FFF74BFBC5E0644A01231380624B19696A4BCB185360FFF740FBB0
:40324000BAE05E4A52680B2A00D9A0E0920065498A589746594B9B68DBB2634A1370FFF7EDF9A9E0554B9C68002C03D0601EC0B2FFF7C4FC002C01D0002802D1002C00D0BF
:4032800087E0564B1B78DBB29C4208D0E4B2534B1C700122554B1A700120FFF773FDFFF7CDF989E0FFF7FAFE002874D0434B19691B69DBB24E4A13704E4B5A5CD2B2484B7B
:4032C0005B5CDBB29A4204D00122484B1A70FFF7A9FCFFF7B3F96FE003221340012B16D0002B08D0022B58D1344B9B68002B56D1FFF77CFE60E0314B9B68012B51D1364A5A
:40330000137802218B431370FFF798F954E02B4B1B69012B47D8294B98681A6936498B5C83438B54FFF78AF946E003221340012B17D0002B08D0022B37D1204B9B68002B91
:4033400035D1FFF71DFE37E01C4B9B68012B30D1214A117802230B43DBB21370FFF76EF92AE0164B1B69012B25D8144B98681A6921498B5C83438B54FFF760F91CE0002059
:403380001AE0002018E0002016E0002014E0002012E0002010E000200EE000200CE000200AE0002008E0002006E0002004E0002002E0002000E0002010BDC04600002C4018
:4033C00068070020804D0000644E000014080020840700204C020020810700207F070020F0070020D44C00007E0700207C0700207407002064070020F4070020034B1B688B
:403400001B0601D5014B5B680020704700002C40024A10680123184010607047100D04400004000C014B18607047C046480120400004000C014B18607047C04654012040FB
:403440000004000C014B18607047C0464C01204070B504000D0000F0DCF8AC40024B1C6000F0DBF870BDC0460800204010B500F0D0F8064A116802230B43136000F0CDF820
:4034800018210220FFF7E4FF10BDC04600002040014B18607047C0467801204010B50E4C8023DB042360236823600020FFF7B8FF236823600C22094B1A600120FFF7E8FF44
:4034C0003122074B1A600748FFF7B2FF80200002FFF7B6FF10BDC046400120406401204068012040FFFF000010B5064B1B78002B04D1FFF7D3FF0122024B1A70FFF7B6FF54
:4035000010BDC0464E02002000B585B000236A4653728022520000926A46137201330193039003496846FDF707FF05B000BDC046F80700200004000C014B18607047C04694
:4035400008012040024B18680004000C7047C046080120400004000C014B18607047C0461401204070B504000D0000F052F8AC40024B1C6000F051F870BDC04608002040E0
:4035800010B500F046F8064A116801230B43136000F043F818210120FFF7E4FF10BDC04600002040014B18607047C0463801204010B581229204074B1A600C22064B1A60FC
:4035C0000020FFF7EFFF0548FFF7C4FF0020FFF7B1FF10BD0001204024012040FFFF000010B5064B1B78002B04D1FFF7E1FF0122024B1A70FFF7C4FF10BDC0464F020020D4
:403600000230800803D00138FDD1C046C046C0467047EFF3108072B6704780F31088704710B5144B1B6803221340012B02D0022B04D00FE00F4B1B69DBB20CE00D4B1B69DA
:403640007F2213405A00D3189A000B4B9A18937ADBB200E00023022B07D8084A1268D35C022B04D1FEF71AFE02E0002000E0002010BDC04600002C40840700207807002031
:40368000002243088B4274D303098B425FD3030A8B4244D3030B8B4228D3030C8B420DD3FF22090212BA030C8B4202D31212090265D0030B8B4219D300E0090AC30B8B4299
:4036C00001D3CB03C01A5241830B8B4201D38B03C01A5241430B8B4201D34B03C01A5241030B8B4201D30B03C01A5241C30A8B4201D3CB02C01A5241830A8B4201D38B025A
:40370000C01A5241430A8B4201D34B02C01A5241030A8B4201D30B02C01A5241CDD2C3098B4201D3CB01C01A524183098B4201D38B01C01A524143098B4201D34B01C01ACE
:40374000524103098B4201D30B01C01A5241C3088B4201D3CB00C01A524183088B4201D38B00C01A524143088B4201D34B00C01A5241411A00D20146524110467047FFE72A
:4037800001B5002000F006F802BDC0460029F7D076E770477047C046014B18687047C046C40100200E4B70B500251E000D4CE41AA410A54204D0AB00F35898470135F8E7E0
:4037C00001F074FB084B00251E00084CE41AA410A54204D0AB00F35898470135F8E770BDB84E0000B84E0000B84E0000C04E000030B50024A24208D0035D651C0C5DA342E7
:4038000001D0181B02E02C00F4E7002030BD002310B59A4203D0CC5CC4540133F9E710BD03008218934202D019700133FAE770470200C9B21378002B03D0994204D0013255
:40384000F8E71800002900D11000704702780B78002A03D0013001319A42F7D0D01A70470023C25C0133002AFBD1581E704730B514009BB005001A00002C04DA8B230360D9
:40388000012040421CE0822368469B0083810023009104919C4200D0631E02930593012369465B42CB8128001E9B00F079F8431C01DA8B232B60002C02D00023009A137023
:4038C0001BB030BD07B5009313000A00010002480068FFF7CCFF0EBDC4010020F0B58E6885B007000C00039201939E4243D890238A89DB001A423ED00325096923680198B0
:403900005B1A029363695D43EB0F5D19029B6D1001331B18AB4200D91D00530510D52900380000F037FB061E14D0029A2169FFF76EFFA289194B134080221343A38112E0FC
:403940002A00380000F086FB061E0CD12169380000F0D4FA0C23402201203B60A38940421343A38117E0029B2661F61826606561019EED1AA560019BB34200D21E003200AB
:403980000399206800F0A5FA0020A3689B1BA36023689E19266005B0F0BDC0467FFBFFFFF0B59FB0029005938B890F0016001B0610D50B69002B0DD1402100F0EBFA386020
:4039C0003861002804D10C23029A01381360D8E040237B61002306AD6B6120336B761033AB7634002378002B03D1A31B049312D003E0252BF9D00134F4E7A31B320039004F
:403A00000298FFF76BFF431C00D1B4E06A69049B944663446B612378002B00D1ABE00122002352426A6002A95432521801342B60EB60AB601370AB65534E2178052230006E
:403A400000F03CFA002807D00123801B83402A68013413432B60EFE72B68DA0604D55322202102A8121811701A0704D553222B2102A81218117022782A2A03D0099B002035
:403A80000A210EE0059A111D12680591002A01DB099204E05242EA60022213432B6001340BE02278303A092A04D84B4301349B180120F6E7002800D0099323782E2B1ED18A
:403AC00063782A2B0AD1059B02341A1D1B680592002B01DA01235B42079310E000230A201A0001346B6021783039092904D84243013452180123F6E7002B00D00792234EA2
:403B000021780322300000F0D9F9002806D04023801B83402A68013413432B60217806221B48661C297600F0C9F9002812D0194B002B06D10722059B07339343083305935B
:403B400014E005AB00933A00134B2900029800E000BF07E005AB00933A000F4B2900029800F08AF80390039B013304D06B69039A9B186B6135E7BB890B985B0601D501209D
:403B800040421FB0F0BDC046784E00007E4E0000824E000000000000DD380000F7B5170001938A680B6900900C00934200DA130022003B6043321278002A01D001333B60E9
:403BC00023689B0602D53B6802333B60062523681D401ED0230043331B785A1E9341226892061CD53020E1184331087021005A1C45310978A2184332023311700FE022000A
:403C00000123193201990098089EB047431C0ED00135E3683A689B1A9D42F0DBDAE72200019943320098089DA847431C02D10120404220E006232068E1683A680340002590
:403C4000042B03D18D1AEB43DB171D40A3682269934201DD9B1AED180027BD420AD0220001231A3201990098089EB047431CDED00137F2E70020FEBDF0B58BB006920A003E
:403C800043320793059004920A7E0C00109B6E2A00D1ABE011D8632A22D009D8002A00D1B5E0582A00D0C5E045310A70814A4FE0642A1DD0692A1BD0BCE0732A00D1AAE050
:403CC00009D86F2A29D0702A00D0B3E0202209680A43226037E0752A1FD0782A33D0A9E00E001A684236111D196013683370A4E021681A68080606D4490604D5111D1960EC
:403D00000023D55E02E0111D19601568002D3BDA2D23049A6D42137036E021681A68080606D4490604D51568111D1960ADB202E0111D196015685F4B227E039308276F2A63
:403D40001DD00A271BE022007821453211705A4A19680392081D226818600D68100602D4500600D5ADB2D30702D520231A4322601027002D03D1202322689A432260230051
:403D8000002243331A7002E00A274A4B03936368A360002B09DB0422216891432160002D05D1049E002B11D07BE0002D79D0049E28003900FFF7EAFC039B013E5B5C2800A5
:403DC00033703900FFF75CFC051EF1D1082F09D12368DB0706D563682269934202DC3023013E3370049B9B1B23612BE009681A68080607D4490605D5111D19601368A28AE6
:403E00001A8004E0111D1960136862691A600023049E236116E01A68111D1960166800216268300000F04AF8002801D0801B6060636803E02600423632700123236100235D
:403E4000049A1370079B09AA00932100069B0598FFF7A4FE431C02D10120404227E02369320006990598079DA847431CF4D0236800259B070FD4099BE068984217DA1800B2
:403E800015E022000123193206990598079EB047431CE1D00135E368099A9B1A9D42F0DBE9E72600039B42361B7833708EE70BB0F0BDC046894E00009A4E0000C9B2821818
:403EC000904204D003788B4202D00130F8E70020704710B5884202D98B18984201D3002305E09B1A013A08D3995C8154FAE7934203D0CC5CC4540133F9E710BD70B50500EF
:403F0000002944D00C1F2368002B00DAE418280000F0D8F81E4A13681100002B02D16360146031E0A3420DD92268A018834203D118685B688218226063600C6024E0A2424F
:403F400003D813005A68002AF9D11E689819A0420BD12168711858181960824214D110685268411819605A600EE0A04202D90C232B6009E021686018824203D1106852682D
:403F80004118216062605C60280000F09CF870BD54020020032370B5CD1C9D43083506000C2D01D20C2501E0002D01DBA94202D90C23336048E0300000F084F8234B1C689E
:403FC0001A002100002913D00B685B1B0DD40B2B02D90B60CC181EE08C4202D1636813601AE04B6863600C0016E00C004968E9E7174C2368002B03D1300000F051F820609E
:404000002900300000F04CF8431C18D00323C41C9C43A0420DD12560300000F054F8200007220B30231D9043C31A0ED05A42E2500BE0211A300000F033F8431CEBD10C233B
:404040003000336000F03FF8002070BD5402002050020020F8B506000C001500002904D11100FFF797FF040018E0002A03D1FFF745FF2C0012E000F027F885420ED929007A
:404080003000FFF787FF071E07D021002A00FFF7BEFB21003000FFF731FF3C002000F8BD002370B5064C050008002360FCF7DAFF431C03D12368002B00D02B6070BDC04669
:4040C00038080020704770470B1F1A68101F002A04DA891804390B68D0180438704700000000000000000000000000000000000000000000000000000000000000000000E3
:404100003C6E6F20475049422064657669636520636F6E6E65637465643E0D0A000000003C67706962207374617465206368616E67653A207374617465206973206E6F77DC
:404140002025640D0A00000088410000011000008C4100000210000090410000031000009441000004100000000000000000000079617567693E20007F00000008200800CD
:404180000D1B5B4B000000001B5B41001B5B42001B5B43001B5B4400D4460000F50C00003607002000001E00DC4600000C010020000000000000000008470000F50C00001A
:4041C00038070020000002001047000004010020F84300000000000038470000650D000000000000000000003C4700002001002000000000310B000014450000F50C00005C
:4042000038070020000001006847000018010020E043000000000000A4470000F50C00003C07002000000300A8470000FC000020B843000000000000D4470000F50C00009F
:404240003E0700200000FF00E0470000F00000200000000000000000FC470000F50C000040070020000001000848000018010020E0430000000000002C480000850D000045
:40428000000000000000000034480000E800002000000000000000004C480000650D000000000000000000005048000020010020000000003D0B000078480000650D000021
:4042C00000000000000000007C4800002001002000000000490B0000A0480000650D00000000000000000000A44800002001002000000000550B0000C8480000010E00005F
:404300000000000000000000D0480000DC0000200000000000000000E8480000F50C0000420700200100B80BF4480000D0000020000000000000000010490000650D000014
:404340000000000000000000144900002001002000000000050B000040490000B10E00000000000000000000484900002001002000000000000000006C490000650D00004E
:404380000000000000000000704900002001002000000000190B0000000000000000000000000000000000000000000020010020000000000000000000000000F045000069
:4043C000010000000C46000002000000284600000300000044460000000000000000000000000000644600000100000070460000000000000000000000000000784600004E
:40440000010000009446000002000000AC460000000000000000000079617567692025642E2564206279204C656520457373656E0D0A000070696E20737461747573203D60
:4044400020253034780D0A00200900003C6572726F723A20746F6F206D616E7920746F6B656E733E0D0A00003031323334353637383900003C6572726F723A20756E6B6E62
:404480006F776E202B2B20636F6D6D616E643E0D0A0000003C75736167653A202B2B257300000000202573003E0D0A0025730D0A00000000092564202D2025730D0A0000DB
:4044C000092863757272656E742073657474696E673A202564290D0A0000000025640D0A000000002B2B252D31322E3132730925730D0A003C6572726F723A20756E6B6E64
:404500006F776E20636F6D6D616E643A2025733E0D0A0000656F6900474F543A20000000252D31302E313073203D20256400000020282573290000005B74696D655D000035
:404540000977686572652074696D65206973206265747765656E203120616E6420333030300000005B454F49207C20636861725D00000000097768657265206368617220CA
:404580006973206265747765656E203020616E6420323535000000005B636F6D6D616E645D0000005B636861725D00005B307C317C327C335D0000005B307C317C325D0094
:4045C0005B5041445D00000009776865726520504144206973206265747765656E203020616E6420333000005B307C315D000000617070656E642043522B4C4620746F2047
:4046000047504942206F757470757400617070656E6420435220746F2047504942206F757470757400000000617070656E64204C4620746F2047504942206F757470757404
:4046400000000000646F206E6F7420617070656E6420746F2047504942206F75747075740000000064697361626C656400000000656E61626C656400726561642D61667441
:4046800065722D77726974652064697361626C6564000000726561642D61667465722D777269746520616C7761797300726561642D61667465722D7772697465206966204D
:4046C000777269746520636F6E7461696E6564203F0000006164647200000000436F6E666967757265206F7220717565727920746865204750494220646576696365206113
:4047000064647265737300006175746F00000000436F6E666967757265206175746F6D61746963207265616420616674657220777269746500000000636C720053656E64AE
:4047400020612073656C65637465642064657669636520636C656172202853444329206D6573736167650000417373657274696F6E206F6620454F49206C696E65207769D6
:40478000746820746865206C617374207472616E736D697474656420636861726163746572000000656F7300417070656E64207370656369666963207465726D696E6174C3
:4047C0006F7220746F2047504942206F7574707574000000656F745F636861720000000043686172616374657220746F2061646420666F7220454F4920696620656F745F8A
:40480000656E61626C650000417070656E6420656F745F63686172207768656E20454F4920646574656374656400000068656C7000000000446973706C617920636F6D6DD8
:40484000616E64206C697374000000006966630053656E6420616E20696E7465726661636520636C656172202849464329206D6573736167650000006C6C6F0053656E646D
:404880002061206C6F63616C206C6F636B206F757420284C4C4F29206D657373616765006C6F630053656E64206120676F20746F206C6F63616C202847544C29206D657384
:4048C00073616765000000007265616400000000526561642066726F6D207468652064657669636500000000726561645F746D6F5F6D7300526561642074696D656F75740E
:404900002076616C756520696E206D73000000007665720052657475726E207468652076657273696F6E206F6620746865207961756769206669726D7761726500000000DD
:40494000636F6E666967000053686F772063757272656E7420636F6E66696775726174696F6E2073657474696E677300787800005265616420616C6C2070696E7300000035
:4049800000000000000000000000000000000000000000000000000000000000000000000000000000000000000000000000000000000000000000000000000000000000F7
:4049C00000000000000000000000000000000000000000000000000000000000000000000000000000000000000000000000000000000000000000000000000000000000B7
:404A00000000000000000000000000000000000000000000000000000000000000000000000000000000000000000000000000000000000000000000000000000000000076
:404A40000000000000000000000000000000000000000000000000000000000000000000000000000000000000000000000000000000000000000000000000000000000036
:404A800000000000000000000000000000000000000000000000000000000000000000000000000000000000000000000000000000000000000000000000000000000000F6
:404AC00000000000000000000000000000000000000000000000000000000000000000000000000000000000000000000000000000000000000000000000000000000000B6
:404B00000000000000000000000000000000000000000000000000000000000000000000000000000000000000000000000000000000000000000000000000000000000075
:404B40000000000000000000000000000000000000000000000000000000000000000000000000000000000000000000000000000000000000000000000000000000000035
:404B800000000000000000000000000000000000000000000000000000000000000000000000000000000000000000000000000000000000000000000000000000000000F5
:404BC00000000000000000000000000000000000000000000000000000000000000000000000000000000000000000000000000000000000000000000000000000000000B5
:404C000000300F40000800400F400008BAC0D804DC08DF311801780288028C01DE01E280E8806801DA40A4011420A401C4208801A401B02000082D085401610288048908C4
:404C40008D02A001B001C008CA01D604D802E205E408E80104360F4007370F4002400F4001410F4003420F4003430F4010470F40030405060708090A0B0C0E0F101112139B
:404C80001415161718191B1C1D1E1F2021222325262728292A2B2E2F3031323334350000192A0000252A0000E92700000000000000000000652900009D290000D9290000BA
:404CC00000000000000000000000000000000000000000008E330000D83200008E3300002A3300008E330000543200008E3300008E3300008E330000643200008E330000EA
:404D0000A4320000303132333435363738394142434445460000000001000000204D000001000000644E0000000000000000000001000000384D000001000000204E0000E5
:404D400003000000644D00000000000000000000000000000000000000000000604D0000020A000000008103080002000100820240000A000100030240000A000203000014
:404D8000040309042C0343007900700072006500730073002000530065006D00690063006F006E0064007500630074006F007200100355005300420055004100520054000F
:404DC0003803430044004300200043006F006D006D0075006E00690063006100740069006F006E00200049006E007400650072006600610063006500260343004400430094
:404E000020004400610074006100200049006E0074006500720066006100630065000000090243000201018032090400000102020103052400100104240202052406000177
:404E400005240100010705810308000A09040100020A0000040705820240000007050302400000001201000202000008B40432F20100010280014300232D302B2000686CC4
:404E80004C00656667454647003031323334353637383941424344454600303132333435363738396162636465660000F8B5C046F8BC08BC9E467047E9010000DD10000001
:404EC000F8B5C046F8BC08BC9E467047C1010000E04E0000C000002008010000780600000000000015000000400000009803002038450000404500000000000064450000DA
:404F000074450000000000009845000000000000A44500007445000000000000AC45000000000000B845000000000000C0450000C845000000000000E8450000000000000C
:404F4000D84400000000000040080020010000000000C05D80BB000030000000006CDC02F00000000404040000C2010000000800C201000000080000A12000000000020085
:404F8000000000000000000000000000000000000000000000000000000000000000000000000000764E00000000000000000000000000000000000000000000000000002D
:404FC000000000000000000000000000000000000000000000000000000000000000000000000000640100200000000000000000000000000000000000000000000000002C
:405000000000000000000000000000000000000000000000000000000000000000000000000000000000000000000000000000000000000000000000000000000000000070
:405040000000000000000000000000000000000000000000000000000000000000000000000000000000000000000000000000000000000000000000000000000000000030
:4050800000000000000000000000000000000000000000000000000000000000000000000000000000000000000000000000000000000000000000000000000000000000F0
:4050C00000000000000000000000000000000000000000000000000000000000000000000000000000000000000000000000000000000000000000000000000000000000B0
:0200000490303A
:0200000066C5D3
:0200000490402A
:200000000000000000000000000000000000000000000000000000000000000000000000E0
:0200000490501A
:0C0000000002100011A00001101878652B
:0200000490600A
:0100000001FE
:00000001FF