:400000000020002011000000D91B0000D91B000080B500AF01F012FE80B500AF194B12221A6002F053FD302002F05EFE164B174A1A60174B174A1A60174B184A1A60184BB2
:40004000184A1A60144B184A1A60184B802212061A60174B8022D2021A60164B40221A60154B41221A60154B1900082002F04EFF082002F0C5FF124B00221A60C046BD4646
:4000800080BDC0463000104004010B40060000800003014000DF01000000014040FF008004030140007FBB0041FF008008010B4000010B40300101402C010140A9320000E6
:4000C0000C020B4080B582B000AF72B63E4B01221A70FB1D00221A7022E0FB1D1A7813005B009B185B00394A9B183B603B681A78597809020A43997809040A43DB781B0639
:40010000134318003B681A795B791B0213439BB2190001F0FBFCFB1D1A78FB1D01321A70FB1D1B78012BD8D9294A2A4B1100180001F0FCFC284B294A1A60294B99221204E0
:400140001A60284B992212041A60274B992212041A60264B832292041A60254B01221A60244A244B1B78DBB23C218B43DBB214210B43DBB21370204A1F4B1B78DBB21621E4
:400180000B43DBB213701D4B03221A601C4B02221A601C4BFF221A601B4B1C4A1A601C4BFF221A601B4B194A1A601B4B13221A601A4B1B4A1A60FFF72FFF01F0F9FCC046DF
:4001C000BD4602B080BDC0461C700F4000700000287000000C7000000003024030EE030010500F4020500F4070500F4078500F402000104001700F4000700F40000D04406E
:400200000C0D044000010440080104402449920000020440080204400003044008030440B26D000010B5064C2378002B07D1054B002B02D0044800E000BF0123237010BD16
:40024000D801002000000000E4640000084B10B5002B03D00749084800E000BF07480368002B00D110BD064B002BFBD09847F9E700000000DC010020E4640000C800002032
:400280000000000080B500AF62B601F0ADFB05F05DFA05F031FB0121002003F07BF8002003F070FBC04603F0B7F9031EFBD000F081FE03F0BBF9031E05D003F0ADF9031EBB
:4002C00001D000F077FE00F071F803F0A5F9031EEFD000F05FFEECE780B500AF022002F0D7FEC046BD4680BD80B582B000AF0200FB1D1A70054BFA1D1278012191400A0023
:400300001A60C046BD4602B080BDC0464401044080B582B000AF0200FB1D1A70054BFA1D1278012191400A001A60C046BD4602B080BDC0464001044080B582B000AF0C4BAA
:400340001B689BB2FF2213409AB2BB1D12021A80084B1B68FF22134099B2BB1DBA1D12880A431A80BB1D1B881800BD4602B080BD040104400402044080B584B000AF020070
:40038000FB1D1A70084B1A68FB1D1B78DA4013001A0001231340FB60FB685A425341DBB21800BD4604B080BD0401044090B583B000AF1F4B1B687B60FC1C0020FFF7DCFF95
:4003C00003002370BC1C0220FFF7D6FF03002370FB1C1B78002B03D1BB1C1B78002B03D0134B00221A6017E0114B1B68002B06D1002005F093FA0E4B01221A600CE00C4B4E
:400400001B68012B08D105F099FA0200094B9A4202D9074B02221A60054B1A687B68D31A5A1E9341DBB21800BD4603B090BDC046F4010020B80B000080B500AF024B1B6887
:400440001800BD4680BDC046F401002080B582B000AF0200FB1D1A70002005F05FFAFB1D1B781800FFF788FF031E01D0012307E005F064FA0200044B5B8A9A42EFD9002354
:400480001800BD4602B080BDA406002080B582B000AF0200FB1D1A70002005F03FFAFB1D1B781800FFF768FF03001A0001235340DBB2002B01D0012307E005F03FFA0200A8
:4004C000044B5B8A9A42EAD900231800BD4602B080BDC046A406002090B585B000AF0200FB1D1A70BB1D0A1C1A70BB1D1B78002B02D00620FFF7F8FE0F23FC180420FFF7FD
:40050000C5FF030023700F23FB181B7801225340DBB2002B11D1114BFA1D1278D2431A60FFF7DAFE0520FFF7DFFE0F23FC180320FFF7ACFF0300237000E0C0460520FFF746
:40054000E7FE064BFF221A600620FFF7E1FE0F23FB181B781800BD4605B090BD0002044080B584B000AF786039600320FFF7BCFE0420FFF7CDFE0520FFF768FF0300FB6053
:40058000FB68002B07D10420FFF7C2FE0320FFF7BFFE002326E00420FFF7A6FE134B1B68DBB2DB43DAB27B681A700620FFF7E4FE03001A003B681A607B681B780A2B02D103
:4005C0003B6801221A600320FFF7A2FE0520FFF75DFF0300FB600320FFF786FE0420FFF797FEFB681800BD4604B080BD0402044080B500AF0220FFF777FE962002F048FDCA
:400600000220FFF785FE962002F042FDC046BD4680BDC04680B582B000AF0200FB1D1A70FB1D1B782033DBB200211800FFF754FFC046BD4602B080BD80B582B000AF020015
:40064000FB1D1A70FB1D1B784033DBB200211800FFF742FFC046BD4602B080BD80B500AF1F20FFF7D7FFC046BD4680BD80B500AF1F20FFF7E1FFC046BD4680BD80B500AF6D
:400680000020FFF731FEFFF727FE00210420FFF723FF0020FFF73CFEFFF71EFEC046BD4680BDC04680B500AF0020FFF71DFEFFF713FE00211120FFF70FFF0020FFF728FE21
:4006C000FFF70AFEC046BD4680BDC04680B500AF0720FFF71DFE0020FFF706FEFFF7FCFD00210120FFF7F8FE0020FFF711FEFFF7F3FDC046BD4680BD80B582B000AF0200F4
:40070000FB1D1A70FB1D1A781A4B1B689A422CD00420FFF7FDFD0320FFF7FAFD0720FFF7E3FDFFF7D9FD0020FFF7DEFDFFF7D4FDFFF794FFFFF79AFFFB1D1B781800FFF737
:4007400069FF0D4B1B781800FFF776FF0020FFF7DFFDFFF7C1FDFB1D1A78064B1A60064B1B781A00054B1A6000E0C046BD4602B080BDC046D0000020CC000020D400002012
:4007800080B582B000AF0200FB1D1A70FB1D1A781C4B1B689A4230D00420FFF7B9FD0320FFF7B6FD0020FFF79FFDFFF795FDFFF755FFFFF75BFF144B1B781800FFF72AFF76
:4007C000FB1D1B781800FFF737FF0020FFF7A0FDFFF782FD0420FFF787FD0320FFF784FD0420FFF795FDFB1D1A78064B1A60064B1B781A00054B1A6000E0C046BD4602B026
:4008000080BDC046D4000020CC000020D000002080B500AF0520FFF7AFFD03001800BD4680BDC04680B586B000AFF860B9607A60134B5B89002B05D07B68002B02D0BB68EF
:40084000013B01E001235B423B6100237B610FE07B69FA68D31818787A693B69D31A5A425341DBB21900FFF737FE7B6901337B617A69BB689A42EBDBC046BD4606B080BD42
:40088000A406002080B586B000AFF860B9607A6000237B611E4B1B8A1A00BB689B1ABB6029E0FB685A1CFA601022BA1811001800FFF756FE031E05D17B680222FF321A6093
:4008C0007B6920E07B6901337B613B69002B12D00F4B1B8A002B09D0FB685A1CFA600C4AD289D2B21A707B6901337B617B6801221A607B6907E07A69BB689A42D1DB7B68CA
:4009000000221A607B691800BD4606B080BDC046A40600200FB480B582B000AF1423FB187B607B683A690849084805F0CDF9074B180000F047F800F059F8C046BD4602B0E4
:4009400080BC08BC04B01847FF0100004C03002080B584B000AF7860396028E0174B1B683A68934200DD1300FB60144B1B684022D31A1A00124BD318BB60FA687968BB68A9
:40098000180005F046F9FB687A68D3187B603A68FB68D31A3B60094B1A68FB68D21A074B1A60064B1B68002B01D100F01FF83B68002BD3DCC046BD4604B080BDD80000201B
:4009C000C402002080B582B000AF78607B68180005F048F903001A007B6811001800FFF7B7FFC046BD4602B080BDC04680B500AFC04603F063F9031EFBD0084B1B689BB2D7
:400A00004022D31A9AB2064B1100180003F000F9024B40221A60C046BD4680BDD8000020C402002080B500AF074B1B68002B01DD012305E003F02EF903005A1E9341DBB2A7
:400A40001800BD4680BDC046F801002080B500AF0FE0C04603F01EF9031EFBD00E4B180003F040F903001A000C4B1A600C4B0A4A1A600A4B1B68002BEBD0084B1B685A1E74
:400A8000064B1A60064B1B68591C054A11601B781800BD4680BDC04604030020F8010020DC00002080B588B000AF84E000F0EEFA0300012B00D07EE000F0D6FA0300BB61A1
:400AC00000F0DAFA0300FB61FB69002B00D170E0FB69012B11D9BB691B782B2B0DD1BB6901331B782B2B08D1BB699A1CFB69023B1900100000F080FC5BE0484B9B89012B76
:400B000015D002DC002B03D021E0022B17D01EE0FB695A1CFA61BA69D3180D221A70FB695A1CFA61BA69D3180A221A700FE0FB695A1CFA61BA69D3180D221A7007E0FB69B6
:400B40005A1CFA61BA69D3180A221A70C046FFF773FC0300022B28D1304BDB88DBB21800FFF7CAFDF969BB6901221800FFF75AFE2B4B00221A60294B1B89012B0BD0274B5A
:400B80001B89022B15D1F969BB693F22180000F06BFF031E0DD0214BDB88DBB21800FFF7EFFD1F4B01221A6003E01E4B1800FFF7B1FE00F041FAFFF735FF031E00D075E71F
:400BC000174B1B68002B25D0FFF736FC0300022B20D1FFF71DFE031E1CD000F037FB3A003B1D10211800FFF74DFE03007B617A693B1D1100180000F057FF03007B617A6900
:400C00003B1D11001800FFF7A3FE3B68002BE6D000F028FBC046BD4608B080BDA4060020FC0100200065000080B588B000AFC64B1B68012B08D1C54B1A68C54B1B689A4205
:400C400002D1C14B00221A60BF4B1B68002B1BD103F020F8031E00D198E1BE4B180003F041F80300FB61FB69002B0DDDFA69B94BD218B74B1A60B54BB64A1A60B64BB54A73
:400C80001A60B14B01221A60AF4B1B68012B00D033E116E1B14B1B68032B40D1AB4B1B681B780D2B04D0A94B1B681B780A2B1ED1AB4B1B68402B06D1AA4B1800FFF72AFEB3
:400CC000FFF794FE06E0A64B1A68A74B1100180000F092FBA14B00221A60A14B00221A609D4B9C4A1A60A14B0D221A70E9E09C4B1B683F2B0DDC9A4B1B68591C984A1160C8
:400D0000924A1268501C914908601178964AD154D7E08E4B1B685A1C8C4B1A60D1E08F4B1B68022B0FD18C4B1B68591C8A4A1160864A1268501C8549086012781A70874B46
:400D400000221A60BDE0814B1A681B23FB1812781A707E4B1B681B780D2B1AD002DC0A2B17D092E01B2B00D186E02B2B00D08CE07A4B1B68012B03D1784B03221A6002E07F
:400D8000764B01221A60714B1B685A1C6F4B1A6092E0764B1B780D2B00D164E0734B1B780A2B60D06C4B1B681A006A4BD31A7B617B69002B05DD6E4B9B89032B01D101235F
:400DC00000E000233B616A4BDB88DBB21800FFF793FC7B69002B05DD3A6979695D4B1800FFF720FD624B9B89012B0AD0022B0FD0002B14D15F4B012202211800FFF712FDC9
:400E000016E05D4B012202211800FFF70BFD0FE05A4B012202211800FFF704FD08E07B69002B05D1554B012202211800FFF7FAFC4F4B1B89012B07D04D4B1B89022B0CD191
:400E40004F4B1B68002B08D0494BDB88DBB21800FFF796FC3C4B02221A60494B00221A603D4B3C4A1A60394B1B685A1C374B1A603A4B00221A601FE0384B02221A60334B19
:400E80001B685A1C314B1A6016E0304B1B681B783F2B02D13A4B01221A60304B00221A602D4B1B68591C2C4A1160284A1268501C2649086012781A702C4B1B22BA1812789C
:400EC0001A70224B1A68224B1B689A4200D2E1E6214B1B681A001F4BD31AFB60FB68002B0BDD234BDB88DBB21800FFF705FCF968184B00221800FFF795FC134B1B68022BE3
:400F000045D1204B1B68402B01D0FFF76FFD00237B603A1D1C4B40211800FFF7B3FC0300BB60BB68002B07DD164B1A68BB68D21A144B1A60FFF75AFD7B68002B27D0024B7B
:400F400001221A6023E0C0460402002048030020C00200200403002044030020080200200002002020650000800200200C020020A406002030650000346500003865000094
:400F800010020020D8000020C4020020C046BD4608B080BD80B500AF054B9B8A002B02D0FFF780FD01E0FFF73FFEC046BD4680BDA406002080B500AF02F0CAFDC046BD4690
:400FC00080BDC04680B584B000AF786039600023FB6021E0174BFA68D200D3583A687968180004F007FE031E13D1124BFA68D200D358180004F036FE02003B689A4206D1F8
:401000000C4AFB68DB00D31804331B680EE000230CE0FB680133FB60064AFB68DB00D31804331B68002BD5D101235B421800BD4604B080BD4C65000080B500AF074B0022AE
:401040001A70074B00221A60064B1800FFF7BAFCFFF7CCFCC046BD4680BDC04654050020180200207465000080B500AF014B1800BD4680BD5405002080B500AF024B1B6898
:401080001800BD4680BDC0461802002080B582B000AFFFF7DBFC03007B605F4B1B68002B24D05D4B1B68591C5B4A11607A68D1B25A4AD154584B1B681A00584B110018009B
:4010C000FFF780FF03007B607B68013305D13F237B60514B00221A6008E07B68002B03D04D4B00221A6001E0002391E07B681B2B15D007DC0A2B00D184E00D2B36D0082BFD
:4011000024D06EE0464A93424DD0454A934202DC7F2B0BD065E0434A934262DC77E03F4B1B221A703C4B01221A6070E03E4B1B68002B69DD3C4B1B685A1E3B4B1A603B4B9E
:401140001800FFF73FFCFFF751FC5DE0364B1B68002B5BDD344B1B685A1E334B1A60344B1800FFF72FFCFFF741FC4FE02E4B1B68304A0021D154304B1800FFF723FCFFF759
:4011800035FC294B1B68002B0BDD274B1B681A0028492A4B180004F03CFD234B1A68284B1A60012334E0264B1B681A002349214B180004F02EFD224B1A681B4B1A60214B4D
:4011C0001800FFF7FFFB204B1800FFF7FBFB164B1A68184B11001800FFF7BAFBFFF706FC15E0114B1B68591C0F4A11607A68D1B2104AD1543B1D01211800FFF7A9FBFFF74D
:40120000F5FB04E0C04602E0C04600E0C04600231800BD4602B080BD200200204C0500200110000004100000180200207C650000806500005405002084650000D4050020A6
:4012400014020020886500007465000080B500AF034B1800FFF7B6FBC046BD4680BDC0468865000080B500AF094B1800FFF7AAFB084B1800FFF7A6FB074B1A68074B110024
:401280001800FFF765FBFFF7B1FBC046BD4680BD8465000074650000180200205405002080B584B000AF786039600023FB602F4B00221A6050E07B681B781A002C4B1100FE
:4012C000180004F0B7FC031E0AD0FB680133FB607B6801337B60FA683B689A42EBDB00E0C046FA683B689A4202D1204B1B6839E01E4B1A681F4B92007968D1500FE07B684D
:401300001B781A001A4B1100180004F093FC031E0AD1FB680133FB607B6801337B60FA683B689A42EBDB00E0C0467B685A1C7A6000221A70FB680133FB600C4B1B685A1C61
:401340000A4B1A60094B1B68142B05D10A4B1800FFF7E0FA002305E0FA683B689A42BADB024B1B681800BD4604B080BD24020020B46A000054060020B86A000080B582B0B4
:4013800000AF78600EE07B681B781A000A4B1100180004F04FFC031E01D1002307E07B6801337B607B681B78002BECD101231800BD4602B080BDC046D46A000080B584B043
:4013C00000AF78600023FB600DE0FA6813009B009B185B00FB607B685A1C7A601B78303BFA68D318FB607B681B78002BEDD1FB681800BD4604B080BD80B584B000AF7860EB
:4014000039603A687B6811001800FFF749FF0300BB60BB68002B29D00023FB601BE0154B1868154BFA685201D358190004F010FC031E0DD1104AFB685B01D31804331B6853
:40144000FA6851010C4A8A18B9680A4898470EE0FB680133FB60084BFA685201D358002BDDD1064B1800FFF755FA00E0C046BD4604B080BD5406002074680000E06A00005A
:4014800080B586B000AF786039603B685B697B617B681A68294B11001800FFF73BFA7B691B681B78002B08D07B691A1D7A611A68234B11001800FFF72DFA224B1800FFF78D
:4014C00029FA08E07B691A1D7A611A681E4B11001800FFF71FFA7B691B68002BF2D13B689B69002B12D03B689B693B610AE03B6919683B695A68154B1800FFF70BFA3B69F0
:4015000008333B613B695B68002BF0D13B689B68002B0DD03B689A680E23FB1812881A800E23FB181A880A4B11001800FFF7F2F9FFF75CFAC046BD4606B080BD006B0000BE
:40154000106B0000146B0000186B0000206B00002C6B000080B586B000AFF860B9607A60BB68012B0AD17B689B681B881A00264B11001800FFF7CEF9002340E0BB68022BB0
:4015800007D1FB6804331B681800FFF7F7FE031E07D17A68FB6811001800FFF771FF01232DE0FB6804331B681800FFF707FF03007B617B689B891A007B699A4205DC7B6880
:4015C000DB891A007B699A4207DA7A68FB6811001800FFF755FF012311E07B689B687A6992B21A807B68DB69002B07D07B68DB69B968FA6810009847030000E00023180078
:40160000BD4606B080BDC046486B000080B584B000AFF860B9607A60BB68012B07D07A68FB6811001800FFF72BFF01230CE07B68DB69002B07D07B68DB69B968FA681000F1
:401640009847030000E000231800BD4604B080BD80B586B000AFF860B9607A60BB68022B07DD7A68FB6811001800FFF709FF01234AE0BB68012B1BD100237B6110E0244B8D
:401680007A695201D158224A7B695B01D31810331A68204B1800FFF73DF97B6901337B611B4B7A695201D358002BE8D100232BE000233B6119E0FB6804331868144B3A691F
:4016C0005201D358190004F0C3FA031E0AD1FB68181D3B695A010E4BD3181900FFF7D0FE002311E03B6901333B61094B3A695201D358002BDFD1FB6804331A68064B110098
:401700001800FFF707F900231800BD4606B080BD74680000506B0000606B000080B58CB000AFF860B9607A600223FF33BB62BB68022B07DD7A68FB6811001800FFF7A0FEF3
:4017400001236AE0BB68022B35D1FB6804331B68344A1100180004F07BFA031E03D180235B00BB6227E0FB6804331B681800FFF705FE031E07D17A68FB6811001800FFF7D6
:401780007FFE012349E0FB6804331B681800FFF715FE03007B627B6A002B02DB7B6AFF2B07DD7A68FB6811001800FFF769FE012333E07B6ABB621C4BDB88DBB21800FEF7F9
:4017C000DFFF1023FA181423FB1810211800FFF759F80300FB62144B9B8A002B08D0FA6A1423FB181100180000F05EF90300FB62FA6A1423FB1811001800FFF7A9F83B6975
:40180000002BDED0084B9B8A002B03D0074B1800FFF7D8F8FFF7EAF800231800BD460CB080BDC04624660000A4060020806B000080B588B000AFF860B9607A60BB68012B1F
:4018400007D07A68FB6811001800FFF719FE01235AE00023FB6150E02D4AFB695B01D31808331B68002B45D0294AFB695B01D31808331A681223FB1812881A800023BB6153
:40188000234AFB695B01D31818331B68002B19D01F4AFB695B01D31818331B687B610DE07B691A681223FB181B889A4203D17B695B68BB6106E07B6908337B617B695B6837
:4018C000002BEDD1124BFA695201D1581223FB181A88104B1800FFF71DF8BB69002B05D0BA690D4B11001800FFF714F80B4B1800FFF710F8FB690133FB61054BFA6952012B
:40190000D358002BA8D100231800BD4608B080BD74680000846B0000946B0000806B000080B500AF044B022201211800FEF7F2FF00231800BD4680BD9C6B000090B583B07F
:4019400000AFBC1DFEF7F8FC03002380BB1D1A88044B11001800FEF7DDFF00231800BD4603B090BDB86B000080B500AFFEF786FE00231800BD4680BD80B500AFFEF738FE45
:4019800000231800BD4680BD80B500AFFEF78AFE00231800BD4680BD80B500AFFEF796FE00231800BD4680BD80B500AF0D4B0122DA800C4B02221A810A4B01225A81094B72
:4019C00000229A81074B01221A82064B2A22DA81044BFA2292005A82024B01229A82C046BD4680BDA406002090B583B000AF1A4BFC1D180003F018FF03002370FB1D1B7824
:401A0000002B02D001235B4221E0FC1D134B14491822002000F012FA03002370FB1D1B78002B04D0FFF7C0FF01235B420FE00C4B1B680C4A934207D0094B0A4A1A60084BC7
:401A400001229A80FFF7B0FFFFF7AEFF00231800BD4603B090BDC046006E000070070020A406002049ADDDBA80B586B000AFF860B960FB1D1A7000237B610CE0FB685A1C50
:401A8000FA601B78FA1D12789A4201D1012307E07B6901337B617A69BB689A42EEDB00231800BD4606B080BD80B586B000AF786039607B687B617B683B610023FB600023A5
:401AC000BB6019E07B691B780A2B03D07B691B780D2B03D17B6901337B610AE03B695A1C3A617A69511C796112781A70FB680133FB60BB680133BB60BA683B689A42E1DB3E
:401B0000FB681800BD4606B080BDC04680B582B000AF786039603A687B680021180004F081F8C046BD4602B080BDC04680B586B000AF7860396000233B6100237B612FE026
:401B40007B699B007A68D3181B68BB600F23FB18BA681A70BB68FF229343BB6018E03B695B003A68D3181B781A00BB68D31819003B695B003A68D3185B780B703B6901334B
:401B80003B610F23FB181A780F23FB18013A1A700F23FB181B78002BE1D17B6901337B617B69062BCCD9C046BD4606B080BDC04680B500AF054B03221A60054B03221A6081
:401BC000044B00221A60C046BD4680BD3000304030003140000E3F4080B500AF03F0DEFF03001B680C2B00D1FEE7FEE780B584B000AF78600F4B1A687B68D3181A000E4BCD
:401C0000D31A802B09DC0B4B1B68FB60094B1A687B68D218074B1A6007E003F0BFFF03000C221A6001235B42FB60FB681800BD4604B080BD38010020C002002080B586B010
:401C400000AF224B7B61224B3B61204B7B6135E03B691B68FB603B695B68BB603B699B683B6000237B600CE0FB681A68BB681A60BB680433BB60FB680433FB607B680433D1
:401C80007B607A683B689A42EED13B69DB683B6000237B6008E0BB6800221A60BB680433BB607B6804337B607A683B689A42F2D13B6910333B617B69013B7B617B69002BE6
:401CC000C6D103F071FFFEF7DDFAFEE701000000D472000080B582B000AF154B144A126801218A431A6000237B600FE07B68032B04D8104B7A689200D35800E00E4B0F4AD5
:401D0000796889008B507B6801337B607B682F2BECD9FEF7D7F90A4B00221A60044B044A126801210A431A60C046BD4602B080BD0000104000000000D91B00000000002058
:401D4000C000002090B585B000AF786039600F23FB1801221A703B68002B67D07B68002B64D07B68DB68002B60D07B685B680A2B5CD87B681B68002B58D00F23FC187B683E
:401D8000180000F0F5FA030023700F23FB181B78002B4BD17B681A683B68DA607B685A683B681A617B681A7A3B681A757B685A7A3B685A757B68DA683B689A617B681B6877
:401DC000DA097B681B687F210B4001D0012300E00023D2183B685A603B685A687B685B6853431A027B68DB68D2183B681A603B6808333A681100180000F0B6F93B689B6898
:401E00001B68002B12D13B681B7D002B0ED00F23FC183B68180000F083FB030023703B6808333A681100180000F09EF90F23FB181B781800BD4605B090BDC046B0B59AB0EE
:401E400002AFF860B9607A603B605F23FB1801221A700023FB640023BB64BB687B647B68002B00D178E1FA687B68D2183B68DB689A4200D970E1BB68002B00D16CE1FB68A1
:401E80003B647B68FB633B689B681B687B630023BB633A6CFB6BD318013BDA093B6CDB09D31A01333B633B689A683B689B69D21A3B685B681B021900100003F0E3FD0300E0
:401EC0001A003B685B6853431A023B689B69D318FB620023BB6518E0BB6DDA013B6C9A4208D8BB6D0133DB015A1E3B6C9A4201D3012300E00023002B04D0BB6DBB64BB6C85
:401F0000FB6407E0BB6D0133BB653B685A68BB6D9A42E1D83B689A68FB6AD31A1B0ABB623B681B69012B12D93A6BBB6CD318013B7B62BA6CBB6A9A4207D87A6ABB6A9A428B
:401F400001D9012302E0002300E00123BB630023BB6568E0FB6C1A02FB6AD3183B653B6C7F22134080333B62BB6D5A1C3B6B9A4206D23B6C7F2213408022D31A7B6501E070
:401F8000FB6B7B65BB6B002B17D0FA6CBB6A9A4213D93B685B681B023A6DD31A3B653B689A693B6D9A4208D93B681A683B685968FB6CCB1A1B02D31A3B653B681B7D002BA9
:401FC00012D05F23FC187D6D3A6A796C386D3B6800932B0000F026FA030023705F23FB181B78002B0DD022E0786C3A6D3B6AD31819007B6D1A0003F00CFE5F23FB1800222E
:402000001A703A6C7B6DD3183B64FA6B7B6DD31AFB637A6C7B6DD3187B64FB6C0133FB64BB6D0133BB65BA6D3B6B9A4292D35F23FB181B78002B00D08EE07B6B002B00D1D7
:402040008AE03B685B687A6B934200D913003B633B6B013B3B637A6B3B6BD31ABB6577E03A68BB6D1100180000F0B2F803003B653B6D002B69D03B6D04331B68FB613B6D3B
:4020800008331A68FB69D318BB61FA69FB689A4208D9FA687B68D318FA699A429B415B42DBB205E0FA68BB699A429B415B42DBB2002B4AD0FA69FB689A4203D8FA68FB692B
:4020C000D31A00E000237B61FA69FB689A4203D9FA69FB68D31A00E000233B61FA69FB68934200D213003B647B690C337B61FA687B68D318BA69934200D913003A6C9B1AB7
:402100007B65BA683B69D3187B643B681B7D002B12D05F23FC187D6D7A69796C386D3B6800932B0000F07EF9030023705F23FB181B78002B09D00FE0786C3A6D7B69D31827
:4021400019007B6D1A0003F064FDBB6D0133BB65BA6D7B6B9A4283D95F23FB181B781800BD4618B0B0BDC04680B586B000AF786039600023BB6000237B613B689B69FB60E7
:402180007B68FA681A6000233B6115E0FB681B68BB60BB68002B08D0BA687B699A4204D9BB687B617B68FA681A60FB680133FF33FB603B6901333B613B685A683B681B69E4
:4021C0005A433B699A42E1D8C046BD4606B080BD80B584B000AF786039603B689B69FB600BE0FB680133FF33FB603B681A68FB689A4202D80023FB6004E0FB681A687B680B
:402200009A42EED1FB681800BD4604B080BDC04680B584B000AFF860B9607A603B60FB68002B05D0BB681B685A1CFF32BB681A60BB681A683B681B689A4203D33B689A6920
:40224000BB681A607B6800221A603B685A68FB689A422FD83B681B69012B27D9BB681A683B685B681B02D21A3B689B699A4214D23B689A693B6859683B681B690F48844675
:4022800063444B431B02D218BB6819683B689B69CB1AD2187B681A600CE0BB681A683B685B681B02D21A7B681A6003E0BB681A687B681A60C046BD4604B080BDFFFFFF0032
:4022C00080B584B000AF786039600F23FB18FF221A700C23FB1800221A803BE00C23FB181B887A68D31819780F23FB180F22BA1812784A401A700E23FB1800221A701DE036
:402300000F23FB181B785BB2002B08DA0F23FB181B78DB18DBB231225340DBB204E00F23FB181B78DB18DBB20F22BA1813700E23FB181A780E23FB1801321A700E23FB1803
:402340001B78072BDCD90C23FB181A880C23FB1801321A800C23FB181A883B689A42BDD10F23FB181B781800BD4604B080BDC04680B586B000AF78601723FB1803221A7027
:402380007B68DB683B617B681B68DA097B681B687F210B4001D0012300E00023D2187B685B6853437A68127A013253431A023B69D318FB603B69002B08D0FA6880235B025D
:4023C0009A4203D81723FB1800221A701723FB181B781800BD4606B080BDC04680B588B000AFF860B9607A601F23FB1804221A70FB681B0ABB61BA68BB691100180000F0CA
:4024000025F903007B617B69002B03D11F23FB1800221A701F23FB181B781800BD4608B080BDC04690B5C7B000AFF860B9607A603B6094235B00FB181B689B69FA68D21A72
:4024400094235B00FB181B681B68D31888225200BA181360FB687C331C68FB68803380211800FFF72DFF03009C420ED1B868FA687B68D31819003B681A0003F0CAFB1823A5
:40248000FF33FB1800221A7041E088235B00FB181B687C331C6888235B00FB181B68803380211800FFF70CFF03009C422AD188235B00FB18196880235A001023FB18180061
:4024C00003F0A7FB1823FF33FC1894235B00FB181A681023F918FB681800FFF77FFF030023701823FF33FB181B78002B0FD1B8687B689B001022BA18D3183A68190003F0FD
:4025000088FB04E01823FF33FB1802221A701823FF33FB181B781800BD4647B090BDC04690B5C9B000AF78607B689B68BB60BB681B688C225200BA1813601823FF33FB18DD
:4025400001221A7000238E225200BA18136067E0BB68190080235A000C23FB18180003F058FB8C235B00FB181B6801338C225200BA181360344B902252009446BC44634407
:402580008C225200BA1812681A600C23FB18803380211800FFF794FE03001A002A4B902149008C46BC446344DA67BB681822FF32BC187A680C2179181800FFF70FFF0300B8
:4025C0002370BA687B689B69D21A7B681B68D31888225200BA1813601823FF33FC187A680C23F91888235B00FB181B681800FFF7F5FE030023707B6886225200BA18082113
:4026000079188C20400038180068FFF701FE8E235B00FB181B6801338E225200BA1813607B685A687B681B695A438E235B00FB181B689A428CD81823FF33FB181B7818009D
:40264000BD4649B090BDC046ECFEFFFF90B5C9B000AF7860396000238C225200BA18136000238A225200BA1813607B68FF2B00D9C7E03B68002B00D1C3E080235A0039680A
:402680000C23FB180833180003F0C3FA7B68634A934201D9624A00E0624A634B902149008C46BC4463441A605F4B902252009446BC446344FF225A605C4B0C22BA181A6098
:4026C0005B4B5C4A1A60C046584B1B681B0F1A07F0231B069A4204D1544B1B68FF2213400DE0524B1B681B0F1A07A0231B069A4204D04E4B1B68FF22134000E000238C22F5
:402700005200BA1813608C235B00FB181B68002B00D07BE02023FF33FC1803F062F90300237000F0C9F803008A225200BA1813608C235B00FB181B68002B3FD13A4B902296
:4027400052009446BC4463443B4A1A60364B902252009446BC4463441A687B681B041A43314B902149008C46BC4463441A602F4B0C22BA181A602E4B304A1A60C0462B4B5A
:402780001B681B0F1A07F0231B069A4204D1274B1B68FF2213400DE0244B1B681B0F1A07A0231B069A4204D0204B1B68FF22134000E000238C225200BA1813608A235B008D
:4027C000FB181B68002B14D100F080F803008A225200BA1813608A235B00FB181B68002B07D08A235B00FB181B688C225200BA1813602023FF33FB181B78180003F0F5F8EF
:4028000004E004238C225200BA1813608C235B00FB181B681800BD4649B090BDFF010000B6D70001B6D70000ECFEFFFF080010400400104004000080B6D800000500008001
:4028400090B585B000AF78600F23FC1803F0C9F8030023707B68102B06D8164B154A126803218A431A601AE07B68202B08D8114B104A126803218A4301210A431A600EE026
:402880007B68302B08D80B4B0A4A126803218A4302210A431A6002E0002000F0C7FB0F23FB181B78180003F0A0F8C046BD4605B090BDC0463000104080B582B000AF002302
:4028C0007B607B681800BD4602B080BD80B582B000AF00237B607B681800BD4602B080BD90B587B000AF0023FB6000F045FC031E00D184E00B23FC1803F073F803002370A9
:40290000414B414A126801210A431A6003233B6100237B6111E03D4B1B681A003F2313403B497A698A181278934203D17B6903333B6105E07B6901337B617B692D2BEAD9C7
:40294000344B00221A60344B1B681F22134007D1314B314A12681F218A430C210A431A602E4B1B682E4A13407B603B692D4A53438022D20194466344DB0B013B5B055B0D29
:402980007A6813437B607B68A022520313437B60224B7A681A60244B1B683B603020FFF74FFF224B214A12688021C9050A431A601A4B1B681E4A13407B600BE0012000F0ED
:4029C00041FBFB681033FB60144BFA6891057A680A431A60FB68EE2BF0D9012000F032FB0E4B7A68FF2189050A431A600E4B3A681A600B23FB181B78180002F0F6FFC04619
:402A0000BD4607B090BDC04650000C402CFF0B407070000028FF0B4034FF0B400800224000F800C040420F003000104000002240FFFF3FC080B582B000AF03233B6000231B
:402A40007B6011E0134B1B681A003F23134012497A688A181278934203D17B6803333B6005E07B6801337B607B682D2BEAD90B4B0A4A12680A490A401A600A4B3A680A49BA
:402A80008C4662441278D2B21A60C046BD4602B080BDC0462CFF0B407070000000002240FFFFFFBF28FF0B404DF3FF0F80B500AF054B1A688023DB05134001D0012300E083
:402AC00000231800BD4680BD0000224080B584B000AF3C4B1B78DBB21A003F231340042B01D9012300E000237B600323BB600023FB6011E0344B1B681A003F231340334963
:402B0000FA688A181278934203D1FB680333BB6005E0FB680133FB60FB682D2BEAD92C4B2B4A126801218A431A602A4B1A682A4B1A607B68002B13D0284B1A68284B1A60CD
:402B4000244A254B1B681F218B4326490978C9B20B431360214B244A1278D2B21A6007E01C4A1D4B1B681F218B4308210B431360BB68302B0CD11D4B7A68002A03D01C4A20
:402B80001278D2B202E01B4A1278D2B21A600EE0BB68182B0BD1154B7A68002A03D0164A1278D2B202E0154A1278D2B21A60144B134A126802210A431A60C046BD4604B0B5
:402BC00080BDC04600F3FF0F2CFF0B407070000050000C4034FF0B404002002020FF0B4044020020C0F1FF0FC1F1FF0F28FF0B40C3F1FF0F3FF3FF0FC2F1FF0F3EF3FF0FFC
:402C000024002C4080B584B000AF254B1B78DBB21A003F231340042B01D9012300E000237B600323BB600023FB6011E01D4B1B681A003F2313401C49FA688A181278934250
:402C400003D1FB680333BB6005E0FB680133FB60FB682D2BEAD9154B144A126802218A431A60134A124B1B681F218B431900114B1B681F2003400B4313607B68002B03D06E
:402C80000D4A0E4B1B6813600D4BBA680D498C4662441278D2B21A60C046BD4604B080BD00F3FF0F2CFF0B407070000024002C4034FF0B404002002020FF0B40440200200D
:402CC00028FF0B404DF3FF0F80B500AF054B1B680222134001D0012300E000231800BD4680BDC04624002C4090B587B000AF786000233B610023FB600B23FC1802F071FE1D
:402D000003002370FFF7D2FE031E03D001233B61FFF790FE7B68182B02D07B68302B03D10123FB60FFF76EFF7B68022B00D8AFE07B68302B00D9ABE0614B1B78DBB21A0014
:402D40007B689A420AD35F4A1723FB1812781A705D4A1623FB1812781A703FE05B4B1B78DBB21A007B689A420AD3594A1723FB1812781A70574A1623FB1812781A702DE0F9
:402D8000554B1B78DBB21A007B689A420AD3534A1723FB1812781A70514A1623FB1812781A701BE04F4B1B78DBB21A007B689A420AD34D4A1723FB1812781A704B4A162373
:402DC000FB1812781A7009E0494A1723FB1812781A70484A1623FB1812781A707B68DA1E0A23FB1844498A5C1A700A23FB181B782F2B0DD97B682A2B0AD9404B19221A6057
:402E0000052002F0E5FD1523FB1819221A7007E03A4B1B68DAB21523FB183F210A401A700A23FA181523FB1812781B789A4208D2324B7A68033A30498A5C1A60052002F0A6
:402E4000C7FD2F4B7A682B498C4662441278D2B21A602C4B1722BA1812781A602A4B1622BA1812781A60052000F012F90A23FA181523FB1812781B789A420CD91F4B7A68E1
:402E8000033A1D498A5C1A60052002F0A1FD02E0002000F0CBF83B69012B01D1FFF720FDFB68012B01D1FFF711FE0B23FB181B78180002F09AFDC046BD4607B090BDC04602
:402EC00040F3FF0F41F3FF0F42F3FF0F43F3FF0F44F3FF0F45F3FF0F46F3FF0F47F3FF0F48F3FF0F49F3FF0F4AF3FF0F4BF3FF0F4CF3FF0F4DF3FF0F707000002CFF0B4093
:402F000028FF0B401CFF0B4020FF0B4080B584B000AF02003960FB1D1A7080239B05FB60FB1D1B781F2B02D9002000F07FF8FB1D1B7810339B00FA68D3181B68BB60FB1D79
:402F40001B7810339B00FA68D3183A681A60BB681800BD4604B080BD90B587B000AF0200FB1D1A70BB1D0A1C1A70BB1D1B78032B02D9002000F05AF8FB1D1B781F2B02D94B
:402F8000002000F053F8FB1D1B7803221340DB0006337B611323FC1802F023FD03002370FB1D1B789B08DBB29B00144A944663441B68FB6003227B699A401300DA43FB6808
:402FC0001340FB60BB1D1A787B699A401300FA681343FB60FB1D1B789B08DBB29B00074A94466344FA681A601323FB181B78180002F0FBFCC046BD4607B090BD00E400E003
:4030000080B582B000AF0200FB1D1A70064BFA1D12781F210A40012191400A001A60C046BD4602B080BDC04600E100E080B582B000AF0200FB1D1A7001BEC046BD4602B0F0
:4030400080BDC04680B582B000AF786009E00D4B1B68180002F0BCFC7B680B4A944663447B607A6880231B029A42F0D8074B1B687A685343180002F0ABFCC046BD4602B006
:4030800080BDC046480100200080FFFF4001002080B582B000AF0200BB1D1A80BB1D1B88044A12785343180002F092FCC046BD4602B080BD4401002080B582B000AF78602F
:4030C000254B1B78DBB21A007B681A60234B1B78DBB21A027B681B681A437B681A60204B1B78DBB21A047B681B681A437B681A601C4B1B78DBB21A067B681B681A437B68E9
:403100001A607B680433184A1278D2B21A60174B1B78DBB219027B6804337A68043212680A431A60124B1B78DBB219047B6804337A68043212680A431A600E4B1B78DBB27B
:4031400019067B6804337A68043212680A431A60C046BD4602B080BD78F2FF0F79F2FF0F7AF2FF0F7BF2FF0F7CF2FF0F7DF2FF0F7EF2FF0F7FF2FF0F80B500AF044B1B6833
:40318000002B01DA012300E000231800BD4680BD0000224090B583B000AFFC1D02F021FC03002370074B074A1268C02109020A431A60FB1D1B78180002F017FCC046BD46A2
:4031C00003B090BD00010B4080B500AF054B1A68C0231B02134001D0012300E000231800BD4680BD00010B4090B583B000AFFC1D02F0F7FB030023700D4B0D4A12680D49A5
:403200000A408021C9010A431A60094B084A126808490A40802109020A431A60FB1D1B78180002F0E2FBC046BD4603B090BDC04600010B40FF3FFFFF90B585B000AF7860BA
:403240000B23FC1802F0CDFB03002370FFF7BCFF031E04D00123FB60FFF7C6FF01E00023FB607B680D4A13407B600D4B0C4A12680C4911407A680A431A60094B1B68FB6864
:40328000012B01D1FFF786FF0B23FB181B78180002F0ABFBC046BD4605B090BD0404040010020B40FBFBFBFF80B500AF344B1B68042213401FD0334B1B680422134017D0FE
:4032C000314B1B6804221340DA432E4B1B681A402C4B1A602C4B1B68042293431A002A4B1A602A4B1B68002B02D0284B1B6898470420FFF7A1FF224B1A688023DB001340AF
:4033000022D0204B1A688023DB00134017D01E4B1A688023DB001340DA431A4B1B681A40184B1A60184B1B68194A1A40164B1A60164B5B68002B02D0144B5B6898478023BB
:40334000DB001800FFF778FF0D4B1A688023DB02134011D00B4B1A688023DB02134006D00A4B9B68002B02D0084B9B6898478023DB021800FFF760FFC046BD4680BDC0461B
:4033800010020B40540100205002002054020020FFFBFFFF80B582B000AF0200FB1D1A70BB1D0A1C1A700A4B1B78002B04D100F011F8074B01221A70BB1D1A78FB1D1B7824
:4033C0001100180000F07EF8C046BD4602B080BD70020020B0B500AF2C4B01221A602C4B2B4A126820218A431A602A4B0A221A60294B2A4A1A60284B274A126828490A4305
:403400001A60254B244A126804218A431A600220FFF73EFE204B204A126808218A431A60204CFFF751FC031E01D0022300E0002323601D4B1D4A1A601D4B07221A60032177
:403440001E20FFF789FD1B4B19001E20FFF75EFD03211F20FFF780FD174B19001F20FFF755FD03210020FFF777FD144B19000020FFF74CFD03210520FFF76EFD104B190009
:403480000520FFF743FDC046BD46B0BD74022C4048002C4030032C4000202C40030000040C0000B824002C4030202C401A00150028202C40B9450000E9450000D14500003E
:4034C0000146000080B582B000AF0200FB1D1A70BB1D0A1C1A702A4BFA1D12781A70294B00221A70284B00221A70284B00221A70274B00221A70274B00221A70264B002276
:403500001A70264B00221A701E20FFF779FD0020FFF776FD1F20FFF773FDBB1D1B78002B02D0012B07D00DE01D4B1D4A126801218A431A600DE01A4B194A126801210A4364
:403540001A6006E0164B164A126801210A431A60C046134B124A126804218A431A60114B00221A60104B01221A60104B80221A600F4B04221A60C046BD4602B080BDC046C2
:40358000D5060020D8060020F4060020F7060020EC060020F6060020F9060020D406002024002C40A4002C40A0002C4020002C4048002C4080B500AF0E4B00221A700E4B66
:4035C00000221A700D4B00221A700D4B00221A700C4B00221A700C4B00221A700B4B00221A700B4B01221A600A4B80221A60C046BD4680BDD8060020F4060020F706002030
:40360000EC060020F6060020F9060020D4060020A0002C4020002C4080B500AF024B1B78DBB21800BD4680BDF706002080B582B000AFFB1D00221A70084B1B78DBB2002B6D
:4036400006D0FB1D054A12781A70044B00221A70FB1D1B781800BD4602B080BDF406002080B582B000AF0200FB1D1A70FB1D1A78064913005B009B189B00CB1801331B7816
:40368000DBB21800BD4602B080BDC046FC06002080B584B000AF0200FB1D1A700E23FB1800221A80FB1D1B78002B28D0FB1D1B78082B24D8154AFB1D1B789B019B589AB202
:4036C0000E23FB180F210A401A800E23FB181B881B029BB21AB20D49FB1D1B789B01CB1804331B681BB213431AB20E23FB181A800E23FB180E22BA181288023A1A800E2367
:40370000FB181B881800BD4604B080BDF0FF2B40B0B584B000AF39601100FB1D021C1A703B1D0A1C1A80FB1D1B78002B00D18AE0FB1D1B78082B00D985E03B1D1988FB1D65
:403740001A78434813005B009B189B00C31806331B889BB21A0080239B009B1A99420FD9FB1D1A783A4913005B009B189B00CB1806331B889AB23B1D802189008A1A1A80E8
:40378000344DFB1D19783B1D1B881B0A9BB2D8B2FB1D1A782E4C13005B009B189B00E31803331B78DBB20343DBB21A008B015A512849FB1D1B783A1D1288D2B29B01CB1883
:4037C00004331A603B68002B1FD00E23FB1800221A8013E02048FB1D1B780E22BA18128839688A1812789B01C31820331A600E23FB180E22BA18128801321A800E23FA18B8
:403800003B1D12881B889A42E4D3FB1D1A78104913005B009B189B00CB18013300221A700C4CFB1D1978FB1D1A78094813005B009B189B00C31805331B78DBB21A008B014D
:40384000E31808331A60C046BD4604B0B0BDC046FC060020F0FF2B40C0012C4080B584B000AF39601100FB1D021C1A703B1D0A1C1A803B68002B45D0FB1D1B78002B41D05B
:40388000FB1D1B78082B3DD8FB1D1B781800FFF7FFFE03001A003B1D1B88934207D9FB1D1B781800FFF7F4FE03001A0001E03B1D1A883B1D1A800E23FB1800221A8014E009
:4038C0000E23FB181B883A68D2181349FB1D1B789B01CB1820331B68DBB213700E23FB180E22BA18128801321A800E23FA183B1D12881B889A42E3D3FB1D1B78180000F01F
:403900000DF802E03B1D00221A803B1D1B881800BD4604B080BDC046C0012C4090B583B000AF0200FB1D1A70FB1D1B78002B21D0FB1D1B78082B1DD8FB1D1A780F491300D8
:403940005B009B189B00CB18013300221A700C4CFB1D1978FB1D1A78084813005B009B189B00C31805331B78DBB21A008B01E31808331A60C046BD4603B090BDFC06002070
:40398000F0FF2B4080B582B000AF0200FB1D1A70FB1D1B78002B08D00A4B1B78DBB201221343DAB2074B1A7007E0064B1B78DBB201229343DAB2034B1A70C046BD4602B07F
:4039C00080BDC046F906002090B583B000AFFB1D00221A70354B1B69DBB2BC1D180000F06FF803002370314B1B688022134016D02E4B5B68212B00D051E02D4B07221A806D
:403A0000BB1D1A781300DB009B1A2A4A9A18284B5A60FC1D00F074FB030023703FE0234B5B68202B02D0222B1ED038E0204B07221A80BB1D1A781300DB009B1A1D4A9A1804
:403A40001B4B5A60BB1D1B78BA1D12781A498A5CD2B201210A43D1B2174AD154FC1D00F0D3FB030023701AE0BB1D1A780F4B9B68DBB299B2114B5200D152BB1D1B78BA1DFC
:403A800012780D498A5CD2B202210A43D1B20A4AD154FC1D00F05CFC03002370C046FB1D1B781800BD4603B090BDC04600002C40E006002058010020BC060020D0060020C4
:403AC00080B584B000AF0200FB1D1A700F23FB1800221A700E23FB18FF221A7028E00F23FB181A780D23FB1817498A5C1A700D23FB181A78154913005B009B189B00CB1866
:403B00000A331B78DBB2FA1D12789A4209D10E23FB180F22BA1812781A700F23FB1802221A700F23FB181A780F23FB1801321A700F23FB181B78012BD1D90E23FB181B7825
:403B40001800BD4604B080BDC4060020FC06002080B582B000AFBB1D00221A70274B00221A70274B00221A70254B00225A70FB1D00221A7017E0FB1D1A787B1D21498A5CAE
:403B80001A707B1D1B78002B08D07B1D1B78082B04D87B1D1B781800FFF7C0FEFB1D1A78FB1D01321A70FB1D1B78012BE3D9164B1B78DBB2002B18D0124B1B78DBB2002BCE
:403BC00013D0124B1B78DBB2002B0ED00E4B1B78DBB2082B09D80B4B1B78DBB2082B04D80A4B1B78DBB2082B02D9BB1D01221A70BB1D1B781800BD4602B080BD710200203A
:403C0000BC060020C8060020C0060020C406002080B584B000AF78600A00BB1C1A801A4B1B7819000F23FB18184A525C1A700F23FB181A78164913005B009B189B00CB18B4
:403C400008331B889BB2BA1C12889A420FD90F23FB181A78B91C0E4813005B009B189B00C31808331B880B800020FFF7DFF9BB1C1A8879680F23FB181B781800FFF748FD70
:403C8000C046BD4604B080BD71020020C0060020FC06002080B500AF064B1B781A00064B9B5CDBB21800FFF7DBFC03001800BD4680BDC04671020020C806002080B500AF0D
:403CC000064B1B781A00064B9B5CDBB21800FFF7C7FC03001800BD4680BDC04671020020C006002090B585B000AF7860124B1B7819000F23FB18114A525C1A700F23FB181F
:403D00001A780F4913005B009B189B00CB1808331B889AB20C23FC1879680F23FB181B781800FFF79BFD030023800C23FB181B881800BD4605B090BD71020020C806002005
:403D4000FC06002080B584B000AF786008001100FB1C021C1A70BB1C0A1C1A707B68DA780F23FB1803210A401A707B689B785BB2002B25DA0F23FB181B78032B0ED0BB1C78
:403D80001B78012213401C4AF91C0978D154BB1CBA1C127801210A431A7027E0BB1C1B789B08DBB21A0001231340144AF91C0978D154BB1CBA1C127804210A431A7015E036
:403DC0000F23FB181B78032B10D0BB1C1B785B08DBB21A0001231340094AF91C0978D154BB1CBA1C127802210A431A70BB1C1B781800BD4604B080BDC0060020C40600206D
:403E0000C806002080B582B000AF374B1B683B603B681022134060D001237B603B688022134012D03B680F221340012B02D000237B601AE000F064F82C4B1B78DBB25BB200
:403E4000002B12DA00237B600FE03B684022134002D000F0A3F808E03B682022134002D000F0BCF801E000237B607B68002B34D01D4B1B683B603B68802213402DD11C4B7F
:403E80001B78DAB21B4B1B78DBB21343DBB23B60194B3A681A60184B1A683B689A421CD1124B1B78DBB27B600F4B1B68802213403B603B68002B09D10B4B0C4A1278D2B2E7
:403EC0001A60094B1B680F2213407B60074B1B78DBB21A007B689A42E2D1084B04221A60C046BD4602B080BDA0002C40F50600206A070020F8060020A4002C4020202C4097
:403F000090B583B000AF224B1A68FB1D1A70204BFA1D12781A601E4B1A68FB1D1A70FB1D1B785BB2002B04DA1A4BFA1D12781A7029E0022000F04EFA174B1B686022134048
:403F4000202B09D0402B0DD0002B11D1FC1D00F05FFB030023700FE0FC1D01F049FD0300237009E0FC1D01F075FB0300237003E0FB1D00221A70C046FB1D1B78002B02D1AB
:403F8000044B03221A70C046BD4603B090BDC046A0002C40F506002000002C4080B500AF0D4B1B78DBB2022B08D002DC002B0ED00EE0042B05D0062B06D009E000F0FAF855
:403FC00006E000F0B3F903E000F0DCF900E0C046C046BD4680BDC046D806002080B500AF0F4B1B78DBB2022B08D002DC002B12D012E0042B05D0062B06D00DE000F0E2F865
:404000000AE000F037F907E0032000F0E3F9054B03221A7000E0C046C046BD4680BDC046D8060020F506002080B582B000AF00237B602B4B1B78DBB29AB22A4B1B889BB2FB
:40404000D3189AB2274B1A8017E0274A274B5B681B78DBB219007B689B009950234B5B685A1C224B5A607B6801337B601F4B1B889BB2013B9AB21D4B1A801C4B1B889BB2C5
:40408000002B02D07B68072BDFD9154B1B78DBB2082B02D07B68002B0FD0154B1B78DBB2802252425340DAB2114B1A70114B0F221A70114B02221A7005E00E4B02221A70FC
:4040C0000D4B02221A707B68DAB20C4B1A707B68DAB2034B1A70C046BD4602B080BDC046D4060020D606002000002C40E00600206A070020F5060020D8060020F8060020F5
:4041000080B582B000AF174B1B889BB2002B02D100F030F821E0144B02221A70134B00221A7000F077F9124BDB699BB21B029BB21AB20F4B9B691BB213431AB2BB1D1A80A6
:40414000084B1B889BB2BA1D12889A4203D2054BBA1D12881A80FFF767FF01231800BD4602B080BDE0060020D80600206A07002000002C4080B500AF094B02221A70094BBA
:4041800080221A70084B0F221A70084B00221A70074B00221A7001231800BD4680BDC046D80600206A070020F5060020D4060020F806002080B500AFFFF736FFC046BD466C
:4041C00080BDC04680B500AF0B4B1B78DBB29AB20A4B1B889BB2D3189AB2084B1A80084B00221A70012000F0F5F8064B03221A70C046BD4680BDC046D4060020D60600202E
:40420000D8060020F506002080B582B000AF144B04221A70134B80221A7000F0FBF8124BDB699BB21B029BB21AB20F4B9B691BB213431AB2BB1D1A800C4B1B889BB2BA1DD2
:4042400012889A4203D2094BBA1D12881A80084B0B221A7001231800BD4602B080BDC046D80600206A07002000002C40E0060020F506002080B582B000AF00233B60244BF7
:404280001B680F221340023B7B607B689BB2FF2213409AB21F4B1B889BB2D3189AB21D4B1A8019E01C4B5B681C493A6892005258D2B21A70184B5B685A1C174B5A603B688D
:4042C00001333B607B68013B7B60134B1B889BB2013B9AB2104B1A800F4B1B889BB2002B02D07B68002BDDD17B68DAB20C4B1A700C4B1B78DBB2802252425340DAB2094BB7
:404300001A70094B0B221A70C046BD4602B080BDA4002C40D6060020E006002000002C40F80600206A070020F506002080B500AF054B00221A70012000F04CF8034B032200
:404340001A70C046BD4680BDD8060020F506002080B500AF074B06221A70074B06221A70064B80221A70064B00221A7001231800BD4680BDD8060020F50600206A070020C8
:40438000F806002080B500AF0E4B1B78DBB2002B0BD00D4B0B4A1278D2B2802149420A43D2B21A60074B00221A70084B00221A70012000F00FF8064B03221A70C046BD462C
:4043C00080BDC046F606002020002C40D8060020F506002080B582B000AF0200FB1D1A700A4B9B68002B0DD0084B9B68FA1D12781A70064B9B68064A128892B25A80034B74
:4044000000229A60C046BD4602B080BDE0060020D606002080B500AF084B00221A80084B9B68002B07D0064B9B6800221A70044B9B6800225A80C046BD4680BDD60600208B
:40444000E006002080B500AF0D4B01221A600D4B9B6C0D4B1B7BDBB21A0003231340012B08D0094BDB7BDBB2802252425340DAB2054BDA73044B01225A73C046BD4680BD3E
:404480002C002C40F0FF2B40FC06002080B500AF0E4B02221A600E4A8823D3580D4B1B7EDBB21A0003231340012B08D0094BDB7EDBB2802252425340DAB2064BDA76054B4A
:4044C00001225A76C046BD4680BDC0462C002C40F0FF2B40FC06002080B500AF104B04221A60104AC823D3580F4B24229B5CDBB21A0003231340012B0AD00B4B27229B5CC7
:40450000DBB2802252425340D9B2074B27229954054B252201219954C046BD4680BDC0462C002C40F0FF2B40FC06002080B500AF024B01221A60C046BD4680BD20202C404C
:4045400080B500AF034B02221A60FFF733F8C046BD4680BD20202C4080B584B000AF78600023FB607B688022134002D0114B1B6998477B680F221A407B68D908FF235B01D1
:404580000B4013437B600EE07B680122134004D0084BFA689200D35898477B685B087B60FB680133FB607B68002BEDD1C046BD4604B080BDA070000080B500AF034B1B6875
:4045C0001800FFF7C9FFC046BD4680BD34202C4080B500AF034B1B681800FFF7BDFFC046BD4680BD38202C4080B500AF034B1B681800FFF7B1FFC046BD4680BD3C202C40D5
:4046000080B500AF01F040F8C046BD4680BDC04690B589B000AF1F23FB1800221A70D14B1B68FB600023BB61CF4B00221A80FB688022134000D101E1CA4B5B68062B0BD0F5
:4046400003D8002B00D1A0E016E2082B00D1D8E00A2B00D1E2E00FE2C24BDB68012B11D100F04CFE03003B613B695A68BE4B5A60BD4B12221A801F23FC18FFF741FD0300B3
:404680002370F2E1B74BDB68022B28D1B54B9B68DBB2180000F006FE03003B613B69002B00D1E2E13B695A68AF4B5A60AE4B5B6803331B78DBB29BB21B029AB2AA4B5B68F1
:4046C00002331B78DBB29BB213439AB2A64B1A801F23FC18FFF714FD03002370C5E1A14BDB68032B4AD11723FB1800221A709F4BBB6111E00B23FB18BA6912781A700B2344
:40470000FB181B78BA69D318BB611723FB181A781723FB1801321A70924B9A681723FB181B789A4204D9BB691B78DBB2002BE1D18C4B9B68002B0BD08A4B9B688C4A127C0B
:40474000934205D18B4B180000F0A4F9894BBB61BB691B78DBB2002B00D186E1BB691B78DBB29AB2804B1A807F4BBA695A601F23FC18FFF7C5FC0300237076E11F23FC1890
:4047800001F036F9030023706FE1FB680322134021D0022B00D033E0734B02221A80714B1B697F221A40744913005B009B189B00CB1802331B78DAB2704B1A706F4B00228F
:4047C0005A70694B6D4A5A601F23FC18FFF798FC0300237014E0644B02221A80684B1B78DAB2664B1A70654B00225A705E4B634A5A601F23FC18FFF783FC03002370C046D3
:404800003AE1594B01221A80574B5E4A5A601F23FC18FFF775FC030023702DE1524B01221A80504B1A69584BD2184F4B5A601F23FC18FFF765FC030023701DE1494B5B68A6
:404840000B2B00D913E19A00504BD3181B689F46444B9B68DAB24E4B1A701F23FC18FFF777FD0300237007E13E4B9B687B607B68002B08D07B68DBB2013BDBB2180000F0A0
:4048800011FD03003B617B68002B02D03B69002B03D17B68002B00D0EBE03A4B1B78DBB21A007B689A4209D07B68DAB2354B1A70384B01221A70012000F0BAF91F23FC1805
:4048C000FFF746FD03002370D3E000F075FE031E00D1D0E0234B1B693B60224B1B69DAB22D4B1A702D4A3B68D3181B78DAB226493B68CB181B78DBB29A4204D0254B0122A9
:404900001A7000F0BFFB1F23FC18FFF721FD03002370B0E0FB6803221340012B40D00DD3022B00D05AE00F4B9B68002B51D11F23FC1800F095FD030023704AE0094B9B68EC
:40494000012B48D10E4B1B78DBB202229343DAB20B4B1A701F23FC18FFF7FAFC0300237039E0C04600002C40E006002070710000187100008C070020FC06002074020020D5
:40498000F9060020F706002068070020D4700000F6060020F4060020EC060020DC060020394B1B69012B18D8374B9B68DBB2DB43D9B2354B1B69354AD25CD2B20A40D1B2BD
:4049C000324AD1541F23FC18FFF7C2FC0300237003E0C04650E0C0464EE0C0464CE0FB6803221340012B21D00DD3022B00D03BE0254B9B68002B32D11F23FC1800F0BAFC6A
:404A0000030023702BE0204B9B68012B29D1204B1B78DBB202221343DAB21D4B1A701F23FC18FFF795FC030023701AE0164B1B69012B18D8144B9B68DBB2DB43D9B2124B5B
:404A40001B69124AD25CD2B20A40D1B20F4AD1541F23FC18FFF77CFC0300237003E0C0460AE0C04608E0C04606E0C04604E0C04602E0C04600E0C0461F23FB181B78180094
:404A8000BD4609B090BDC04600002C406C070020F906002090B58DB000AF78601423FB18294A13CA13C31168196012791A710023BB627B68002B42D07B6822221A707B6854
:404AC000013303221A700C23FB181800FEF7F4FA0223FB6230E07A68FB6AD3180C22B918BA6A8A1812781209D2B211001422BA18525C1A70FB6A01337A68D31800221A7081
:404B0000FB6A02337A68D3180C22B918BA6A8A18127811000F220A40142179188A5C1A70FB6A03337A68D31800221A70BB6A0133BB62FB6A0433FB62FB6A212BCBD9C0461F
:404B4000BD460DB090BDC0460471000080B582B000AF01237B6057E0304A7B689B010C2199502F497A6813005B009B189B00CB1805331B78DBB2002B1CD029497A68130083
:404B80005B009B189B00CB1804331B78DBB25BB2002B07DA234A7B689B01D31808330C221A600EE01F4A7B689B01D318083308221A6006E01B4A7B689B01D318083380220D
:404BC0001A60194816497A6813005B009B189B00CB1806331B889BB21A007B689B01C31808331A6010480E497A6813005B009B189B00CB1806331B889BB21A007B689B01B6
:404C00001A507B6801337B607B68082BA4D9074BFF221A60C046BD4602B080BDC0012C40FC060020F0FF2B40D0112C4028002C4090B58BB000AF0200FB1D1A702223FB18EB
:404C400000221A802723FB1800221A7058E02723FB181A78E44913005B009B189B0000225A542723FB181A78DF4913005B009B189B00CB18023300221A702723FB181A7809
:404C8000D94913005B009B189B00CB18033300221A702723FB181A78D34913005B009B189B00CB18083300221A802723FB181A78CD4913005B009B189B00CB180A330022AD
:404CC0001A702723FB181A78C74913005B009B189B00CB18013300221A702723FB181A78C14913005B009B189B00CB18053300221A702723FB182722BA18127801321A7071
:404D00002723FB181B78082BA1D9FB1D1B78002B1CD02523FB1800221A7012E02523FB181B78B24A0021D1542523FB181B78B04A0021D1542523FB182522BA18127801328C
:404D40001A702523FB181B78012BE7D9A94B1B78DBB2002B00D18FE11B23FB1800221A70A44B1B78DBB2013BDBB2180000F09AFA03007B617B695B683B613B6907331B784B
:404D80001A004023134008D09B4B1B78DBB201221343DAB2984B1A7007E0974B1B78DBB201229343DAB2944B1A707B6908337B612723FB187A6912781A702523FB1801222F
:404DC0001A70D2E07B695B68FB612623FB1800221A70BAE02523FB181A78FB699B7819007F230B409A4200D0A5E02523FB181A787D4913005B009B189B00CB1808331B8807
:404E00009AB2FB699B889A420DD22523FB181A78FB699888744913005B009B189B00CB180833021C1A80FB691B781A006F4B9B5CDAB2FB695B789A4200D07CE02523FB183C
:404E40001A78FB699878684913005B009B189B00CB180433021C1A702523FB181A78FB69D878614913005B009B189B00021C5A54FB69DA780F23FB1803210A401A70FB69D3
:404E80009B785BB2002B20DA2523FB181A780F23FB181B78012B01D1072000E00D20524913005B009B189B00CB180533021C1A702523FB181A784C4913005B009B189B005E
:404EC000CB18013301221A701FE02523FB181A780F23FB181B78012B01D1052000E00920414913005B009B189B00CB180533021C1A702523FB181A783B4913005B009B1863
:404F00009B00CB18013300221A70FB699B790A2B03D0FB699B79022B0DD11B23FC181B23FB181A782523FB181978FB691800FEF709FF03002370FB690833FB612623FB1889
:404F40002622BA18127801321A702623FA182723FB1812781B789A4200D23BE72523FB182522BA18127801321A702523FB181B78082B00D826E77B695B68FB612523FB180C
:404F800000221A7019E0FB699B781A007F231A40FB691878144913005B009B189B00CB180A33021C1A70FB690833FB612523FB181A782523FB1801321A702523FA18272346
:404FC000FB1812781B789A42DDD300F0A9F902000A4B1A602223FB1800221A802723FB1801221A7041E0C046FC06002068070020DC060020F7060020F9060020F006002048
:405000002723FB181A781E4913005B009B189B00CB1806332222BA1812881A802723FB181A78174913005B009B189B00CB1808331B8899B22223FB182222BA1812888A1837
:405040001A802223FB181B880122134099B22223FB182222BA1812888A181A802723FB182722BA18127801321A702723FB181B78082BC5D9FFF76AFDC046BD460BB090BDA8
:40508000FC06002080B588B000AF804B1B78DBB2002B00D1F5E07D4B1B78DBB2013BDBB2180000F0FFF803007B617B6908337B617B691B783B617B695B68BB610F23FB1851
:4050C000734A12781A700023FB61D5E0BB691B780F22BA1812789A4200D0C7E00F23FB181B786C4AD35CDAB2BB695B789A4200D0BCE0BB699B781A007F231340BB60BB6907
:40510000DB781A00032313407B606349BA6813005B009B189B00CB18033300221A70BB6998785D49BA6813005B009B189B00CB180433021C1A70BB69D8785749BA6813009C
:405140005B009B189B00021C5A54BB6998885249BA6813005B009B189B00CB180833021C1A80BB699B785BB2002B1ADA7B68012B01D1072000E00D204749BA6813005B008F
:405180009B189B00CB180533021C1A704249BA6813005B009B189B00CB18013301221A7019E07B68012B01D1052000E009203A49BA6813005B009B189B00CB180533021C0F
:4051C0001A703549BA6813005B009B189B00CB18013300221A70314ABB689B01D318083301221A602D482C49BA6813005B009B189B00CB1808331B889BB21B0A9BB2DBB234
:405200001A00BB689B011A5024482349BA6813005B009B189B00CB1808331B889BB2DBB21A00BB689B01C31804331A601C481A49BA6813005B009B189B00CB1806331B8811
:405240009BB21A00BB689B01C31808331A6014481149BA6813005B009B189B00CB1806331B889BB21A00BB689B011A50BB690833BB61FB690133FB61FA693B699A4200D271
:4052800024E7C046BD4608B080BDC046F7060020EC06002068070020FC060020F0FF2B40D0112C4080B584B000AF0200FB1D1A70104B1B78DBB2104ADB00D31804331B6847
:4052C000FB60FB681033FB60FB681B78FA1D12789A4202D30023FB6006E0FB1D1B78DB00FA68D3185B68FB60FB681800BD4604B080BDC046D50600207072000080B500AF7F
:40530000054B1B78DBB2054ADB00D31804331B681800BD4680BDC046D50600207072000080B584B000AF124B1B78DBB2013BDBB21800FFF7B7FF0300BB60BB68002B0FD086
:40534000BB685A68FB1D12791A70FB1D1B780233DB00BA68D318BB60BB685B68FB6001E00023FB60FB681800BD4604B080BDC046F706002090B583B000AFFB1D00221A701B
:40538000344B1B697F2213403B603B68002B5BD03B68082B58D830493A6813005B009B189B00CB1802331B78DBB201221343D8B229493A6813005B009B189B00CB18023362
:4053C000021C1A7024493A6813005B009B189B00CB18033300221A701F493A6813005B009B189B00CB1801331B78DBB202221343D8B219493A6813005B009B189B00CB18D1
:405400000133021C1A7014493A6813005B009B189B00CB1804331B78DBB25BB2002B07DA0E4A3B689B01D31808338D221A6006E00A4A3B689B01D318083389221A60FC1DBF
:40544000FEF786FF03002370FB1D1B781800BD4603B090BD00002C40FC060020F0FF2B4090B583B000AFFB1D00221A704F4B1B697F2213403B603B68002B00D18FE03B6825
:40548000082B00D98BE04A493A6813005B009B189B00CB1802331B78DBB201229343D8B243493A6813005B009B189B00CB180233021C1A703E493A6813005B009B189B003A
:4054C000CB18033300221A703A493A4A3B689B019B58802293431A003B689B015A5034493A6813005B009B189B00CB1801331B78DBB202229343D8B22D493A6813005B0017
:405500009B189B00CB180133021C1A7028493A6813005B009B189B00CB1804331B78DBB25BB2002B1BDA22493A6813005B009B189B00CB1801331B78DBB2012B07D11D4ABD
:405540003B689B01D31808330C221A6022E0194A3B689B01D31808330D221A601AE014493A6813005B009B189B00CB1801331B78DBB2012B07D10F4A3B689B01D3180833FD
:4055800008221A6006E00B4A3B689B01D318083309221A60FC1DFEF7DBFE03002370FB1D1B781800BD4603B090BDC04600002C40FC060020F0FF2B4080B584B000AF0F2387
:4055C000FB1800221A701F4B1A690E23FB181A701D4B1B78DBB2013BDBB21800FFF762FE0300BB60BB685A68FB1D12791A700E23FA18FB1D12781B789A4204D90E23FB18CD
:405600001B78022B16D80E23FB181B780E22BA1812780E498A5CD1B20D4AD1540E23FB181A78084B9B68D9B2084B99540F23FB1801221A700F23FB181B781800BD4604B08D
:4056400080BDC04600002C40F706002068070020DC06002080B582B000AFFB1D00221A70084B1B688022134005D0064B5B68012B00D000E0C046FB1D1B781800BD4602B0E5
:4056800080BDC04600002C4080B582B000AF084B1B68DAB2FB1D01210A401A70044BFA1D12781A60FB1D1B781800BD4602B080BD100D044080B500AF114B8022D2041A6003
:4056C0000F4B0F4A12681A60002000F051F80C4B0B4A12681A600B4B0C221A60012000F095F8094B31221A60084B180000F050F880231B02180000F05BF8C046BD4680BD49
:40570000400120406401204068012040FFFF000090B583B000AFFC1D00F063F903002370094B094A126802210A431A60FB1D1B78180000F05AF91821022000F049F8C04677
:40574000BD4603B090BDC0460000204080B500AF064B1B78002B04D1FFF7ACFF034B01221A70FFF7D5FFC046BD4680BD7602002080B582B000AF7860044B7A681204120C61
:405780001A60C046BD4602B080BDC0464801204080B582B000AF7860044B7A681204120C1A60C046BD4602B080BDC0465401204080B582B000AF7860044B7A681204120CF5
:4057C0001A60C046BD4602B080BDC0464C01204090B585B000AF786039600F23FC1800F000F903002370084B79683A6891400A001A600F23FB181B78180000F0F6F8C04626
:40580000BD4605B090BDC0460800204080B582B000AF7860034B7A681A60C046BD4602B080BDC0467801204090B589B000AF786000220C23FB185A7280235A000C23FB1812
:405840001A6000220C23FB181A7201220C23FB185A600C23FB187A68DA601F23FC18084A0C23FB1811001800FCF76CFA030023701F23FB181B781800BD4609B090BDC04630
:405880007007002080B500AF094B812292041A60084B0C221A60002000F08AF8064B180000F058F8002000F039F8C046BD4680BD0001204024012040FFFF000090B583B04D
:4058C00000AFFC1D00F08DF803002370094B094A126801210A431A60FB1D1B78180000F084F81821012000F045F8C046BD4603B090BDC0460000204080B500AF064B1B78DE
:40590000002B04D1FFF7BEFF034B01221A70FFF7D5FFC046BD4680BD7702002080B582B000AF7860044B7A681204120C1A60C046BD4602B080BDC0460801204080B500AFF8
:40594000034B1B681B041B0C1800BD4680BDC0460801204080B582B000AF7860044B7A681204120C1A60C046BD4602B080BDC0461401204090B585B000AF786039600F233D
:40598000FC1800F02EF803002370084B79683A6891400A001A600F23FB181B78180000F024F8C046BD4605B090BDC0460800204080B582B000AF7860034B7A681A60C046E9
:4059C000BD4602B080BDC04638012040000000000230800803D00138FDD1C046C046C0467047EFF3108072B6704780F31088704790B583B000AFBB1D00221A701E4B1B680F
:405A000003221340012B02D0022B05D013E01A4B1A69FB1D1A7012E0174B1B697F221A40F91D164813005B009B189B00C3180A331B780B7003E0FB1D00221A70C046FB1D83
:405A40001B78022B11D80E4B1A68FB1D1B78D3181B78022B05D1BC1DFDF7B6FF0300237003E0BB1D00221A70C046BB1D1B781800BD4603B090BDC04600002C40FC060020D7
:405A8000F0060020002243088B4274D303098B425FD3030A8B4244D3030B8B4228D3030C8B420DD3FF22090212BA030C8B4202D31212090265D0030B8B4219D300E0090AFA
:405AC000C30B8B4201D3CB03C01A5241830B8B4201D38B03C01A5241430B8B4201D34B03C01A5241030B8B4201D30B03C01A5241C30A8B4201D3CB02C01A5241830A8B42FC
:405B000001D38B02C01A5241430A8B4201D34B02C01A5241030A8B4201D30B02C01A5241CDD2C3098B4201D3CB01C01A524183098B4201D38B01C01A524143098B4201D36F
:405B40004B01C01A524103098B4201D30B01C01A5241C3088B4201D3CB00C01A524183088B4201D38B00C01A524143088B4201D34B00C01A5241411A00D20146524110467D
:405B80007047FFE701B5002000F006F802BDC0460029F7D076E770477047C046014B18687047C046D40100200E4B70B500251E000D4CE41AA410A54204D0AB00F358984724
:405BC0000135F8E701F074FB084B00251E00084CE41AA410A54204D0AB00F35898470135F8E770BDBC720000BC720000BC720000C472000030B50024A24208D0035D651C5C
:405C00000C5DA34201D0181B02E02C00F4E7002030BD002310B59A4203D0CC5CC4540133F9E710BD03008218934202D019700133FAE770470200C9B21378002B03D09942EA
:405C400004D00132F8E71800002900D11000704702780B78002A03D0013001319A42F7D0D01A70470023C25C0133002AFBD1581E704730B514009BB005001A00002C04DABF
:405C80008B230360012040421CE0822368469B0083810023009104919C4200D0631E02930593012369465B42CB8128001E9B00F079F8431C01DA8B232B60002C02D000230B
:405CC000009A13701BB030BD07B5009313000A00010002480068FFF7CCFF0EBDD4010020F0B58E6885B007000C00039201939E4243D890238A89DB001A423ED00325096983
:405D0000236801985B1A029363695D43EB0F5D19029B6D1001331B18AB4200D91D00530510D52900380000F037FB061E14D0029A2169FFF76EFFA289194B134080221343CA
:405D4000A38112E02A00380000F086FB061E0CD12169380000F0D4FA0C23402201203B60A38940421343A38117E0029B2661F61826606561019EED1AA560019BB34200D2C1
:405D80001E0032000399206800F0A5FA0020A3689B1BA36023689E19266005B0F0BDC0467FFBFFFFF0B59FB0029005938B890F0016001B0610D50B69002B0DD1402100F029
:405DC000EBFA38603861002804D10C23029A01381360D8E040237B61002306AD6B6120336B761033AB7634002378002B03D1A31B049312D003E0252BF9D00134F4E7A31B19
:405E0000320039000298FFF76BFF431C00D1B4E06A69049B944663446B612378002B00D1ABE00122002352426A6002A95432521801342B60EB60AB601370AB65534E217836
:405E40000522300000F03CFA002807D00123801B83402A68013413432B60EFE72B68DA0604D55322202102A8121811701A0704D553222B2102A81218117022782A2A03D07E
:405E8000099B00200A210EE0059A111D12680591002A01DB099204E05242EA60022213432B6001340BE02278303A092A04D84B4301349B180120F6E7002800D009932378EA
:405EC0002E2B1ED163782A2B0AD1059B02341A1D1B680592002B01DA01235B42079310E000230A201A0001346B6021783039092904D84243013452180123F6E7002B00D040
:405F00000792234E21780322300000F0D9F9002806D04023801B83402A68013413432B60217806221B48661C297600F0C9F9002812D0194B002B06D10722059B0733934300
:405F40000833059314E005AB00933A00134B2900029800E000BF07E005AB00933A000F4B2900029800F08AF80390039B013304D06B69039A9B186B6135E7BB890B985B069D
:405F800001D5012040421FB0F0BDC0467A720000807200008472000000000000E15C0000F7B5170001938A680B6900900C00934200DA130022003B6043321278002A01D003
:405FC00001333B6023689B0602D53B6802333B60062523681D401ED0230043331B785A1E9341226892061CD53020E1184331087021005A1C45310978A21843320233117028
:406000000FE022000123193201990098089EB047431C0ED00135E3683A689B1A9D42F0DBDAE72200019943320098089DA847431C02D10120404220E006232068E1683A68C3
:4060400003400025042B03D18D1AEB43DB171D40A3682269934201DD9B1AED180027BD420AD0220001231A3201990098089EB047431CDED00137F2E70020FEBDF0B58BB054
:4060800006920A0043320793059004920A7E0C00109B6E2A00D1ABE011D8632A22D009D8002A00D1B5E0582A00D0C5E045310A70814A4FE0642A1DD0692A1BD0BCE0732AE5
:4060C00000D1AAE009D86F2A29D0702A00D0B3E0202209680A43226037E0752A1FD0782A33D0A9E00E001A684236111D196013683370A4E021681A68080606D4490604D514
:40610000111D19600023D55E02E0111D19601568002D3BDA2D23049A6D42137036E021681A68080606D4490604D51568111D1960ADB202E0111D196015685F4B227E039360
:4061400008276F2A1DD00A271BE022007821453211705A4A19680392081D226818600D68100602D4500600D5ADB2D30702D520231A4322601027002D03D1202322689A430A
:4061800022602300002243331A7002E00A274A4B03936368A360002B09DB0422216891432160002D05D1049E002B11D07BE0002D79D0049E28003900FFF7EAFC039B013EBB
:4061C0005B5C280033703900FFF75CFC051EF1D1082F09D12368DB0706D563682269934202DC3023013E3370049B9B1B23612BE009681A68080607D4490605D5111D19608A
:406200001368A28A1A8004E0111D1960136862691A600023049E236116E01A68111D1960166800216268300000F04AF8002801D0801B6060636803E0260042363270012339
:4062400023610023049A1370079B09AA00932100069B0598FFF7A4FE431C02D10120404227E02369320006990598079DA847431CF4D0236800259B070FD4099BE0689842F0
:4062800017DA180015E022000123193206990598079EB047431CE1D00135E368099A9B1A9D42F0DBE9E72600039B42361B7833708EE70BB0F0BDC0468B7200009C720000B4
:4062C000C9B28218904204D003788B4202D00130F8E70020704710B5884202D98B18984201D3002305E09B1A013A08D3995C8154FAE7934203D0CC5CC4540133F9E710BDE0
:4063000070B50500002944D00C1F2368002B00DAE418280000F0D8F81E4A13681100002B02D16360146031E0A3420DD92268A018834203D118685B688218226063600C60E9
:4063400024E0A24203D813005A68002AF9D11E689819A0420BD12168711858181960824214D110685268411819605A600EE0A04202D90C232B6009E021686018824203D153
:40638000106852684118216062605C60280000F09CF870BD7C020020032370B5CD1C9D43083506000C2D01D20C2501E0002D01DBA94202D90C23336048E0300000F084F812
:4063C000234B1C681A002100002913D00B685B1B0DD40B2B02D90B60CC181EE08C4202D1636813601AE04B6863600C0016E00C004968E9E7174C2368002B03D1300000F051
:4064000051F820602900300000F04CF8431C18D00323C41C9C43A0420DD12560300000F054F8200007220B30231D9043C31A0ED05A42E2500BE0211A300000F033F8431C39
:40644000EBD10C233000336000F03FF8002070BD7C02002078020020F8B506000C001500002904D11100FFF797FF040018E0002A03D1FFF745FF2C0012E000F027F885422B
:406480000ED929003000FFF787FF071E07D021002A00FFF7BEFB21003000FFF731FF3C002000F8BD002370B5064C050008002360FBF79CFB431C03D12368002B00D02B60AB
:4064C00070BDC046B0070020704770470B1F1A68101F002A04DA891804390B68D0180438704700000000000000000000000000000000000000000000000000000000000015
:406500003C6E6F20475049422064657669636520636F6E6E65637465643E0D0A00000000434D44206F76657272756E0D0A0000000D0A00000D0000000A0000001B5B410047
:406540001B5B42001B5B43001B5B44003C65000001100000406500000210000044650000031000004865000004100000000000000000000079617567693E20007F0000000E
:40658000082008000D0A00000D1B5B4B000000006164647200000000436F6E666967757265206F7220717565727920746865204750494220646576696365206164647265DF
:4065C000737300006175746F00000000436F6E666967757265206175746F6D61746963207265616420616674657220777269746500000000636C720053656E64206120735B
:40660000656C65637465642064657669636520636C656172202853444329206D6573736167650000656F6900417373657274696F6E206F6620454F49206C696E65207769CE
:40664000746820746865206C617374207472616E736D697474656420636861726163746572000000656F7300417070656E64207370656369666963207465726D696E6174E4
:406680006F7220746F2047504942206F7574707574000000656F745F636861720000000043686172616374657220746F2061646420666F7220454F4920696620656F745FAB
:4066C000656E61626C650000656F745F656E61626C650000417070656E6420656F745F63686172207768656E20454F4920646574656374656400000068656C70000000008E
:40670000446973706C617920636F6D6D616E64206C697374000000006966630053656E6420616E20696E7465726661636520636C656172202849464329206D657373616722
:4067400065000000696E7465726163740000000055736520696E74657261637469766520696E707574206D6F646500006C6C6F0053656E642061206C6F63616C206C6F637F
:406780006B206F757420284C4C4F29206D657373616765006C6F630053656E64206120676F20746F206C6F63616C202847544C29206D657373616765000000007265616433
:4067C00000000000526561642066726F6D207468652064657669636500000000726561645F746D6F5F6D7300526561642074696D656F75742076616C756520696E206D73F7
:40680000000000007665720052657475726E207468652076657273696F6E206F6620746865207961756769206669726D7761726500000000636F6E666967000053686F77DB
:406840002063757272656E7420636F6E66696775726174696F6E2073657474696E677300787800005265616420616C6C2070696E730000009065000055150000AA060020FE
:4068800000001E0098650000F00000200000000000000000C465000055150000AC06002000000200CC650000FC0000202C6C000000000000F46500000D16000000000000E5
:4068C00000000000F8650000E000002000000000691900002466000055150000AC0600200000010028660000E8000020606C0000000000006466000055150000B006002086
:40690000000003006866000004010020EC6C0000000000009466000055150000B20600200000FF00A06600000C0100200000000000000000C866000055150000B406002029
:4069400000000100D4660000E8000020606C000000000000F866000051160000000000000000000000670000180100200000000000000000186700000D1600000000000001
:40698000000000001C670000E000002000000000791900004467000055150000B80600200000010050670000E8000020606C0000000000006C6700000D160000000000004D
:4069C0000000000070670000E00000200000000089190000946700000D160000000000000000000098670000E00000200000000099190000BC6700001D17000000000000F8
:406A000000000000C4670000200100200000000000000000DC67000055150000B60600200100B80BE86700002C0100200000000000000000046800000D1600000000000072
:406A40000000000008680000E00000200000000021190000346800003118000000000000000000003C680000E00000200000000000000000606800000D16000000000000F8
:406A80000000000064680000E0000020000000003D1900000000000000000000000000000000000000000000E00000200000000000000000200900003C6572726F723A20CB
:406AC000746F6F206D616E7920746F6B656E733E0D0A00003031323334353637383900003C6572726F723A20756E6B6E6F776E202B2B20636F6D6D616E643E0D0A000000BF
:406B00003C75736167653A202B2B257300000000202573003E0D0A0025730D0A00000000092564202D2025730D0A0000092863757272656E742073657474696E673A202581
:406B400064290D0A0000000025640D0A000000002B2B252D31322E3132730925730D0A003C6572726F723A20756E6B6E6F776E20636F6D6D616E643A2025733E0D0A0000F4
:406B80000D0A0000252D31302E313073203D202564000000202825732900000079617567692025642E2564206279204C656520457373656E0D0A000070696E2073746174F2
:406BC0007573203D20253034780D0A0000000000726561642D61667465722D77726974652064697361626C6564000000726561642D61667465722D777269746520616C77F6
:406C000061797300726561642D61667465722D777269746520696620777269746520636F6E7461696E6564203F00000000000000D06B000001000000EC6B000002000000D1
:406C4000046C0000000000000000000064697361626C656400000000656E61626C656400000000004C6C000001000000586C00000000000000000000617070656E64204349
:406C8000522B4C4620746F2047504942206F757470757400617070656E6420435220746F2047504942206F757470757400000000617070656E64204C4620746F204750493F
:406CC00042206F757470757400000000646F206E6F7420617070656E6420746F2047504942206F75747075740000000000000000786C000001000000946C000002000000A8
:406D0000B06C000003000000CC6C000000000000000000005B307C315D0000005B5041445D00000009776865726520504144206973206265747765656E203020616E6420F8
:406D4000333000005B307C317C325D005B307C317C327C335D0000005B636861725D00000977686572652063686172206973206265747765656E203020616E6420323535DE
:406D8000000000005B636F6D6D616E645D0000005B454F49207C20636861725D000000005B74696D655D00000977686572652074696D65206973206265747765656E20319C
:406DC00020616E642033303030000000000000000000000000000000000000000000000000000000000000000000000000000000000000000000000000000000000000005D
:406E00000000000000000000000000000000000000000000000000000000000000000000000000000000000000000000000000000000000000000000000000000000000052
:406E40000000000000000000000000000000000000000000000000000000000000000000000000000000000000000000000000000000000000000000000000000000000012
:406E800000000000000000000000000000000000000000000000000000000000000000000000000000000000000000000000000000000000000000000000000000000000D2
:406EC0000000000000000000000000000000000000000000000000000000000000000000000000000000000000000000000000000000000000000000000000000000000092
:406F00000000000000000000000000000000000000000000000000000000000000000000000000000000000000000000000000000000000000000000000000000000000051
:406F40000000000000000000000000000000000000000000000000000000000000000000000000000000000000000000000000000000000000000000000000000000000011
:406F800000000000000000000000000000000000000000000000000000000000000000000000000000000000000000000000000000000000000000000000000000000000D1
:406FC0000000000000000000000000000000000000000000000000000000000000000000000000000000000000000000000000000000000000000000000000000000000091
:4070000000300F40000800400F40000804360F4007370F4002400F4001410F4003420F4003430F4010470F40BAC0D804DC08DF311801780288028C01DE01E280E880680125
:40704000DA40A4011420A401C4208801A401B02000082D0854016102880489088D02A001B001C008CA01D604D802E205E408E801030405060708090A0B0C0E0F10111213F2
:407080001415161718191B1C1D1E1F2021222325262728292A2B2E2F30313233343500002D45000041450000053E00000000000000000000454400008D440000D9440000DC
:4070C00000000000000000000000000000000000000000006E4A0000144900006E4A0000DE4900006E4A0000504800006E4A00006E4A00006E4A0000684800006E4A0000BC
:40710000CA48000030313233343536373839414243444546000000001201000202000008B40432F201000102800100000902430002010180320904000001020201030524D8
:4071400000100104240202052406000105240100010705810308000A09040100020A000004070582024000000705030240000000040309042C034300790070007200650050
:40718000730073002000530065006D00690063006F006E0064007500630074006F007200100355005300420055004100520054003803430044004300200043006F006D00ED
:4071C0006D0075006E00690063006100740069006F006E00200049006E007400650072006600610063006500260343004400430020004400610074006100200049006E0043
:40720000740065007200660061006300650000000203000000008103080002000100820240000A000100030240000A00020A0000010000002C71000003000000147200008F
