:400000000020002011000000A10C0000A10C000080B500AF00F04EFE80B500AF194B12221A6001F08FFD302001F09AFE164B174A1A60174B174A1A60174B184A1A60184B8F
:40004000184A1A60144B184A1A60184B802212061A60174B8022D2021A60164B40221A60154B41221A60154B1900082001F08AFF082002F001F8124B00221A60C046BD46D6
:4000800080BDC0463000104004010B40060000800003014000DF01000000014040FF008004030140007FBB0041FF008008010B4000010B40300101402C010140612200003E
:4000C0000C020B4080B582B000AF72B63E4B01221A70FB1D00221A7022E0FB1D1A7813005B009B185B00394A9B183B603B681A78597809020A43997809040A43DB781B0639
:40010000134318003B681A795B791B0213439BB2190000F05FFDFB1D1A78FB1D01321A70FB1D1B78012BD8D9294A2A4B1100180000F060FD284B294A1A60294B9922120418
:400140001A60284B992212041A60274B992212041A60264B832292041A60254B01221A60244A244B1B78DBB23C218B43DBB214210B43DBB21370204A1F4B1B78DBB21621E4
:400180000B43DBB213701D4B03221A601C4B02221A601C4BFF221A601B4B1C4A1A601C4BFF221A601B4B194A1A601B4B13221A601A4B1B4A1A60FFF72FFF00F05DFDC0467B
:4001C000BD4602B080BDC0461C700F4000480000284800000C4800000003024030EE030010500F4020500F4070500F4078500F402000104001700F4000700F40000D0440E6
:400200000C0D044000010440080104402449920000020440080204400003044008030440B26D000010B5064C2378002B07D1054B002B02D0044800E000BF0123237010BD16
:4002400058010020000000006C450000084B10B5002B03D00749084800E000BF07480368002B00D110BD064B002BFBD09847F9E7000000005C0100206C450000C800002060
:400280000000000080B500AF62B600F0D5FA02F0A9F802F07DF90121002002F0E3F9002002F0D8FC00F020F8FA235B00180001F005FFC04602F018FB031EFBD000F078FCAA
:4002C00002F01CFB031E05D002F00EFB031E01D000F06EFC00F058F802F006FB031EEFD000F06EFCECE7C04680B500AFC046BD4680BDC04680B500AF022001F005FFC04641
:40030000BD4680BD80B582B000AF0200FB1D1A70054BFA1D1278012191400A001A60C046BD4602B080BDC0464401044080B582B000AF0200FB1D1A70054BFA1D1278012107
:4003400091400A001A60C046BD4602B080BDC0464001044080B584B000AF0200FB1D1A70084B1A68FB1D1B78DA4013001A0001231340FB60FB685A425341DBB21800BD4615
:4003800004B080BD0401044090B583B000AF1F4B1B687B60FC1C0020FFF7DCFF03002370BC1C0220FFF7D6FF03002370FB1C1B78002B03D1BB1C1B78002B03D0134B002289
:4003C0001A6017E0114B1B68002B06D1002002F0F1F80E4B01221A600CE00C4B1B68012B08D102F0F7F80200094B9A4202D9074B02221A60054B1A687B68D31A5A1E934123
:40040000DBB21800BD4603B090BDC04674010020B80B000080B582B000AF0200FB1D1A70002002F0C7F8FB1D1B781800FFF792FF031E01D0012307E002F0CCF80200044BDD
:400440005B8A9A42EFD900231800BD4602B080BDD801002080B582B000AF0200FB1D1A70002002F0A7F8FB1D1B781800FFF772FF03001A0001235340DBB2002B01D00123B7
:4004800007E002F0A7F80200044B5B8A9A42EAD900231800BD4602B080BDC046D801002090B585B000AF0200FB1D1A70BB1D0A1C1A70BB1D1B78002B02D00620FFF722FFC9
:4004C0000F23FC180420FFF7C5FF030023700F23FB181B7801225340DBB2002B11D1114BFA1D1278D2431A60FFF704FF0520FFF709FF0F23FC180320FFF7ACFF03002370D2
:4005000000E0C0460520FFF711FF064BFF221A600620FFF70BFF0F23FB181B781800BD4605B090BD0002044080B584B000AF786039600320FFF7E6FE0420FFF7F7FE0520A3
:40054000FFF768FF0300FB60FB68002B07D10420FFF7ECFE0320FFF7E9FE002326E00420FFF7D0FE134B1B68DBB2DB43DAB27B681A700620FFF7EEFE03001A003B681A607E
:400580007B681B780A2B02D13B6801221A600320FFF7CCFE0520FFF75DFF0300FB600320FFF7B0FE0420FFF7C1FEFB681800BD4604B080BD0402044080B582B000AF020054
:4005C000FB1D1A70FB1D1B782033DBB200211800FFF766FFC046BD4602B080BD80B582B000AF0200FB1D1A70FB1D1B784033DBB200211800FFF754FFC046BD4602B080BD63
:4006000080B500AF1F20FFF7D7FFC046BD4680BD80B500AF1F20FFF7E1FFC046BD4680BD80B582B000AF0200FB1D1A70FB1D1A781A4B1B689A422CD00420FFF777FE032070
:40064000FFF774FE0720FFF75DFEFFF753FE0020FFF758FEFFF74EFEFFF7D2FFFFF7D8FFFB1D1B781800FFF7A7FF0D4B1B781800FFF7B4FF0020FFF759FEFFF73BFEFB1D52
:400680001A78064B1A60064B1B781A00054B1A6000E0C046BD4602B080BDC046D0000020CC000020D400002080B582B000AF0200FB1D1A70FB1D1A781C4B1B689A4230D03D
:4006C0000420FFF733FE0320FFF730FE0020FFF719FEFFF70FFEFFF793FFFFF799FF144B1B781800FFF768FFFB1D1B781800FFF775FF0020FFF71AFEFFF7FCFD0420FFF757
:4007000001FE0320FFF7FEFD0420FFF70FFEFB1D1A78064B1A60064B1B781A00054B1A6000E0C046BD4602B080BDC046D4000020CC000020D000002080B586B000AFF86022
:40074000B9607A60134B5B89002B05D07B68002B02D0BB68013B01E001235B423B6100237B610FE07B69FA68D31818787A693B69D31A5A425341DBB21900FFF791FE7B6965
:4007800001337B617A69BB689A42EBDBC046BD4606B080BDD801002080B586B000AFF860B9607A6000237B611BE0FB685A1CFA601022BA1811001800FFF7B6FE031E05D12C
:4007C0007B680222FF321A607B6912E07B6901337B613B69002B04D07B6801221A607B6907E07A69BB689A42DFDB7B6800221A607B691800BD4606B080BDC04680B500AF98
:400800000C4B0122DA800B4B02221A81094B01225A81084B00229A81064B01221A82054B2A22DA81034BFA2292005A82C046BD4680BDC046D801002090B583B000AF1A4B3D
:40084000FC1D180001F03CFE03002370FB1D1B78002B02D001235B4221E0FC1D134B14491422002000F026FB03002370FB1D1B78002B04D0FFF7C2FF01235B420FE00C4BE3
:400880001B680C4A934207D0094B0A4A1A60084B01229A80FFF7B2FFFFF7B0FF00231800BD4603B090BDC0460046000008030020D801002049ADDDBA80B500AF144B5B6874
:4008C000032B21D3042B02D9063B012B1CD8114B18220021180003F040FE0E4B01221A700C4B802252005A800A4B00221A71094B01225A71084B18221A80074B054A5A607A
:4009000002F048FB030000E000231800BD4680BD00002C40F0020020A803002090B587B000AF0E23FB184E4A128C1A804D4BBB608AE0BC1D0E23FB181A884A4B19000220F0
:4009400002F0F4F803002380BB1D1B88002B00D182E0454B1B78002B40D1BB681B78012B02D0022B24D078E0BB685A783F4B1A70BB685A683E4B1A60BB681A7A3D4B1A70D4
:40098000394B01221A70BB680C337B61BB1D1B880C3B1900364B1A680B00934200D913003B610120FFF73CFE334B00221A6026E0BB685A782D4B1A70BB685A682C4B1A6044
:4009C000294B02221A702C4B1B68002B16D10120FFF76AFE284B01221A600FE0224B1B78012B0CD11F4B7B61BB1D1988204B1A680B00934200D913003B6100E0C0461A4BE3
:400A00001B78012B20D11A4B1A683B69D21A184B1A60184B1B78002B05D0154B1B68002B01D1012300E000233B603A6839697B691800FFF781FE3B68002B05D00B4B00224A
:400A40001A70094B00221A70022001F071FF0300012B00D16DE700E0C046BD4607B090BD2C030020EC01002081010020780100207C010020800100208401002080B586B043
:400A800000AF1623FB18444A928A1A80434B1B78022B72D1424B3B61F423FB60414B1B68FA68934200D91300FB603B690C33F9683A001800FFF770FE0300BB603B6902225E
:400AC0001A70394B1A783B695A70374B1B78DB43DAB23B699A70BA683B695A603B685A1E9341DBB21A003B691A723B690022DA703B6900229A723B690022DA723B6900227B
:400B00005A72BB680F33032293431A00254B1A60264B234A1A60214B03221A702DE01623FB1819881F4B1A680B00934200D913007B601E4B1B687A6892B21900012001F048
:400B40004FFF1A4B1A687B68D218184B1A60154B1A687B68D21A134B1A60124B1B68002B0BD11623FB181A887B689A4205D00E4B00221A70094B00221A70084B1B78032B8B
:400B800005D1012001F0D4FE0300012BC7D0C046BD4606B080BDC0462C03002081010020EC0100207C01002078010020EC02002080B500AF022002F019F8C046BD4680BD22
:400BC00080B500AFFFF7AAFEFFF758FFC046BD4680BDC04680B582B000AF786039603A687B680021180003F0B8FCC046BD4602B080BDC04680B586B000AF78603960002342
:400C00003B6100237B612FE07B699B007A68D3181B68BB600F23FB18BA681A70BB68FF229343BB6018E03B695B003A68D3181B781A00BB68D31819003B695B003A68D31816
:400C40005B780B703B6901333B610F23FB181A780F23FB18013A1A700F23FB181B78002BE1D17B6901337B617B69062BCCD9C046BD4606B080BDC04680B500AF054B032213
:400C80001A60054B03221A60044B00221A60C046BD4680BD3000304030003140000E3F4080B500AF03F024FC03001B680C2B00D1FEE7FEE780B586B000AF224B7B61224BAD
:400CC0003B61204B7B6135E03B691B68FB603B695B68BB603B699B683B6000237B600CE0FB681A68BB681A60BB680433BB60FB680433FB607B6804337B607A683B689A428A
:400D0000EED13B69DB683B6000237B6008E0BB6800221A60BB680433BB607B6804337B607A683B689A42F2D13B6910333B617B69013B7B617B69002BC6D103F0DFFBFFF757
:400D4000A1FAFEE701000000F849000080B582B000AF154B144A126801218A431A6000237B600FE07B68032B04D8104B7A689200D35800E00E4B0F4A796889008B507B686C
:400D800001337B607B682F2BECD9FFF79BF90A4B00221A60044B044A126801210A431A60C046BD4602B080BD0000104000000000A10C000000000020C000002090B585B038
:400DC00000AF786039600F23FB1801221A703B68002B67D07B68002B64D07B68DB68002B60D07B685B680A2B5CD87B681B68002B58D00F23FC187B68180000F0F5FA03002E
:400E000023700F23FB181B78002B4BD17B681A683B68DA607B685A683B681A617B681A7A3B681A757B685A7A3B685A757B68DA683B689A617B681B68DA097B681B687F2117
:400E40000B4001D0012300E00023D2183B685A603B685A687B685B6853431A027B68DB68D2183B681A603B6808333A681100180000F0B6F93B689B681B68002B12D13B68DC
:400E80001B7D002B0ED00F23FC183B68180000F083FB030023703B6808333A681100180000F09EF90F23FB181B781800BD4605B090BDC046B0B59AB002AFF860B9607A60B6
:400EC0003B605F23FB1801221A700023FB640023BB64BB687B647B68002B00D178E1FA687B68D2183B68DB689A4200D970E1BB68002B00D16CE1FB683B647B68FB633B68AA
:400F00009B681B687B630023BB633A6CFB6BD318013BDA093B6CDB09D31A01333B633B689A683B689B69D21A3B685B681B021900100003F051FA03001A003B685B68534371
:400F40001A023B689B69D318FB620023BB6518E0BB6DDA013B6C9A4208D8BB6D0133DB015A1E3B6C9A4201D3012300E00023002B04D0BB6DBB64BB6CFB6407E0BB6D013388
:400F8000BB653B685A68BB6D9A42E1D83B689A68FB6AD31A1B0ABB623B681B69012B12D93A6BBB6CD318013B7B62BA6CBB6A9A4207D87A6ABB6A9A4201D9012302E00023BA
:400FC00000E00123BB630023BB6568E0FB6C1A02FB6AD3183B653B6C7F22134080333B62BB6D5A1C3B6B9A4206D23B6C7F2213408022D31A7B6501E0FB6B7B65BB6B002B6C
:4010000017D0FA6CBB6A9A4213D93B685B681B023A6DD31A3B653B689A693B6D9A4208D93B681A683B685968FB6CCB1A1B02D31A3B653B681B7D002B12D05F23FC187D6D6D
:401040003A6A796C386D3B6800932B0000F026FA030023705F23FB181B78002B0DD022E0786C3A6D3B6AD31819007B6D1A0003F06BFA5F23FB1800221A703A6C7B6DD318C1
:401080003B64FA6B7B6DD31AFB637A6C7B6DD3187B64FB6C0133FB64BB6D0133BB65BA6D3B6B9A4292D35F23FB181B78002B00D08EE07B6B002B00D18AE03B685B687A6BB5
:4010C000934200D913003B633B6B013B3B637A6B3B6BD31ABB6577E03A68BB6D1100180000F0B2F803003B653B6D002B69D03B6D04331B68FB613B6D08331A68FB69D31874
:40110000BB61FA69FB689A4208D9FA687B68D318FA699A429B415B42DBB205E0FA68BB699A429B415B42DBB2002B4AD0FA69FB689A4203D8FA68FB69D31A00E000237B61FA
:40114000FA69FB689A4203D9FA69FB68D31A00E000233B61FA69FB68934200D213003B647B690C337B61FA687B68D318BA69934200D913003A6C9B1A7B65BA683B69D31881
:401180007B643B681B7D002B12D05F23FC187D6D7A69796C386D3B6800932B0000F07EF9030023705F23FB181B78002B09D00FE0786C3A6D7B69D31819007B6D1A0003F03A
:4011C000C3F9BB6D0133BB65BA6D7B6B9A4283D95F23FB181B781800BD4618B0B0BDC04680B586B000AF786039600023BB6000237B613B689B69FB607B68FA681A60002348
:401200003B6115E0FB681B68BB60BB68002B08D0BA687B699A4204D9BB687B617B68FA681A60FB680133FF33FB603B6901333B613B685A683B681B695A433B699A42E1D87F
:40124000C046BD4606B080BD80B584B000AF786039603B689B69FB600BE0FB680133FF33FB603B681A68FB689A4202D80023FB6004E0FB681A687B689A42EED1FB6818005A
:40128000BD4604B080BDC04680B584B000AFF860B9607A603B60FB68002B05D0BB681B685A1CFF32BB681A60BB681A683B681B689A4203D33B689A69BB681A607B68002224
:4012C0001A603B685A68FB689A422FD83B681B69012B27D9BB681A683B685B681B02D21A3B689B699A4214D23B689A693B6859683B681B690F48844663444B431B02D2186B
:40130000BB6819683B689B69CB1AD2187B681A600CE0BB681A683B685B681B02D21A7B681A6003E0BB681A687B681A60C046BD4604B080BDFFFFFF0080B584B000AF78600D
:4013400039600F23FB18FF221A700C23FB1800221A803BE00C23FB181B887A68D31819780F23FB180F22BA1812784A401A700E23FB1800221A701DE00F23FB181B785BB2D0
:40138000002B08DA0F23FB181B78DB18DBB231225340DBB204E00F23FB181B78DB18DBB20F22BA1813700E23FB181A780E23FB1801321A700E23FB181B78072BDCD90C23CF
:4013C000FB181A880C23FB1801321A800C23FB181A883B689A42BDD10F23FB181B781800BD4604B080BDC04680B586B000AF78601723FB1803221A707B68DB683B617B68BB
:401400001B68DA097B681B687F210B4001D0012300E00023D2187B685B6853437A68127A013253431A023B69D318FB603B69002B08D0FA6880235B029A4203D81723FB188D
:4014400000221A701723FB181B781800BD4606B080BDC04680B588B000AFF860B9607A601F23FB1804221A70FB681B0ABB61BA68BB691100180000F025F903007B617B697C
:40148000002B03D11F23FB1800221A701F23FB181B781800BD4608B080BDC04690B5C7B000AFF860B9607A603B6094235B00FB181B689B69FA68D21A94235B00FB181B683B
:4014C0001B68D31888225200BA181360FB687C331C68FB68803380211800FFF72DFF03009C420ED1B868FA687B68D31819003B681A0003F029F81823FF33FB1800221A7090
:4015000041E088235B00FB181B687C331C6888235B00FB181B68803380211800FFF70CFF03009C422AD188235B00FB18196880235A001023FB18180003F006F81823FF3383
:40154000FC1894235B00FB181A681023F918FB681800FFF77FFF030023701823FF33FB181B78002B0FD1B8687B689B001022BA18D3183A68190002F0E7FF04E01823FF3358
:40158000FB1802221A701823FF33FB181B781800BD4647B090BDC04690B5C9B000AF78607B689B68BB60BB681B688C225200BA1813601823FF33FB1801221A7000238E22C1
:4015C0005200BA18136067E0BB68190080235A000C23FB18180002F0B7FF8C235B00FB181B6801338C225200BA181360344B902252009446BC4463448C225200BA18126869
:401600001A600C23FB18803380211800FFF794FE03001A002A4B902149008C46BC446344DA67BB681822FF32BC187A680C2179181800FFF70FFF03002370BA687B689B69F7
:40164000D21A7B681B68D31888225200BA1813601823FF33FC187A680C23F91888235B00FB181B681800FFF7F5FE030023707B6886225200BA18082179188C204000381871
:401680000068FFF701FE8E235B00FB181B6801338E225200BA1813607B685A687B681B695A438E235B00FB181B689A428CD81823FF33FB181B781800BD4649B090BDC046AB
:4016C000ECFEFFFF90B5C9B000AF7860396000238C225200BA18136000238A225200BA1813607B68FF2B00D9C7E03B68002B00D1C3E080235A0039680C23FB180833180054
:4017000002F022FF7B68634A934201D9624A00E0624A634B902149008C46BC4463441A605F4B902252009446BC446344FF225A605C4B0C22BA181A605B4B5C4A1A60C0468D
:40174000584B1B681B0F1A07F0231B069A4204D1544B1B68FF2213400DE0524B1B681B0F1A07A0231B069A4204D04E4B1B68FF22134000E000238C225200BA1813608C230A
:401780005B00FB181B68002B00D07BE02023FF33FC1802F01AFE0300237000F0C9F803008A225200BA1813608C235B00FB181B68002B3FD13A4B902252009446BC446344DD
:4017C0003B4A1A60364B902252009446BC4463441A687B681B041A43314B902149008C46BC4463441A602F4B0C22BA181A602E4B304A1A60C0462B4B1B681B0F1A07F023DC
:401800001B069A4204D1274B1B68FF2213400DE0244B1B681B0F1A07A0231B069A4204D0204B1B68FF22134000E000238C225200BA1813608A235B00FB181B68002B14D157
:4018400000F080F803008A225200BA1813608A235B00FB181B68002B07D08A235B00FB181B688C225200BA1813602023FF33FB181B78180002F0ADFD04E004238C2252005D
:40188000BA1813608C235B00FB181B681800BD4649B090BDFF010000B6D70001B6D70000ECFEFFFF080010400400104004000080B6D800000500008090B585B000AF78609B
:4018C0000F23FC1802F081FD030023707B68102B06D8164B154A126803218A431A601AE07B68202B08D8114B104A126803218A4301210A431A600EE07B68302B08D80B4B87
:401900000A4A126803218A4302210A431A6002E0002000F0C7FB0F23FB181B78180002F058FDC046BD4605B090BDC0463000104080B582B000AF00237B607B681800BD4670
:4019400002B080BD80B582B000AF00237B607B681800BD4602B080BD90B587B000AF0023FB6000F0E5FB031E00D184E00B23FC1802F02BFD03002370414B414A1268012103
:401980000A431A6003233B6100237B6111E03D4B1B681A003F2313403B497A698A181278934203D17B6903333B6105E07B6901337B617B692D2BEAD9344B00221A60344B70
:4019C0001B681F22134007D1314B314A12681F218A430C210A431A602E4B1B682E4A13407B603B692D4A53438022D20194466344DB0B013B5B055B0D7A6813437B607B685D
:401A0000A022520313437B60224B7A681A60244B1B683B603020FFF74FFF224B214A12688021C9050A431A601A4B1B681E4A13407B600BE0012000F041FBFB681033FB6035
:401A4000144BFA6891057A680A431A60FB68EE2BF0D9012000F032FB0E4B7A68FF2189050A431A600E4B3A681A600B23FB181B78180002F0AEFCC046BD4607B090BDC04623
:401A800050000C402CFF0B407048000028FF0B4034FF0B400800224000F800C040420F003000104000002240FFFF3FC080B582B000AF03233B6000237B6011E0134B1B6833
:401AC0001A003F23134012497A688A181278934203D17B6803333B6005E07B6801337B607B682D2BEAD90B4B0A4A12680A490A401A600A4B3A680A498C4662441278D2B271
:401B00001A60C046BD4602B080BDC0462CFF0B407048000000002240FFFFFFBF28FF0B404DF3FF0F80B500AF054B1A688023DB05134001D0012300E000231800BD4680BD45
:401B40000000224080B584B000AF3C4B1B78DBB21A003F231340042B01D9012300E000237B600323BB600023FB6011E0344B1B681A003F2313403349FA688A18127893420A
:401B800003D1FB680333BB6005E0FB680133FB60FB682D2BEAD92C4B2B4A126801218A431A602A4B1A682A4B1A607B68002B13D0284B1A68284B1A60244A254B1B681F211F
:401BC0008B4326490978C9B20B431360214B244A1278D2B21A6007E01C4A1D4B1B681F218B4308210B431360BB68302B0CD11D4B7A68002A03D01C4A1278D2B202E01B4AFC
:401C00001278D2B21A600EE0BB68182B0BD1154B7A68002A03D0164A1278D2B202E0154A1278D2B21A60144B134A126802210A431A60C046BD4604B080BDC04600F3FF0F55
:401C40002CFF0B407048000050000C4034FF0B40A001002020FF0B40A4010020C0F1FF0FC1F1FF0F28FF0B40C3F1FF0F3FF3FF0FC2F1FF0F3EF3FF0F24002C4080B584B040
:401C800000AF254B1B78DBB21A003F231340042B01D9012300E000237B600323BB600023FB6011E01D4B1B681A003F2313401C49FA688A181278934203D1FB680333BB6051
:401CC00005E0FB680133FB60FB682D2BEAD9154B144A126802218A431A60134A124B1B681F218B431900114B1B681F2003400B4313607B68002B03D00D4A0E4B1B681360E0
:401D00000D4BBA680D498C4662441278D2B21A60C046BD4604B080BD00F3FF0F2CFF0B407048000024002C4034FF0B40A001002020FF0B40A401002028FF0B404DF3FF0FEC
:401D400080B500AF054B1B680222134001D0012300E000231800BD4680BDC04624002C4090B587B000AF786000233B610023FB600B23FC1802F029FB03002370FFF7D2FE5B
:401D8000031E03D001233B61FFF790FE7B68182B02D07B68302B03D10123FB60FFF76EFF7B68022B00D8AFE07B68302B00D9ABE0614B1B78DBB21A007B689A420AD35F4ABB
:401DC0001723FB1812781A705D4A1623FB1812781A703FE05B4B1B78DBB21A007B689A420AD3594A1723FB1812781A70574A1623FB1812781A702DE0554B1B78DBB21A00F4
:401E00007B689A420AD3534A1723FB1812781A70514A1623FB1812781A701BE04F4B1B78DBB21A007B689A420AD34D4A1723FB1812781A704B4A1623FB1812781A7009E0CC
:401E4000494A1723FB1812781A70484A1623FB1812781A707B68DA1E0A23FB1844498A5C1A700A23FB181B782F2B0DD97B682A2B0AD9404B19221A60052002F09DFA152310
:401E8000FB1819221A7007E03A4B1B68DAB21523FB183F210A401A700A23FA181523FB1812781B789A4208D2324B7A68033A30498A5C1A60052002F07FFA2F4B7A682B491E
:401EC0008C4662441278D2B21A602C4B1722BA1812781A602A4B1622BA1812781A60052000F012F90A23FA181523FB1812781B789A420CD91F4B7A68033A1D498A5C1A6002
:401F0000052002F059FA02E0002000F0CBF83B69012B01D1FFF720FDFB68012B01D1FFF711FE0B23FB181B78180002F052FAC046BD4607B090BDC04640F3FF0F41F3FF0FA7
:401F400042F3FF0F43F3FF0F44F3FF0F45F3FF0F46F3FF0F47F3FF0F48F3FF0F49F3FF0F4AF3FF0F4BF3FF0F4CF3FF0F4DF3FF0F704800002CFF0B4028FF0B401CFF0B40F5
:401F800020FF0B4080B584B000AF02003960FB1D1A7080239B05FB60FB1D1B781F2B02D9002000F07FF8FB1D1B7810339B00FA68D3181B68BB60FB1D1B7810339B00FA680E
:401FC000D3183A681A60BB681800BD4604B080BD90B587B000AF0200FB1D1A70BB1D0A1C1A70BB1D1B78032B02D9002000F05AF8FB1D1B781F2B02D9002000F053F8FB1D3B
:402000001B7803221340DB0006337B611323FC1802F0DBF903002370FB1D1B789B08DBB29B00144A944663441B68FB6003227B699A401300DA43FB681340FB60BB1D1A783E
:402040007B699A401300FA681343FB60FB1D1B789B08DBB29B00074A94466344FA681A601323FB181B78180002F0B3F9C046BD4607B090BD00E400E080B582B000AF0200DD
:40208000FB1D1A70064BFA1D12781F210A40012191400A001A60C046BD4602B080BDC04600E100E080B582B000AF0200FB1D1A7001BEC046BD4602B080BDC04680B582B0EE
:4020C00000AF786009E00D4B1B68180002F074F97B680B4A944663447B607A6880231B029A42F0D8074B1B687A685343180002F063F9C046BD4602B080BDC046E40000208F
:402100000080FFFFDC00002080B582B000AF0200BB1D1A80BB1D1B88044A12785343180002F04AF9C046BD4602B080BDE000002080B500AF044B1B68002B01DA012300E0AD
:4021400000231800BD4680BD0000224090B583B000AFFC1D02F039F903002370074B074A1268C02109020A431A60FB1D1B78180002F02FF9C046BD4603B090BD00010B4086
:4021800080B500AF054B1A68C0231B02134001D0012300E000231800BD4680BD00010B4090B583B000AFFC1D02F00FF9030023700D4B0D4A12680D490A408021C9010A4329
:4021C0001A60094B084A126808490A40802109020A431A60FB1D1B78180002F0FAF8C046BD4603B090BDC04600010B40FF3FFFFF90B585B000AF78600B23FC1802F0E5F8E7
:4022000003002370FFF7BCFF031E04D00123FB60FFF7C6FF01E00023FB607B680D4A13407B600D4B0C4A12680C4911407A680A431A60094B1B68FB68012B01D1FFF786FF37
:402240000B23FB181B78180002F0C3F8C046BD4605B090BD0404040010020B40FBFBFBFF80B500AF344B1B68042213401FD0334B1B680422134017D0314B1B68042213403A
:40228000DA432E4B1B681A402C4B1A602C4B1B68042293431A002A4B1A602A4B1B68002B02D0284B1B6898470420FFF7A1FF224B1A688023DB00134022D0204B1A688023F5
:4022C000DB00134017D01E4B1A688023DB001340DA431A4B1B681A40184B1A60184B1B68194A1A40164B1A60164B5B68002B02D0144B5B6898478023DB001800FFF778FF2E
:402300000D4B1A688023DB02134011D00B4B1A688023DB02134006D00A4B9B68002B02D0084B9B6898478023DB021800FFF760FFC046BD4680BDC04610020B40F00000205E
:40234000B0010020B4010020FFFBFFFF80B500AF114B8022D2041A600F4B0F4A12681A60002000F051F80C4B0B4A12681A600B4B0C221A60012000F095F8094B31221A6030
:40238000084B180000F050F880231B02180000F05BF8C046BD4680BD400120406401204068012040FFFF000090B583B000AFFC1D02F00BF803002370094B094A12680221DD
:4023C0000A431A60FB1D1B78180002F002F81821022000F049F8C046BD4603B090BDC0460000204080B500AF064B1B78002B04D1FFF7ACFF034B01221A70FFF7D5FFC04638
:40240000BD4680BDD001002080B582B000AF7860044B7A681204120C1A60C046BD4602B080BDC0464801204080B582B000AF7860044B7A681204120C1A60C046BD4602B06F
:4024400080BDC0465401204080B582B000AF7860044B7A681204120C1A60C046BD4602B080BDC0464C01204090B585B000AF786039600F23FC1801F0A8FF03002370084B8B
:4024800079683A6891400A001A600F23FB181B78180001F09EFFC046BD4605B090BDC0460800204080B582B000AF7860034B7A681A60C046BD4602B080BDC04678012040DE
:4024C00090B589B000AF786000220C23FB185A7280235A000C23FB181A6000220C23FB181A7201220C23FB185A600C23FB187A68DA601F23FC18084A0C23FB18110018006E
:40250000FEF75CFC030023701F23FB181B781800BD4609B090BDC0460803002080B500AF094B812292041A60084B0C221A60002000F08AF8064B180000F058F8002000F04D
:4025400039F8C046BD4680BD0001204024012040FFFF000090B583B000AFFC1D01F035FF03002370094B094A126801210A431A60FB1D1B78180001F02CFF1821012000F0D2
:4025800045F8C046BD4603B090BDC0460000204080B500AF064B1B78002B04D1FFF7BEFF034B01221A70FFF7D5FFC046BD4680BDD101002080B582B000AF7860044B7A68D8
:4025C0001204120C1A60C046BD4602B080BDC0460801204080B500AF034B1B681B041B0C1800BD4680BDC0460801204080B582B000AF7860044B7A681204120C1A60C04631
:40260000BD4602B080BDC0461401204090B585B000AF786039600F23FC1801F0D6FE03002370084B79683A6891400A001A600F23FB181B78180001F0CCFEC046BD4605B05E
:4026400090BDC0460800204080B582B000AF7860034B7A681A60C046BD4602B080BDC0463801204080B582B000AF0200FB1D1A70BB1D0A1C1A700A4B1B78002B04D100F056
:4026800011F8074B01221A70BB1D1A78FB1D1B781100180000F07EF8C046BD4602B080BDD2010020B0B500AF2C4B01221A602C4B2B4A126820218A431A602A4B0A221A6052
:4026C000294B2A4A1A60284B274A126828490A431A60254B244A126804218A431A600220FFF712FD204B204A126808218A431A60204CFFF725FB031E01D0022300E000239C
:4027000023601D4B1D4A1A601D4B06221A6003211E20FFF75DFC1B4B19001E20FFF732FC03211F20FFF754FC174B19001F20FFF729FC03210020FFF74BFC144B190000209A
:40274000FFF720FC03210520FFF742FC104B19000520FFF717FCC046BD46B0BD74022C4048002C4030032C4000202C40010000040C0000B824002C4030202C4018001500AF
:4027800028202C40CD330000FD330000E53300001534000080B582B000AF0200FB1D1A70BB1D0A1C1A702A4BFA1D12781A70294B00221A70284B00221A70284B00221A7094
:4027C000274B00221A70274B00221A70264B00221A70264B00221A701E20FFF74DFC0020FFF74AFC1F20FFF747FCBB1D1B78002B02D0012B07D00DE01D4B1D4A126801214F
:402800008A431A600DE01A4B194A126801210A431A6006E0164B164A126801210A431A60C046134B124A126804218A431A60114B00221A60104B01221A60104B80221A6022
:402840000F4B04221A60C046BD4602B080BDC04629030020A10300209A030020A0030020990300209E030020280300209F03002024002C40A4002C40A0002C4020002C400E
:4028800048002C4080B500AF0E4B00221A700E4B00221A700D4B00221A700D4B00221A700C4B00221A700C4B00221A700B4B00221A700B4B01221A600A4B80221A60C046FC
:4028C000BD4680BDA10300209A030020A0030020990300209E030020280300209F030020A0002C4020002C4080B500AF024B1B78DBB21800BD4680BDA003002080B582B05F
:4029000000AFFB1D00221A70084B1B78DBB2002B06D0FB1D054A12781A70044B00221A70FB1D1B781800BD4602B080BD9A03002080B582B000AF0200FB1D1A70FB1D1A7864
:40294000064913005B009B189B00CB1801331B78DBB21800BD4602B080BDC0462C03002080B584B000AF0200FB1D1A700E23FB1800221A80FB1D1B78002B28D0FB1D1B7881
:40298000082B24D8154AFB1D1B789B019B589AB20E23FB180F210A401A800E23FB181B881B029BB21AB20D49FB1D1B789B01CB1804331B681BB213431AB20E23FB181A8087
:4029C0000E23FB180E22BA181288023A1A800E23FB181B881800BD4604B080BDF0FF2B40B0B584B000AF39601100FB1D021C1A703B1D0A1C1A80FB1D1B78002B00D18AE0F9
:402A0000FB1D1B78082B00D985E03B1D1988FB1D1A78434813005B009B189B00C31806331B889BB21A0080239B009B1A99420FD9FB1D1A783A4913005B009B189B00CB18F0
:402A400006331B889AB23B1D802189008A1A1A80344DFB1D19783B1D1B881B0A9BB2D8B2FB1D1A782E4C13005B009B189B00E31803331B78DBB20343DBB21A008B015A51F8
:402A80002849FB1D1B783A1D1288D2B29B01CB1804331A603B68002B1FD00E23FB1800221A8013E02048FB1D1B780E22BA18128839688A1812789B01C31820331A600E23B4
:402AC000FB180E22BA18128801321A800E23FA183B1D12881B889A42E4D3FB1D1A78104913005B009B189B00CB18013300221A700C4CFB1D1978FB1D1A78094813005B0003
:402B00009B189B00C31805331B78DBB21A008B01E31808331A60C046BD4604B0B0BDC0462C030020F0FF2B40C0012C4080B584B000AF39601100FB1D021C1A703B1D0A1CB8
:402B40001A803B68002B45D0FB1D1B78002B41D0FB1D1B78082B3DD8FB1D1B781800FFF7FFFE03001A003B1D1B88934207D9FB1D1B781800FFF7F4FE03001A0001E03B1D7A
:402B80001A883B1D1A800E23FB1800221A8014E00E23FB181B883A68D2181349FB1D1B789B01CB1820331B68DBB213700E23FB180E22BA18128801321A800E23FA183B1D66
:402BC00012881B889A42E3D3FB1D1B78180000F00DF802E03B1D00221A803B1D1B881800BD4604B080BDC046C0012C4090B583B000AF0200FB1D1A70FB1D1B78002B21D08C
:402C0000FB1D1B78082B1DD8FB1D1A780F4913005B009B189B00CB18013300221A700C4CFB1D1978FB1D1A78084813005B009B189B00C31805331B78DBB21A008B01E318B5
:402C400008331A60C046BD4603B090BD2C030020F0FF2B4080B582B000AF0200FB1D1A70FB1D1B78002B08D00A4B1B78DBB201221343DAB2074B1A7007E0064B1B78DBB2D7
:402C800001229343DAB2034B1A70C046BD4602B080BDC0462803002080B582B000AF374B1B683B603B681022134060D001237B603B688022134012D03B680F221340012B94
:402CC00002D000237B601AE000F064F82C4B1B78DBB25BB2002B12DA00237B600FE03B684022134002D000F0A3F808E03B682022134002D000F0BCF801E000237B607B6809
:402D0000002B34D01D4B1B683B603B68802213402DD11C4B1B78DAB21B4B1B78DBB21343DBB23B60194B3A681A60184B1A683B689A421CD1124B1B78DBB27B600F4B1B68B8
:402D4000802213403B603B68002B09D10B4B0C4A1278D2B21A60094B1B680F2213407B60074B1B78DBB21A007B689A42E2D1084B04221A60C046BD4602B080BDA0002C40BC
:402D8000B4030020A50300209B030020A4002C4020202C4090B583B000AF224B1A68FB1D1A70204BFA1D12781A601E4B1A68FB1D1A70FB1D1B785BB2002B04DA1A4BFA1DF2
:402DC00012781A7029E0022000F018FA174B1B6860221340202B09D0402B0DD0002B11D1FC1D00F01FFB030023700FE0FC1DFDF763FD0300237009E0FC1D01F0ADFA030017
:402E0000237003E0FB1D00221A70C046FB1D1B78002B02D1044B03221A70C046BD4603B090BDC046A0002C40B403002000002C4080B500AF0D4B1B78DBB2022B08D002DC0E
:402E4000002B0ED00EE0042B05D0062B06D009E000F0FAF806E000F07DF903E000F0A6F900E0C046C046BD4680BDC046A103002080B500AF0F4B1B78DBB2022B08D002DC90
:402E8000002B12D012E0042B05D0062B06D00DE000F0E2F80AE000F001F907E0032000F0ADF9054B03221A7000E0C046C046BD4680BDC046A1030020B403002080B582B0AA
:402EC00000AF00237B602B4B1B78DBB29AB22A4B1B889BB2D3189AB2274B1A8017E0274A274B5B681B78DBB219007B689B009950234B5B685A1C224B5A607B6801337B609E
:402F00001F4B1B889BB2013B9AB21D4B1A801C4B1B889BB2002B02D07B68072BDFD9154B1B78DBB2082B02D07B68002B0FD0154B1B78DBB2802252425340DAB2114B1A705F
:402F4000114B0F221A70114B02221A7005E00E4B02221A700D4B02221A707B68DAB20C4B1A707B68DAB2034B1A70C046BD4602B080BDC0469F0300209C03002000002C40BC
:402F8000A8030020A5030020B4030020A10300209B03002080B582B000AF174B1B889BB2002B02D100F030F821E0144B02221A70134B00221A7000F041F9124BDB699BB277
:402FC0001B029BB21AB20F4B9B691BB213431AB2BB1D1A80084B1B889BB2BA1D12889A4203D2054BBA1D12881A80FFF767FF01231800BD4602B080BDA8030020A103002003
:40300000A503002000002C4080B500AF094B02221A70094B80221A70084B0F221A70084B00221A70074B00221A7001231800BD4680BDC046A1030020A5030020B403002006
:403040009F0300209B03002080B500AFFFF736FFC046BD4680BDC04680B500AF0B4B1B78DBB29AB20A4B1B889BB2D3189AB2084B1A80084B00221A70012000F0BFF8064B4E
:4030800003221A70C046BD4680BDC0469F0300209C030020A1030020B403002080B582B000AF00233B60244B1B680F221340023B7B607B689BB2FF2213409AB21F4B1B889A
:4030C0009BB2D3189AB21D4B1A8019E01C4B5B681C493A6892005258D2B21A70184B5B685A1C174B5A603B6801333B607B68013B7B60134B1B889BB2013B9AB2104B1A80E7
:403100000F4B1B889BB2002B02D07B68002BDDD17B68DAB20C4B1A700C4B1B78DBB2802252425340DAB2094B1A70094B0B221A70C046BD4602B080BDA4002C409C030020C0
:40314000A803002000002C409B030020A5030020B403002080B500AF054B00221A70012000F04CF8034B03221A70C046BD4680BDA1030020B403002080B500AF074B06224A
:403180001A70074B06221A70064B80221A70064B00221A7001231800BD4680BDA1030020B4030020A50300209B03002080B500AF0E4B1B78DBB2002B0BD00D4B0B4A1278D0
:4031C000D2B2802149420A43D2B21A60074B00221A70084B00221A70012000F00FF8064B03221A70C046BD4680BDC0469E03002020002C40A1030020B403002080B582B024
:4032000000AF0200FB1D1A700A4B9B68002B0DD0084B9B68FA1D12781A70064B9B68064A128892B25A80034B00229A60C046BD4602B080BDA80300209C03002080B500AF2E
:40324000084B00221A80084B9B68002B07D0064B9B6800221A70044B9B6800225A80C046BD4680BD9C030020A803002080B500AF0D4B01221A600D4B9B6C0D4B1B7BDBB216
:403280001A0003231340012B08D0094BDB7BDBB2802252425340DAB2054BDA73044B01225A73C046BD4680BD2C002C40F0FF2B402C03002080B500AF0E4B02221A600E4A55
:4032C0008823D3580D4B1B7EDBB21A0003231340012B08D0094BDB7EDBB2802252425340DAB2064BDA76054B01225A76C046BD4680BDC0462C002C40F0FF2B402C030020E3
:4033000080B500AF104B04221A60104AC823D3580F4B24229B5CDBB21A0003231340012B0AD00B4B27229B5CDBB2802252425340D9B2074B27229954054B252201219954DC
:40334000C046BD4680BDC0462C002C40F0FF2B402C03002080B500AF034B02221A60FFF791FAC046BD4680BD20202C4080B584B000AF78600023FB607B688022134002D065
:40338000114B1B6998477B680F221A407B68D908FF235B010B4013437B600EE07B680122134004D0084BFA689200D35898477B685B087B60FB680133FB607B68002BEDD1D7
:4033C000C046BD4604B080BDA048000080B500AF034B1B681800FFF7C9FFC046BD4680BD34202C4080B500AF034B1B681800FFF7BDFFC046BD4680BD38202C4080B500AFED
:40340000034B1B681800FFF7B1FFC046BD4680BD3C202C4080B500AF00F0B8FFC046BD4680BDC04690B589B000AF1F23FB1800221A70CF4B1B68FB600023BB61CD4B002279
:403440001A80FB688022134000D1FDE0C84B5B68062B0BD003D8002B00D19CE012E2082B00D1D4E00A2B00D1DEE00BE2C04BDB68012B11D100F0C4FD03003B613B695A6808
:40348000BC4B5A60BB4B12221A801F23FC18FFF781FD03002370EEE1B54BDB68022B28D1B34B9B68DBB2180000F07EFD03003B613B69002B00D1DEE13B695A68AD4B5A60B8
:4034C000AC4B5B6803331B78DBB29BB21B029AB2A84B5B6802331B78DBB29BB213439AB2A44B1A801F23FC18FFF754FD03002370C1E19F4BDB68032B46D11723FB180022CD
:403500001A709D4BBB6111E00B23FB18BA6912781A700B23FB181B78BA69D318BB611723FB181A781723FB1801321A70904B9A681723FB181B789A4204D9BB691B78DBB2F3
:40354000002BE1D18A4B9B68002B07D0884B9B688A4A127C934201D1894BBB61BB691B78DBB2002B00D186E1BB691B78DBB29AB2804B1A807F4BBA695A601F23FC18FFF736
:4035800009FD0300237076E11F23FC18FDF794F9030023706FE1FB680322134021D0022B00D033E0734B02221A80714B1B697F221A40744913005B009B189B00CB18023337
:4035C0001B78DAB2704B1A706F4B00225A70694B6D4A5A601F23FC18FFF7DCFC0300237014E0644B02221A80684B1B78DAB2664B1A70654B00225A705E4B634A5A601F2386
:40360000FC18FFF7C7FC03002370C0463AE1594B01221A80574B5E4A5A601F23FC18FFF7B9FC030023702DE1524B01221A80504B1A69584BD2184F4B5A601F23FC18FFF757
:40364000A9FC030023701DE1494B5B680B2B00D913E19A00504BD3181B689F46444B9B68DAB24E4B1A701F23FC18FFF785FD0300237007E13E4B9B687B607B68002B08D055
:403680007B68DBB2013BDBB2180000F08DFC03003B617B68002B02D03B69002B03D17B68002B00D0EBE03A4B1B78DBB21A007B689A4209D07B68DAB2354B1A70384B0122FF
:4036C0001A70012000F05EF91F23FC18FFF754FD03002370D3E000F0F1FD031E00D1D0E0234B1B693B60224B1B69DAB22D4B1A702D4A3B68D3181B78DAB226493B68CB184D
:403700001B78DBB29A4204D0254B01221A7000F03BFB1F23FC18FFF72FFD03002370B0E0FB6803221340012B40D00DD3022B00D05AE00F4B9B68002B51D11F23FC1800F0BA
:4037400011FD030023704AE0094B9B68012B48D10E4B1B78DBB202229343DAB20B4B1A701F23FC18FFF708FD0300237039E0C04600002C40A80300204049000004490000ED
:403780005C4900002C030020D401002028030020A0030020A4030020D44800009E0300209A0300209903002098030020394B1B69002B18D1374B9B68DBB2DB43D9B2354BE3
:4037C0001B69354AD25CD2B20A40D1B2324AD1541F23FC18FFF7D0FC0300237003E0C04650E0C0464EE0C0464CE0FB6803221340012B21D00DD3022B00D03BE0254B9B6816
:40380000002B32D11F23FC1800F036FC030023702BE0204B9B68012B29D1204B1B78DBB202221343DAB21D4B1A701F23FC18FFF7A3FC030023701AE0164B1B69002B18D1B6
:40384000144B9B68DBB2DB43D9B2124B1B69124AD25CD2B20A40D1B20F4AD1541F23FC18FFF78AFC0300237003E0C0460AE0C04608E0C04606E0C04604E0C04602E0C04689
:4038800000E0C0461F23FB181B781800BD4609B090BDC04600002C40B80300202803002080B582B000AF01237B6057E0304A7B689B010C2199502F497A6813005B009B18AB
:4038C0009B00CB1805331B78DBB2002B1CD029497A6813005B009B189B00CB1804331B78DBB25BB2002B07DA234A7B689B01D31808330C221A600EE01F4A7B689B01D318FD
:40390000083308221A6006E01B4A7B689B01D318083380221A60194816497A6813005B009B189B00CB1806331B889BB21A007B689B01C31808331A6010480E497A68130065
:403940005B009B189B00CB1806331B889BB21A007B689B011A507B6801337B607B68082BA4D9074BFF221A60C046BD4602B080BDC0012C402C030020F0FF2B40D0112C4002
:4039800028002C4080B588B000AF0200FB1D1A701A23FB1800221A801F23FB1800221A7058E01F23FB181A78D64913005B009B189B0000225A541F23FB181A78D1491300C8
:4039C0005B009B189B00CB18023300221A701F23FB181A78CB4913005B009B189B00CB18033300221A701F23FB181A78C54913005B009B189B00CB18083300221A801F2311
:403A0000FB181A78BF4913005B009B189B00CB180A3300221A701F23FB181A78B94913005B009B189B00CB18013300221A701F23FB181A78B34913005B009B189B00CB1867
:403A4000053300221A701F23FB181F22BA18127801321A701F23FB181B78082BA1D9FB1D1B78002B1CD01D23FB1800221A7012E01D23FB181B78A44A0021D1541D23FB18FE
:403A80001B78A24A0021D1541D23FB181D22BA18127801321A701D23FB181B78002BE7D09B4B1B78DBB2002B00D166E1984B1B78DBB2013BDBB2180000F076FA03003B61A2
:403AC0003B695B68FB60FB6807331B781A004023134008D08F4B1B78DBB201221343DAB28C4B1A7007E08B4B1B78DBB201229343DAB2884B1A703B6908333B611F23FB183D
:403B00003A6912781A701D23FB1801221A70BBE03B695B687B611E23FB1800221A70A3E01D23FB181A787B699B7819007F230B409A4200D08EE01D23FB181A7871491300BF
:403B40005B009B189B00CB1808331B889AB27B699B889A420DD21D23FB181A787B699888684913005B009B189B00CB180833021C1A807B691B781A00634B9B5CDAB27B69FB
:403B80005B789A4266D11D23FB181A787B6998785C4913005B009B189B00CB180433021C1A701D23FB181A787B69D878554913005B009B189B00021C5A547B69DA780B2380
:403BC000FB1803210A401A707B699B785BB2002B20DA1D23FB181A780B23FB181B78012B01D1072000E00D20464913005B009B189B00CB180533021C1A701D23FB181A78B3
:403C0000404913005B009B189B00CB18013301221A701FE01D23FB181A780B23FB181B78012B01D1052000E00920364913005B009B189B00CB180533021C1A701D23FB1846
:403C40001A78304913005B009B189B00CB18013300221A707B6908337B611E23FB181E22BA18127801321A701E23FA181F23FB1812781B789A4200D252E71D23FB181D22D4
:403C8000BA18127801321A701D23FB181B78082B00D83DE73B695B687B611D23FB1800221A7019E07B699B781A007F231A407B691878144913005B009B189B00CB180A33E1
:403CC000021C1A707B6908337B611D23FB181A781D23FB1801321A701D23FA181F23FB1812781B789A42DDD300F09CF902000A4B1A601A23FB1800221A801F23FB18012202
:403D00001A7033E02C030020A403002098030020A003002028030020240300201F23FB181A78184913005B009B189B00CB1806331A22BA1812881A801F23FB181A7811491D
:403D400013005B009B189B00CB1808331B8899B21A23FB181A22BA1812888A181A801F23FB181F22BA18127801321A701F23FB181B78082BD2D9FFF793FDC046BD4608B08B
:403D800080BDC0462C03002080B588B000AF804B1B78DBB2002B00D1F5E07D4B1B78DBB2013BDBB2180000F0FFF803007B617B6908337B617B691B783B617B695B68BB6139
:403DC0000F23FB18734A12781A700023FB61D5E0BB691B780F22BA1812789A4200D0C7E00F23FB181B786C4AD35CDAB2BB695B789A4200D0BCE0BB699B781A007F23134014
:403E0000BB60BB69DB781A00032313407B606349BA6813005B009B189B00CB18033300221A70BB6998785D49BA6813005B009B189B00CB180433021C1A70BB69D8785749A5
:403E4000BA6813005B009B189B00021C5A54BB6998885249BA6813005B009B189B00CB180833021C1A80BB699B785BB2002B1ADA7B68012B01D1072000E00D204749BA68DB
:403E800013005B009B189B00CB180533021C1A704249BA6813005B009B189B00CB18013301221A7019E07B68012B01D1052000E009203A49BA6813005B009B189B00CB180A
:403EC0000533021C1A703549BA6813005B009B189B00CB18013300221A70314ABB689B01D318083301221A602D482C49BA6813005B009B189B00CB1808331B889BB21B0ACB
:403F00009BB2DBB21A00BB689B011A5024482349BA6813005B009B189B00CB1808331B889BB2DBB21A00BB689B01C31804331A601C481A49BA6813005B009B189B00CB1826
:403F400006331B889BB21A00BB689B01C31808331A6014481149BA6813005B009B189B00CB1806331B889BB21A00BB689B011A50BB690833BB61FB690133FB61FA693B6956
:403F80009A4200D224E7C046BD4608B080BDC046A003002099030020A40300202C030020F0FF2B40D0112C4080B584B000AF0200FB1D1A70104B1B78DBB2104ADB00D318B1
:403FC00004331B68FB60FB681033FB60FB681B78FA1D12789A4202D30023FB6006E0FB1D1B78DB00FA68D3185B68FB60FB681800BD4604B080BDC04629030020C84900003C
:4040000080B500AF054B1B78DBB2054ADB00D31804331B681800BD4680BDC04629030020C849000080B584B000AF124B1B78DBB2013BDBB21800FFF7B7FF0300BB60BB683F
:40404000002B0FD0BB685A68FB1D12791A70FB1D1B780233DB00BA68D318BB60BB685B68FB6001E00023FB60FB681800BD4604B080BDC046A003002090B583B000AFFB1D2A
:4040800000221A70344B1B697F2213403B603B68002B5BD03B68082B58D830493A6813005B009B189B00CB1802331B78DBB201221343D8B229493A6813005B009B189B00E1
:4040C000CB180233021C1A7024493A6813005B009B189B00CB18033300221A701F493A6813005B009B189B00CB1801331B78DBB202221343D8B219493A6813005B009B184A
:404100009B00CB180133021C1A7014493A6813005B009B189B00CB1804331B78DBB25BB2002B07DA0E4A3B689B01D31808338D221A6006E00A4A3B689B01D31808338922E7
:404140001A60FC1DFFF718F803002370FB1D1B781800BD4603B090BD00002C402C030020F0FF2B4090B583B000AFFB1D00221A704F4B1B697F2213403B603B68002B00D1FE
:404180008FE03B68082B00D98BE04A493A6813005B009B189B00CB1802331B78DBB201229343D8B243493A6813005B009B189B00CB180233021C1A703E493A6813005B0089
:4041C0009B189B00CB18033300221A703A493A4A3B689B019B58802293431A003B689B015A5034493A6813005B009B189B00CB1801331B78DBB202229343D8B22D493A684A
:4042000013005B009B189B00CB180133021C1A7028493A6813005B009B189B00CB1804331B78DBB25BB2002B1BDA22493A6813005B009B189B00CB1801331B78DBB2012BA1
:4042400007D11D4A3B689B01D31808330C221A6022E0194A3B689B01D31808330D221A601AE014493A6813005B009B189B00CB1801331B78DBB2012B07D10F4A3B689B01F7
:40428000D318083308221A6006E00B4A3B689B01D318083309221A60FC1DFEF76DFF03002370FB1D1B781800BD4603B090BDC04600002C402C030020F0FF2B4080B584B095
:4042C00000AF0F23FB1800221A701F4B1A690E23FB181A701D4B1B78DBB2013BDBB21800FFF762FE0300BB60BB685A68FB1D12791A700E23FA18FB1D12781B789A4204D943
:404300000E23FB181B78012B16D80E23FB181B780E22BA1812780E498A5CD1B20D4AD1540E23FB181A78084B9B68D9B2084B99540F23FB1801221A700F23FB181B78180014
:40434000BD4604B080BDC04600002C40A0030020A40300209803002080B582B000AFFB1D00221A70084B1B688022134005D0064B5B68012B00D000E0C046FB1D1B7818005F
:40438000BD4602B080BDC04600002C4080B582B000AF084B1B68DAB2FB1D01210A401A70044BFA1D12781A60FB1D1B781800BD4602B080BD100D04400230800803D00138CD
:4043C000FDD1C046C046C0467047EFF3108072B6704780F310887047002243088B4274D303098B425FD3030A8B4244D3030B8B4228D3030C8B420DD3FF22090212BA030CFD
:404400008B4202D31212090265D0030B8B4219D300E0090AC30B8B4201D3CB03C01A5241830B8B4201D38B03C01A5241430B8B4201D34B03C01A5241030B8B4201D30B0381
:40444000C01A5241C30A8B4201D3CB02C01A5241830A8B4201D38B02C01A5241430A8B4201D34B02C01A5241030A8B4201D30B02C01A5241CDD2C3098B4201D3CB01C01A7D
:40448000524183098B4201D38B01C01A524143098B4201D34B01C01A524103098B4201D30B01C01A5241C3088B4201D3CB00C01A524183088B4201D38B00C01A5241430864
:4044C0008B4201D34B00C01A5241411A00D20146524110467047FFE701B5002000F006F802BDC0460029F7D076E770477047C046014B18687047C046540100200E4B70B5A3
:4045000000251E000D4CE41AA410A54204D0AB00F35898470135F8E700F05CFA084B00251E00084CE41AA410A54204D0AB00F35898470135F8E770BDE0490000E049000082
:40454000E0490000E8490000002310B59A4203D0CC5CC4540133F9E710BD03008218934202D019700133FAE770470000000000000000000000000000000000000000000090
:4045800000000000000000000000000000000000000000000000000000000000000000000000000000000000000000000000000000000000000000000000000000000000FB
:4045C00000000000000000000000000000000000000000000000000000000000000000000000000000000000000000000000000000000000000000000000000000000000BB
:40460000000000000000000000000000000000000000000000000000000000000000000000000000000000000000000000000000000000000000000000000000000000007A
:40464000000000000000000000000000000000000000000000000000000000000000000000000000000000000000000000000000000000000000000000000000000000003A
:4046800000000000000000000000000000000000000000000000000000000000000000000000000000000000000000000000000000000000000000000000000000000000FA
:4046C00000000000000000000000000000000000000000000000000000000000000000000000000000000000000000000000000000000000000000000000000000000000BA
:404700000000000000000000000000000000000000000000000000000000000000000000000000000000000000000000000000000000000000000000000000000000000079
:404740000000000000000000000000000000000000000000000000000000000000000000000000000000000000000000000000000000000000000000000000000000000039
:4047800000000000000000000000000000000000000000000000000000000000000000000000000000000000000000000000000000000000000000000000000000000000F9
:4047C00000000000000000000000000000000000000000000000000000000000000000000000000000000000000000000000000000000000000000000000000000000000B9
:4048000000300F40000800400F40000804360F4007370F4002400F4001410F4003420F4003430F4010470F40BAC0D804DC08DF311801780288028C01DE01E280E88068014D
:40484000DA40A4011420A401C4208801A401B02000082D0854016102880489088D02A001B001C008CA01D604D802E205E408E801030405060708090A0B0C0E0F101112131A
:404880001415161718191B1C1D1E1F2021222325262728292A2B2E2F30313233343500000000000055330000992C000000000000000000006D320000B532000001330000AF
:4048C00000000000000000000000000000000000000000007A380000203700007A380000EA3700007A3800005C3600007A3800007A3800007A380000743600007A38000026
:40490000D63600001201000200000008B404518003000102800100000902270001010080190904000003FE03010007058102400000070502024000000705830302000100AB
:40494000040309040A0342006C00610068000C0359006100750067006900000016034D005900310032003300340035003600370038000000000081024000FE000000020269
:404980004000FE00000083030200FE00FE000000010000001849000003000000744900000000000000000000000000008C49000001000000044900000000000000000000F0
:4049C000010000009049000001000000B049000043000000F8B5C046F8BC08BC9E4670474D0200004D0D0000F8B5C046F8BC08BC9E46704725020000084A0000C80000200A
:404A000090000000680200000000000015000000FFFFFFFFFFFFFFFF006CDC0280BB0000300000000000C05D01000000F000000004040400000000000000000000000000A0
:404A40000000000000000000000000000000000000000000D0490000000000000000000000000000000000000000000000000000000000000000000000000000000000001D
:404A80000000000000000000000000000000000000000000F400002000000000000000000000000000000000000000000000000000000000000000000000000000000000E2
:404AC00000000000000000000000000000000000000000000000000000000000000000000000000000000000000000000000000000000000000000000000000000000000B6
:404B00000000000000000000000000000000000000000000000000000000000000000000000000000000000000000000000000000000000000000000000000000000000075
:404B40000000000000000000000000000000000000000000000000000000000000000000000000000000000000000000000000000000000000000000000000000000000035
:404B800000000000000000000000000000000000000000000000000000000000000000000000000000000000000000000000000000000000000000000000000000000000F5
:0200000490303A
:02000000A18AD3
:0200000490402A
:200000000000000000000000000000000000000000000000000000000000000000000000E0
:0200000490501A
:0C0000000002100011A000011018B32A2B
:0200000490600A
:0100000001FE
:00000001FF